:020000040800F2
:1000000000000220095C01084F5C0108515C0108F6
:10001000535C0108555C0108575C010800000000B2
:10002000000000000000000000000000595C010812
:100030005B5C0108000000005D5C010889C50008E8
:10004000635C0108655C0108675C010805D1000874
:100050006B5C01086D5C01086F5C0108715C010854
:10006000735C0108755C0108775C0108795C010824
:100070007B5C01087D5C01087F5C010809F00008D9
:10008000835C0108855C0108875C0108895C0108C4
:100090008B5C01088D5C01088F5C0108915C010894
:1000A000935C0108955C0108975C0108995C010864
:1000B000C9CD00089D5C01089F5C0108A15C010896
:1000C000A35C0108A55C0108A75C0108A95C010804
:1000D000AB5C01080DF600083DF500086DF4000862
:1000E000B35C0108B55C0108B75C0108B95C0108A4
:1000F000BB5C0108BD5C0108BF5C0108C15C010874
:10010000C35C010871D30008C75C0108C95C010821
:100110009DF30008CDF20008CF5C0108D15C010816
:10012000A9F00008D55C0108D75C010851D300088C
:10013000DB5C0108DD5C0108DF5C0108E15C0108B3
:10014000E35C0108E55C0108E75C0108E95C010883
:10015000EB5C0108ED5C0108EF5C0108FDF10008B3
:10016000F35C0108F55C0108F75C0108F95C010823
:10017000FB5C0108FD5C0108FF5C0108015D0108F2
:10018000035D0108055D010810B5054C237833B9FE
:10019000044B13B10448AFF300800123237010BD5A
:1001A0000803002000000000AC850408084B10B5CF
:1001B0001BB108490848AFF300800848036803B939
:1001C00010BD074B002BFBD0BDE81040184700BF07
:1001D000000000000C030020AC8504080803002088
:1001E00000000000154B002B08BF134B9D46A3F5E4
:1001F000803A00218B460F461348144A121A16F013
:10020000A2FA0F4B002B00D098470E4B002B00D0CA
:1002100098470020002104000D000D48002802D05E
:100220000C48AFF3008016F097F9200029000EF07B
:100230002FF815F077FD00BF000008000000022035
:10024000000000000000000008030020542F0020E0
:1002500000000000000000002DE9F04FADF2CC7D61
:1002600004460F91A44916F04BF80B90002802F0B9
:10027000518114F040FCA14D0990242114202860E4
:1002800018F010FFDFF8C4A29D4B0C954FF000084A
:1002900018604446D3460B9A4FF480712CA815F091
:1002A00009FF002802F02C810C9ADAF80030166859
:1002B000B34204F101041ADB06DD924B92481B683D
:1002C000D96818F07BFF36E014368D4F242575432E
:1002D0002946386819F01AFBA5F5347538604FF4D3
:1002E00034720021284416F02EFA0C9B1E600D215A
:1002F0002CA819F055FB08B1002303700A212CA883
:1003000019F04EFB08B100230370002314AD0093D5
:100310002CAA12AB214628460FF0D2FF0028BAD0F3
:1003200003280CD0774B186841F6F9237749224609
:10033000C06818F0BFFE4FF0FF3802F0E1B8744912
:10034000129F284619F03AFB18BB724A13689BB1FA
:10035000714B6C481A6800688C2353436F4A1168CC
:10036000CA18CB580193131D009322462B466C49A3
:10037000C06818F09FFEDEE7012313600DF2BC4257
:10038000009209993A46204604F074FE012882D171
:10039000D1E76449284619F011FB002840F011818B
:1003A0005C4F3B682BB9574B186841F61A3301F084
:1003B0002AB8DBF80030594A574D002B11D02DDDFB
:1003C000296810688C2606FB0101896A8B4208D0D7
:1003D0004B490868242101FB030151F8201C0E2918
:1003E0001CD0296810688C2606FB0101C96A79B9FE
:1003F0004348242106685943701874500E21013374
:1004000041604FF0FF318360C160CBF8003005E000
:100410003C4B45491B68224602F08EBD2968136893
:10042000DFF8E0908C2505FB013500262B6C9E4201
:1004300013DAAA6C342303FB0623DA6A5AB91A6B5F
:10044000D9F80000002AC8BF38495A6AD8BF3849CD
:10045000C06818F02FFE0136E8E7DFF8A890002604
:100460006B6E9E4213DAEA6E382303FB06231A6B87
:100470005AB95A6BD9F80000002AC8BF2D495A6AE8
:10048000D8BF2D49C06818F015FE0136E8E7DFF83F
:1004900074900026EB6C9E4213DA6A6D342303FBE2
:1004A0000623DA6A5AB91A6BD9F80000002AC8BFC5
:1004B00022495A6AD8BF2249C06818F0FBFD0136AC
:1004C000E8E7DFF8409000262B6F9E4240DAAA6FE3
:1004D000382303FB06231A6B5AB95A6BD9F800006C
:1004E000002AC8BF17495A6AD8BF1749C06818F010
:1004F000E1FD0136E8E700BF1A8204083409002054
:100500007C090020F802002074A6010886A60108D4
:1005100018A70108F0080020180900207009002021
:10052000A9A6010815A701084EA7010883A701087D
:10053000BFA70108F3A7010835A801086FA80108A3
:10054000ACA80108E1A8010824A901089C09002021
:10055000DFF8DC920026AB6D9E4213DA2A6E34235C
:1005600003FB0623DA6A5AB91A6BD9F80000002A8D
:10057000C8BFAA495A6AD8BFA949C06818F09AFDED
:100580000136E8E7DFF8A8920026EB6F9E4214DA06
:10059000D5F88420382303FB06231A6B5AB95A6B0B
:1005A000D9F80000002AC8BF9E495A6AD8BF9E49A0
:1005B000C06818F07FFD0136E7E700233B6000F0DC
:1005C000D3BD9A49284619F0F9F9002840F0CA80AD
:1005D000009012AB3A46214628460FF071FE0328E0
:1005E00004D0934B186841F642339FE69149129E1E
:1005F000284619F0E3F900284AD1009012AB3246A0
:10060000214628460FF05CFE032804D0884B18686A
:1006100041F64D338AE6884B1B685BB3874E884FA3
:1006200033683A688C20294600FB023014F00CFD38
:10063000002800F34E82284614F092FD031E09DDC7
:100640007B4A80491068019300952B462246C0687A
:1006500018F030FD3B6832688C2101FB0322043224
:1006600079492B460DF2BC4019F058F921460DF29C
:10067000BC4007E0284614F073FD002800F32982EF
:100680002146284611F02EFB03464FF0FF3055E07F
:100690006E49284619F092F9002849D1009012AB12
:1006A0003246214628460FF00BFE032804D0604B4B
:1006B000186841F6783339E65F4B1B685BB35F4ED1
:1006C0005F4F33683A688C20294600FB023014F0F3
:1006D000BBFC002800F3FD81284614F041FD031EF9
:1006E00009DD534A57491068019300952B4622466D
:1006F000C06818F0DFFC3B6832688C2101FB0322E4
:10070000043251492B460DF2BC4019F007F921463D
:100710000DF2BC4007E0284614F022FD002800F34B
:10072000D8812146284611F08BF84FF0FF3305E0C1
:100730003F4B186841F69E3300F065BE4FF0FF3521
:1007400006900593049503950295019500952B4617
:1007500012AA1299204614F055FD002880F2048553
:1007600001F0CBBE3A49284619F028F9002840F09C
:1007700027821390009012AB3A46214628460FF08C
:100780009FFD032804D02A4B186841F6BA33CDE503
:100790002849129F284619F011F90646002840F012
:1007A000AD80009012AB3A46214628460FF088FDF6
:1007B000032804D01E4B186841F6C533B6E5129FD6
:1007C000009612AB3A46214624A80FF079FD0E2878
:1007D00040D100230093129A12AB214624A80FF0B7
:1007E0006FFD012804D124A815F092FA139009E0B6
:1007F000032840F0598113A924A814F0F7FB00281E
:1008000000F0528100230093129A12AB214624A8D3
:100810000FF056FD0F281ED046E100BF5FA901086A
:100820009EA90108D5A901081AAA010857AA01081A
:10083000F80200200DC10108F00800207009002016
:100840001809002097AA0108E8AA0108CEDF0108CC
:10085000EEAA01081297A34B1B68002B31D0A24EC1
:10086000A24F33683A688C20294600FB023014F00E
:10087000EBFB002800F32D81284614F071FC031EC9
:1008800009DD9B4A9B491068019300952B4622463F
:10089000C06818F00FFC3B6832688C2101FB032212
:1008A000043295492B460DF2BC4019F037F81399E4
:1008B00019B122460DF2BC4015E021460DF2BC40B4
:1008C00019E08B4E8D4933682246D86818F0F2FB48
:1008D000284614F045FC002801DD3668FBE013993A
:1008E00039B12246284611F049FA4FF0FF3211463D
:1008F00055E12146284611F08FFAF6E7804928464F
:1009000019F05CF8002840F09080009012AB3A4655
:10091000214628460FF0D4FC032804D0744B1868F5
:1009200041F6224302E5129E0027009712AB3246A1
:10093000214624A80FF0C4FC0E2822D1009712AB48
:10094000129A214624A80FF0BBFC012804D124A848
:1009500015F0DEF9139009E0032840F0A58013A9F3
:1009600024A814F043FB002800F09E80002300938D
:10097000129A12AB214624A80FF0A2FC0F2801D036
:1009800092E01296574B1B68002B37D0564E574FAC
:1009900033683A688C20294600FB023014F054FB7F
:1009A000002800F39680284614F0DAFB031E09DDC8
:1009B0004F4A50491068019300952B462246C06863
:1009C00018F078FB3B6832688C2101FB032204326B
:1009D00049492B460DF2BC4018F0A0FF139919B1FC
:1009E00022460DF2BC401AE021460DF2BC4011F047
:1009F0002DF94FF0FF3201461046D0E03C4D3F4903
:100A00002B682246D86818F055FB14A814F0A8FBF0
:100A1000002800F3B280139921B1224614A811F0E6
:100A2000C7F8E6E7214614A8E1E73649284618F05A
:100A3000C5FF002840F0AD800026009612AB3A4674
:100A4000214628460FF03CFC032804D0284B1868A8
:100A500041F67F436AE4129F009612AB3A46214664
:100A600024A80FF02DFC0E2822D1009612AB129A6A
:100A7000214624A80FF024FC012804D124A815F055
:100A800047F9139006E003280ED113A924A814F007
:100A9000ADFA48B100230093129A12AB214624A864
:100AA0000FF00EFC0F2804D0114B186824ABB0E2F5
:100AB00012970C4B1B68002B53D00B4E0B4F336817
:100AC0003A688C20294600FB023014F0BDFA002859
:100AD0001CDD074B1E6800902B4622460A49F06831
:100AE00000F096BCF00800207009002018090020D2
:100AF000F802002097AA0108E8AA01083DAB010806
:100B000076AB0108CEDF01085DAA0108284614F083
:100B100027FB031E09DDAE4AAE491068019300951C
:100B20002B462246C06818F0C5FA3B6832688C2113
:100B300001FB03220432A8492B460DF2BC4018F0F9
:100B4000EDFE139919B122460DF2BC401BE021467F
:100B50000DF2BC4010F00EFF4FF0FF310246084688
:100B60001DE09B4D9D492B682246D86818F0A2FADB
:100B700014A814F0F5FA002801DD2D6807E3139995
:100B800021B1224614A810F0A7FEE5E7214614A8DB
:100B9000E0E78F4B186841F6D94300F034BC139B53
:100BA000129F002B41F096844FF0FF330492039183
:100BB0000693059302900193009312AA394605E328
:100BC0008749284618F0FAFE0646002840F0E780DC
:100BD0002490009012AB3A46214628460FF070FB55
:100BE000032805D07A4B186841F6F243FFF79EBB05
:100BF000129F009612AB3A4621460DF2BC400FF010
:100C00005FFB0E2826D1009612AB129A21460DF2F8
:100C1000BC400FF055FB012805D10DF2BC4015F08A
:100C200077F824900AE0032840F0EF8124A90DF220
:100C3000BC4014F0DBF9002800F0E78100230093AA
:100C4000129A12AB21460DF2BC400FF039FB0F286F
:100C500001D0DAE11297634B1B68002B00F0828011
:100C6000614EDFF88C913368D9F800208C2029463A
:100C700000FB023014F0E8F900283FF72AAF2846BD
:100C800014F06EFA002809DD514B52491F6801909B
:100C900000952B462246F86818F00CFA249F002F86
:100CA00047D03368D9F800208C2606FB0236716ED7
:100CB000B36E99421FD141B93821052018F0F2F9DD
:100CC000F066A8B94FF0FF333EE005314FF0380928
:100CD00009FB01F1F06E18F019FEF0660028F1D062
:100CE000B36E4FF48C72002109FB030015F02BFD4D
:100CF000B36E0533B366F36E706E4FF03809202281
:100D000009FB0030294618F0A3FE736EF26E09FB52
:100D100003235C62736EF26E09FB0323DF62736E62
:100D2000F26E09FB032300221A63736E5A1C72666B
:100D30000AE03368D9F8000029468C2505FB00300D
:100D4000224610F008FD0346249A002A40F00C8247
:100D50004FF0FF32069205920492039202920192A2
:100D6000009231E214A814F0FBF9002800F30D8280
:100D7000249921B1224614A811F000F803E021467D
:100D800014A811F049F8249B002B40F0ED814FF09E
:100D9000FF330693059304930393029012E21349E1
:100DA000284618F00BFE0646002840F0F9802490F3
:100DB000009012AB3A46214628460FF081FA0328EC
:100DC00018D0034B186841F66953FFF7AFBA00BF5C
:100DD000F802002097AA0108E8AA01083DAB010823
:100DE0000DC10108F00800207009002076AB010851
:100DF00018090020129F009612AB3A4621460DF2C8
:100E0000BC400FF05DFA0E2827D100230093129A00
:100E100012AB21460DF2BC400FF052FA012805D169
:100E20000DF2BC4014F074FF24900AE0032840F057
:100E3000EC8024A90DF2BC4014F0D8F8002800F092
:100E4000E48000230093129A12AB21460DF2BC40BD
:100E50000FF036FA0F2801D0D7E01297B54B1B6878
:100E6000002B00F08180B44EDFF8E0923368D9F8AF
:100E700000208C20294600FB023014F0E5F8002801
:100E80003FF727AE284614F06BF9002809DDAB4B7D
:100E9000AB491F68019000952B462246F86818F070
:100EA00009F9249F002F47D03368D9F800208C26F9
:100EB00006FB0236316F736F99421FD141B9382159
:100EC000052018F0EFF8B067A8B94FF0FF303DE00B
:100ED00005314FF0380909FB01F1B06F18F016FD2C
:100EE000B0670028F1D0736F4FF48C72002109FBBA
:100EF000030015F028FC736F05337367B36F306F11
:100F00004FF03809202209FB0030294618F0A0FDD7
:100F1000336FB26F09FB03235C62336FB26F09FB5F
:100F20000323DF62336FB26F09FB032300221A63CE
:100F3000306F431C336709E0D9F800003368294655
:100F40008C25224605FB003010F091FB249B002BE2
:100F500040F00A814FF0FF33069305930493039307
:100F600002938DE809002FE1284614F0F9F80028D3
:100F70003FF7AFAD249921B12246284610F018FE64
:100F800003E02146284610F061FE249B002B40F030
:100F9000EB804FF0FF33069305930493039010E129
:100FA0006849284618F00AFD002840F01681249070
:100FB000009012AB3A46214628460FF081F90328EB
:100FC00005D05E4B18684FF4EF53FFF7AFB9129E90
:100FD0000027009712AB324621460DF2BC400FF0BD
:100FE0006FF90E282CD1009712AB129A21460DF200
:100FF000BC400FF065F9012805D10DF2BC4014F09A
:1010000087FE249010E0032807D04C4B18680DF29F
:10101000BC4322464C49FFF78BB924A90DF2BC40D2
:1010200013F0E4FF0028F0D000230093129A12ABD3
:1010300021460DF2BC400FF043F90F2801D0E4E740
:1010400012963C4B1B68002B00F09A803A4EDFF85A
:10105000FC903368D9F800208C20294600FB023030
:1010600013F0F2FF00283FF734AD284614F078F86B
:10107000002809DD314B32491F68019000952B464D
:101080002246F86818F016F8249F002F60D03368C5
:10109000D9F800208C2606FB0236F16FD6F8803096
:1010A000994225D149B93821052017F0FBFFC6F830
:1010B0008400C0B94FF0FF3054E005314FF03809DB
:1010C00009FB01F1D6F8840018F020FCC6F8840072
:1010D0000028EFD0D6F880304FF48C72002109FB45
:1010E000030015F030FBD6F880300533C6F88030A9
:1010F000D6F88430F06F4FF03809202209FB003019
:10110000294618F0A5FCF36FD6F8842009FB0323C9
:101110005C62F36FD6F8842009FB0323DF62F36F70
:10112000D6F8842009FB032300221A63F06F431CC6
:10113000F36717E0F008002070090020F802002093
:1011400097AA0108CEDF0108F5AA010818090020B6
:10115000D9F80000336829468C25224605FB00306B
:1011600010F010FA249B13B1129F01F0B3B94FF0A5
:10117000FF3306930593049303930293019022E0B7
:1011800014A813F0EDFF002807DDB14B1D68009097
:1011900014AB2246AF49E8683AE1249921B12246CE
:1011A00014A810F099FB03E0214614A810F0E2FB0C
:1011B000249B002BD8D14FF0FF3306930593049066
:1011C0000393029301930093129912AA204614F0FC
:1011D00019F80028C8DAFFF7AEB89F49284618F07A
:1011E000EDFB00285CD19D4B1B6823B9984B186818
:1011F00041F6586307E1DFF88092DBF80030D9F858
:101200000000242505FB03F1421844500133002659
:10121000566093603B78002B01F07C8013AB009309
:101220003A4602230999204603F024FF0128074685
:101230003FF481A8022800F08883099B6CA81968F4
:1012400012F0E4FF6CA812F099FF031E0A93C1F29A
:101250001F8100963346139A0999204603F00AFF2E
:1012600001283FF468A8099B0DF2BC40196812F0F0
:10127000CDFF0DF2BC4012F081FF0028C1F20881C1
:10128000DAF80030D9F8002005FB03250A9AEA6055
:101290004FF0FF322F616861AA612496259389E39C
:1012A0006F49284618F08AFB002840F09F806B4B5E
:1012B0001B6823B9664B186841F6AF63A3E0DFF8FB
:1012C000B891684E0125294624A814F009F9002890
:1012D00041F029862498D8B9D9F80020259B2421EB
:1012E00001FB032399690029BCBFDBF800209A6148
:1012F0005D4BDBF800201B6825929D4201F31386AD
:101300005B1B002146F8331006EBC3035A6002E072
:10131000012840F0B58001350028D4D1B8F1000F84
:1013200041F0EE80DFF85091DBF80030D9F8000092
:10133000242505FB03F1421844500133C2F8048010
:1013400093603B78002B00F0E58713AB00933A469F
:1013500002230999204603F08DFE012806463EF43B
:10136000EAAF022800F0F182099B6CA8196812F01C
:101370004DFF6CA812F002FF071EC1F28980CDF864
:1013800000804346139A0999204603F073FE012812
:101390003EF4D1AF099B0DF2BC40196812F036FF44
:1013A0000DF2BC4012F0EAFE0028C1F27180DAF8BA
:1013B0000030D9F8002005FB032501222E614FF0F3
:1013C000FF366861EF60AE61334424A82492259310
:1013D00014F0B2F8002801F076801D4B23491B68F9
:1013E0002246D86817F066FE01F089B820492846E1
:1013F00018F0E4FA002861D1184B1B6863B9144B4C
:10140000186841F62E731B49009322462B46C0688C
:1014100017F050FEFEF78FBF174E01254FF024093D
:1014200029460DF2BC4014F05BF8002841F07B85A2
:10143000DDF8BC0410BBDDF8C034326809FB0323BF
:101440009969002922DADBF800209A611EE000BFCA
:10145000F80200205DAA010883AC0108F008002012
:101460001EAC0108300300202C030020F4AB01085F
:101470007BAC010821A701087C090020012805D0C8
:10148000AA4BAB491B68224601F056BD0135002826
:10149000C6D1B8F1000F41F033800123CDF8BC3440
:1014A000DBF800300DF2BC40013BCDF8C03414F045
:1014B00043F8002801F00E8000F006BC9D49284644
:1014C00018F07CFA002856D19B4B1B6823B9974B28
:1014D000186841F6657396E7984E054601210DF2AE
:1014E000BC4013F0FDFF48B1904B95491B68224664
:1014F000D86817F0DFFD4FF0FF3827E0DDF8BC3487
:10150000012B0DD10DF2BC4014F000F8DDF8C03411
:101510003268242101FB0323DBF800209A6011E0EC
:1015200083B90DF2BC4013F0F1FFDDF8C02433683D
:10153000242101FB023301259A69002ABCBFDBF894
:1015400000209A61DDF8BC34002BC7D12DB9774B50
:101550007C491B68224601F0EFBCDBF8003077497C
:1015600024225A43086881188450012213444A6097
:101570008B6000F00DBC7449284618F01FFA06462F
:10158000002840F04A816C4B1B6823B9674B1868F0
:1015900041F69A7337E76949DBF80030086824227E
:1015A0005A438118013384508B60042212AB4A6085
:1015B00000961A68214628460EF082FE032805D0C0
:1015C0005A4B186841F6A773FEF7B0BE5F4FDFF8BD
:1015D0008C913B68D9F800208C2101FB023318461E
:1015E00029460A9310F010F900280A9B08DB9A6C30
:1015F000342303FB00231A6B01321A63334678E06D
:101600002946184610F0C6FC002804DA284610F0D7
:101610008DFD002809DB4E4B1A68342303FB0023A1
:101620001A6B01321A63062363E0D9F800003B68A5
:101630003E4E8C22294602FB003010F0F1FC0028BF
:1016400005DB30682B4622464249FEF771BE28462C
:1016500010F0C6FC0028F4DAD9F800003B68DFF887
:10166000EC80DFF8F8A04FF08C09294609FB003028
:1016700010F038FA0028E4DA284610F013FA0028AF
:10168000DFDADAF80030D8F8007009FB0377294672
:10169000384610F045F8002805DB30682E492B4607
:1016A0002246FEF745BE2946384610F027FC0028A2
:1016B000F3DA284610F0FAFC0028EEDADAF8003007
:1016C000D8F8002009FB0329294648460FF0B4FF4B
:1016D0000028E2DA2946484610F0BEF90028DCDA94
:1016E000284610F045FA0028D7DA30682B4600F07B
:1016F000E6BD124EDBF800203168242707FB0212FA
:1017000012AD4FF00009D0601361CDF800902B4668
:101710002A68214614A80EF0D3FD072820D0034BD9
:10172000186841F6DD73FEF701BE00BFF802002025
:1017300050AC010880AC0108F00800207C090020B2
:1017400025AC010886AC010847AD010870090020EE
:1017500094090020B2AC0108E4AC0108180900208B
:10176000009503232A680999204603F083FC012889
:101770003EF4E1AD099B6CA8196812F047FD6CA816
:1017800012F0FCFC0028C0F283863268DAF80030E0
:10179000099907FB03235861009504232A68204612
:1017A00003F068FC01283EF4C6AD099B6CA81968DB
:1017B00012F02CFD6CA812F0E1FC0028C0F2688643
:1017C0003268DAF8003007FB03232A689861117841
:1017D000D1B100954B460999204603F04BFC0128F6
:1017E0003EF4A9AD099B6CA8196812F00FFD6CA816
:1017F00012F0C4FC0028C0F24B86DAF800303268E0
:1018000007FB0327F86102E04FF0FF32DA6104239F
:10181000CDF8BC34DBF800304DE2AF49284618F073
:10182000CDF8002864D1AD4B1B6823B9AC4B1868C8
:1018300042F23F03E7E524A813F068FE002841F0D8
:101840007283249B042B05D0A54BA6491B68224616
:1018500001F072BBA44EDBF800103368242505FBB1
:1018600001F01A181C5005205060481C9060259803
:1018700005FB0033B1461962D0600DF2BC4011F097
:10188000B5FA98B9DDF8C024259B9A420ED10DF225
:10189000BC4013F00FFEDDF8BC34D9F8002005FB86
:1018A0000323DBF8002001329A60E6E78F4A3168B3
:1018B0000A911368DBF80010DDF894908C4E0D91BE
:1018C0004FF0240C0021002B40F35D82581E06EBE4
:1018D000C00E56F83050DEF804E0F14540F0538277
:1018E0000A9B0CFB05350D9BAB6001210346EAE723
:1018F0008049284618F062F800285DD1774B1B68B4
:1019000023B9774B18684FF402537CE5764EDBF829
:101910000020306824235343C118C45001320223ED
:101920004B608A603A78002A00F0F4840DF14C098B
:10193000CDF800903A460999204603F09BFB012818
:1019400005463EF4F8AC022805D1654B6A491B6890
:10195000224601F0F1BA099B6CA8196812F056FCF6
:101960006CA812F00BFC071EC0F2928500230093B6
:10197000D9F800200999204603F07CFB01283EF4A9
:10198000DAAC099B0DF2BC40196812F03FFC0DF275
:10199000BC4012F0F3FB0028C0F27A85DBF800208F
:1019A0003168242303FB0213DF601D6158610223A9
:1019B0002493259224A882E15049284617F0FEFF7F
:1019C000002843D1454B1B6823B9454B186842F2A8
:1019D000D10318E524A813F099FD002841F0A38253
:1019E000249B022B05D03E4B45491B68224601F043
:1019F000A3BA3D4EDBF800103368242505FB01F047
:101A00001A181C5003205060481C9060259805FB54
:101A100000339961D0600DF2BC4011F0E7F9002865
:101A200040F0B381DDF8C024259B9A4240F0AD819F
:101A30000DF2BC4013F03EFDDDF8BC34326805FB0E
:101A40000323DBF8002001329A60E4E72D492846A1
:101A500017F0B4FF002831D1204B1B6823B9204B6D
:101A600018684FF40453CEE41F4ADBF800501168A5
:101A700024236B43CA18CC50062353606B1C93601D
:101A80003B7873B102222049384617F0CCFF40B1B1
:101A9000134B186842F20B1300933B4622461B4936
:101AA000B5E406230DF2BC40CDF8BC34CDF8C054EB
:101AB00013F042FD002800F0688105E11449284632
:101AC00017F07CFF002861D1044B1B6813BB044B4B
:101AD000186842F2231396E444AD0108F008002090
:101AE000F80200204BAD01087C090020B004002062
:101AF000300400207BAD01089DAB010878AD0108E2
:101B000081AD0108E4AD0108B0AD0108B3AD010835
:101B1000E1AD010824A813F0F9FC002841F003828C
:101B2000249B062B05D0AC4BAC491B68224601F028
:101B300003BAAB4EDBF800103368242505FB01F037
:101B40001A181C5007205060481C9060259805FB0F
:101B50000033D960D0600DF2BC4011F047F9002885
:101B600040F01381DDF8C024259B9A4240F00D819E
:101B70000DF2BC4013F09EFCDDF8BC34326805FB6E
:101B80000323DBF8002001329A60E4E795492846F8
:101B900017F014FF00284ED1934B1B6823B98E4BCE
:101BA000186842F250132EE48D4EDBF80030316895
:101BB000242505FB03F288188C500E2242608B4AC4
:101BC00011688B4A12684FF08C0E0EFB0122013314
:101BD0008360D16A3A7851B92AB17F4B85491B6835
:101BE000224601F0A9B94FF0FF32C260B7E12AB92D
:101BF000794B81491B68224601F09EB9002300936E
:101C00003A460999204603F035FA01283EF493AB91
:101C1000099B6CA8196812F0F9FA6CA812F0AEFAD8
:101C20000028C0F23584DAF80030326805FB03255D
:101C3000E86000F04ABC7149284617F0BFFE034631
:101C4000002847D1684A12682AB9634B186842F2E3
:101C50008E13FFF7D8BBDFF88891DBF80020D9F8A6
:101C60000000242505FB02F6811984510132082663
:101C70004E608A603A78002A00F04C8300933A461E
:101C80000999204603F0F6F901283EF454AB099B6C
:101C90006CA8196812F0BAFA6CA812F06FFA002852
:101CA000C0F2F683DAF80030D9F8002005FB0325EE
:101CB000E860CDF8BC64CDF8C0340DF2BC4013F040
:101CC0003BFC002800F0FF83434B4D491B68224634
:101CD00001F032B94B49284617F070FE00286BD14D
:101CE000414B1B682BB93C4B186842F2C613FFF7F7
:101CF0008ABB24A813F00AFC002841F01481249B1D
:101D0000082B05D0344B40491B68224601F014B91A
:101D1000334EDBF800103368242505FB01F01A1858
:101D20001C5009205060481C9060259805FB00332A
:101D3000B1461961D0600DF2BC4011F057F898B966
:101D4000DDF8C024259B9A420ED10DF2BC4013F061
:101D5000B1FBDDF8BC34D9F8002005FB0323DAF829
:101D6000002001329A60E6E7284A31680A91DDF8DE
:101D70009490DBF800101368254E0D914FF0240C61
:101D80000021002B07DC01B11360DBF800300133C8
:101D9000CBF800309EE3581E06EBC00E56F83050CC
:101DA000DEF804E0F145EED10A9B0CFB05350D9BF6
:101DB000AB6001210346E4E71649284617F0FEFD13
:101DC000002861D1084B1B6833BB034B186842F2F3
:101DD0000523FFF718BB00BFF8020020E9AD01089A
:101DE0007C09002017AE0108F00800201809002027
:101DF000700900201EAE010861AE0108ACAE0108FA
:101E0000F4AB0108A9AE0108B3AE0108B00400208C
:101E100030040020E3AE0108B949DBF8003008685F
:101E200024225A438118845001330A224A608B606D
:101E300001254FF4AA7629460DF2BC4013F050FB61
:101E4000002841F07E80DDF8BC34082B1AD826FA31
:101E500003F3DB0716D5AB48DAF800100368DDF8AA
:101E6000C0540F2B01F36480A74A42F8331002EBF1
:101E7000C302013355600360B8F1000F40F04083A6
:101E80004B1C6CE00135D6E7A049284617F096FDBB
:101E9000002867D19E4B1B682BB99E4B186842F2F5
:101EA0003E23FFF7B0BADBF80020954D24235343BF
:101EB0002A68D118D4500B234B60012631460DF20D
:101EC000BC4013F00DFB00283ED1DDF8BC34022BE2
:101ED00008D12A68DAF80030242101FB0323DDF859
:101EE000C0240CE0062B0CD12968DDF8C024DAF8F8
:101EF0000030242000FB021200FB031392689A605A
:101F00002AE0042B01D0082B24D18348DAF80020E2
:101F10000368DDF8C0640F2B0FDC804941F83320E3
:101F200001EBC301013303602B684E60242101FBE8
:101F300002324FF0FF3393600EE0764B78491B6816
:101F40002246D86817F0B6F8724B76491B682246CD
:101F500000F0F2BF0136B1E7DAF800300133CAF819
:101F60000030B7E22B78002B00F0B482684B1B687E
:101F70002BB9684B186842F27F23FFF744BA3B78CD
:101F80005B2B3BD1013701233A783E46013742B102
:101F90005D2A02D1013BF7D10CE05B2A08BF013377
:101FA000F2E75C4B60491B682246D86817F082F85C
:101FB0004FF0FF384FF0000986F8009012F09BFDBB
:101FC000CDF80090014607464B46129A204603F092
:101FD00051F801283EF4AFA939680DF2BC4012F067
:101FE00015F9384612F054FD0DF2BC4012F0C6F857
:101FF0000A90701C0EF05BF9129002E04FF0FF3374
:102000000A93129B1B783D2B40F07E81474E484F30
:1020100029461CA817F0DCFC3A6833688C2101FBC8
:10202000023528461CA90FF0EFFBB0F1000908DBD0
:10203000AA6C342303FB092300251A6B01321A63AF
:1020400055E11CA928460FF0C4FBB0F100090CDBD8
:10205000EA6E382303FB09F31A44516B01315163D3
:10206000EA6E13440125DB6A2DE11CA928460FF016
:1020700057FBB0F1000908DB6A6D342303FB092329
:1020800002251A6B01321A6331E11CA928460FF0B0
:102090002CFBB0F100090CDBAA6F382303FB09F31A
:1020A0001A44516B01315163AA6F13440325DB6A53
:1020B00009E11CA928460FF0BFFAB0F1000908DBBE
:1020C0002A6E342303FB092304251A6B01321A6399
:1020D0000DE11CA928460FF093FAB0F1000929DBA5
:1020E000D5F88420382303FB09F31A44516B0131DE
:1020F0005163D5F8842013440525DB6AE3E000BF73
:102100007C090020482500208026002015AF01080A
:10211000F0080020F8020020B00400203004002065
:102120004DBC01081EAF010876BC010870090020F3
:10213000180900201CA928460FF02CFFB0F1000957
:102140005DDA386833688C221CA902FB00300FF07E
:10215000FBFEB0F1000962DA386833688C221CA9F2
:1021600002FB00300FF0CAFEB0F1000968DAA54E9C
:10217000A54F336838688C251CA905FB00300FF08B
:1021800097FEB0F100096BDA386833681CA905FBCB
:1021900000300FF061FCB0F1000972DA3868336882
:1021A0001CA905FB00300FF031FCB0F1000978DA12
:1021B000386833681CA905FB00300FF031FF002898
:1021C00004DB924B18681CABFFF73DBA1CA80FF05C
:1021D00007FF0028F5DA386833681CA905FB0030D2
:1021E0000FF080FC0028ECDA1CA80FF05BFC002844
:1021F000E7DA1CA80FF09AFFB0F1000909DB844B65
:102200001A68342303FB092306251A6B01321A636B
:102210006DE01CA80FF06AFFB0F100090ADB7D4BEE
:102220001A68382303FB092307255A6B01325A63C6
:10223000DB6A48E01CA80FF039FFB0F1000909DBA8
:10224000754B1A68342303FB092308251A6B0132E6
:102250001A634CE01CA80FF009FFB0F100090ADB7B
:102260006E4B1A68382303FB092309255A6B013288
:102270005A63DB6A27E01CA80FF07AFCB0F1000972
:1022800009DB674B1A68342303FB09230A251A6B01
:1022900001321A632BE01CA80FF04AFCB0F10009D0
:1022A0000ADB604B1A68382303FB09230B255A6BA2
:1022B00001325A63DB6A06E0544B18681CAB2246B5
:1022C0005949FEF735B80A9A002A07DB93B94F4BF4
:1022D00056491868224614ABFEF72AB8002B09DDD0
:1022E0004A4B53491868224614ABFEF721B80A9BA3
:1022F000002BECDA00230093129A12AB214614A8AB
:102300000DF0DEFF129A03E000254FF0FF392CAAF2
:1023100013782BB93D4B47491B68224600F00CBE91
:10232000454F099900234FF0FF363E602046009349
:1023300002F0A0FE012800F0E280B1450CD03B681D
:10234000002B06DB3D4A1268342101FB03230122E6
:10235000DA60092800F0FE85099B6CAE19683046EA
:1023600011F054FF364ADAF80070116824237B43D9
:10237000CA180137CC503046976000210B58152BF6
:1023800000F00F86123B022B01F10C01F6D8B9F1D7
:10239000FF3F00F08380002D54D16C9B042B1ED195
:1023A0006D9B99457AD16F9B012B09D1729B3BB9EB
:1023B000739B2B2B04D1759B152B01D1709B5FE078
:1023C0006F9B012B6AD1729B002B67D1739B2D2BC6
:1023D00064D1759B152B61D1709B5B4250E0012B42
:1023E0005CD16F9B042B59D1709B994556D1729B40
:1023F000002B53D1739B2B2B50D1759B152B4DD19B
:102400006D9B3DE07009002018090020F8020020B3
:10241000940900202809002048090020A409002070
:10242000040900200C09002019AD01084DAF010876
:1024300085AF01087BAB0108000000206409002083
:102440007C090020062D07D16C9B062BA8D0012B00
:1024500024D16F9B062BC6E7022D07D16C9B082B5E
:102460009ED0012B1AD16F9B082BBCE7082D15D1EC
:102470006C9B0B2B94D0012B10D16F9B0B2BB2E7D5
:1024800063B10C215160C2F80C90156153611AE0E0
:10249000A64BA7491B68224600F04EBD0D23536092
:1024A0000A9B9760C2F80C90156153616CA811F0FB
:1024B00065FE0028ECDB9F4BDBF800201B68242125
:1024C00001FB02339861DAF800300133CAF80030BA
:1024D000FDF7E1BE002300933A4612AB214614A853
:1024E0000DF0EEFE00283DF4D6AE904B186842F297
:1024F000DE33009314ABFFF7D1BAA84600E0B04634
:10250000099812F0C5FA0B9813F072FCB8F1000F9D
:1025100005D083E3854B88491B68224606E0874B3C
:102520001B683BB1814B86491B682246D86816F070
:10253000C1FD71E3834B1B68002B05DC4446824FD1
:10254000DFF85892794E5CE001210DF2BC4012F0A8
:10255000C7FFDDF8BC14774B744A082938D8DFE888
:1025600001F0050F1937373723372D00DDF8C00488
:102570001968242343431068CB587449224630E03D
:10258000DDF8C0041968242343431068CB58704910
:10259000224626E0DDF8C00419682423434310686E
:1025A000CB586C4922461CE0DDF8C004196824238E
:1025B00043431068CB586849224612E0DDF8C00456
:1025C0001968242343431068CB586449224608E025
:1025D000DDF8C0041968242343431068CB586049D0
:1025E0002246C06816F066FD16E3D9F800304FF0B9
:1025F000340A0AFB043ADAF82CB0BBF1000F04D01D
:1026000001343B689C42F0DB25E02E21504617F058
:10261000C7F9054688B180F800B05249504617F016
:10262000CDF938B13068DAF824204F49C0686B1C06
:1026300016F040FD2E232B70E2E7DAF830303068D8
:10264000DAF82420C068002BCCBF484946495346DD
:1026500016F030FDD4E7464E464F344D0024336823
:102660009C4224DA3B684FF0340909FB0439D9F85D
:102670002C30D3B92E21484617F092F9D9F83030D2
:1026800040B1002BD9F82420CCBF3B493B49431C27
:10269000286807E0002B2868D9F82420CCBF3849E7
:1026A00038494B46C06816F005FD0134D7E7364F70
:1026B000DFF8EC901D4D00243B689C4272DAD9F89B
:1026C00000304FF0340A0AFB043ADAF82CB0BBF1C0
:1026D000000F29D12E21504617F062F90646B0B1FD
:1026E00080F800B01F49504617F068F960B1DAF879
:1026F00030302868DAF82420C068002BCCBF23498A
:102700002349731C16F0D6FC2E2333700CE0DAF844
:1027100030302868DAF82420C068002BCCBF1D496F
:102720001D49534616F0C6FC0134C5E7F8020020E7
:10273000C8AB01087C0900207AB00108F00800202D
:102740008BB001082C03002010090020C1B0010843
:10275000FEB0010832B1010869B101089EB101085B
:10276000D7B1010818A7010815B2010849B201083C
:10277000900900206009002085B20108C5B2010857
:10278000FDB201083CB301088C09002073B30108B5
:10279000B0B30108E5B3010822B4010830090020F4
:1027A00094090020AD4FDFF83C93AD4E00243B6808
:1027B0009C4231DAD9F800304FF0380A0AFB043A6B
:1027C000DAF830B0BBF1000F24D12E21504617F0BB
:1027D000E7F8054688B180F800B0A249504617F0E6
:1027E000EDF838B13068DAF824209F49C0686B1CD6
:1027F00016F060FC2E232B700CE0DAF834303068D1
:10280000DAF82420C068002BCCBF98499849534679
:1028100016F050FC0134CAE7964FDFF8CC92904E88
:1028200000243B689C4231DAD9F800304FF0340A7A
:102830000AFB043ADAF82CB0BBF1000F24D12E21A8
:10284000504617F0ADF8054688B180F800B08549CC
:10285000504617F0B3F838B13068DAF824208649CA
:10286000C0686B1C16F026FC2E232B700CE0DAF8E7
:1028700030303068DAF82420C068002BCCBF7F49A4
:102880007F49534616F016FC0134CAE77D4FDFF846
:102890005C92734E00243B689C4231DAD9F80030D8
:1028A0004FF0380A0AFB043ADAF830B0BBF1000FF7
:1028B00024D12E21504617F073F8054688B180F8D0
:1028C00000B06849504617F079F838B13068DAF846
:1028D00024206D49C0686B1C16F0ECFB2E232B7076
:1028E0000CE0DAF834303068DAF82420C068002BC5
:1028F000CCBF66496649534616F0DCFB0134CAE793
:10290000644E654F564D002433689C4224DA3B6880
:102910004FF0340909FB0439D9F82C30D3B92E21F2
:10292000484617F03DF8D9F8303040B1002BD9F8BF
:102930002420CCBF59495A49431C286807E0002B82
:102940002868D9F82420CCBF564957494B46C0685F
:1029500016F0B0FB0134D7E7544E554F404D0024DC
:1029600033689C4224DA3B684FF0380909FB04398C
:10297000D9F83030D3B92E21484617F011F8D9F8DC
:10298000343040B1002BD9F82420CCBF49494A4902
:10299000431C286807E0002B2868D9F82420CCBF06
:1029A000464947494B46C06816F084FB0134D7E7D7
:1029B00000263746434B1B689F4280F2E080424B23
:1029C0001B6853F8274000230434099354F8043C4F
:1029D000152B00F0D280142B40F0CA803B4A2368AC
:1029E000126852F823200B921568394A12689542F2
:1029F0000ADB1B4A374910688DE8280041F21E7235
:102A0000099BC06816F056FB34236B430A93324B84
:102A10000A9A1B680D9303EB020A0AF110030C9348
:102A20002E4B2F4A1B68D2F800B000258C229D4205
:102A300080F29E8011930BF1040102FB05F30C98C8
:102A400010920E9316F0BAFFD9460BF18C0B0028AA
:102A50004ED00135119B109AE9E700BF5C090020B8
:102A6000F802002018A7010857B4010892B4010821
:102A7000D5B40108F408002010B5010846B50108D6
:102A800084B501086C090020BAB50108F6B5010843
:102A90003AB60108780900200409002085B201082F
:102AA000C5B2010876B60108B2B60108A80900202F
:102AB0000C090020EAB6010830B701086EB701081A
:102AC000B0B7010880090020440900202409002033
:102AD00054090020EEB70108640900202C090020E9
:102AE000700900202809002048090020A4090020BE
:102AF000002D3DDBDAF804300133CAF80430D9F890
:102B000088300133C9F88830D9F82C308BB9DAF81D
:102B10000C3073B1974B0A9918680D9AD9F80030A8
:102B2000009352580C9B9449C06816F0C3FA4FF0BA
:102B3000FF36924B0E9A1B681344914A186B11682A
:102B40000A9A11448A6890420DD08A4C24680290F7
:102B500001921A6800920A68E0688A49043316F004
:102B6000A9FAFF2609E00B9B1D60132344F8043CDF
:102B7000099B013309930C3428E701371AE7824D8A
:102B80007F4FDFF8F09100242B689C4210DA34224A
:102B9000396862438B18586840B9D9F800008A58E0
:102BA000C0687A49103316F085FAFF260134EBE746
:102BB000002E31DB714D764E00242F4633689C4247
:102BC0002CDA4FF08C092A6809FB04F94A44D2F840
:102BD0008830FBB904326F490DF2BC4016F09EFEFE
:102BE0000DF2BC400FF0A2FA031E06DB6A4A12681F
:102BF000342000FB0320C36A63B93A685D4902EBE5
:102C00000903086852F80920009204336349C06838
:102C100016F050FA0134D1E74FF0FF380F9B002B2C
:102C200000F0B6825E4A5F4E10683368002211469B
:102C30002424994207DA04FB010501316D680C2D4B
:102C400008BF0132F5E74B4C57492068C06816F0C1
:102C500031FA564B20681B68554924255D43009581
:102C60003268C06816F026FA494B1A68434B0020B8
:102C70001B6806464FF0340E4FF0380C964203F1B5
:102C80008C031ADA53F8301C53F8487C0F4453F87D
:102C90003C1C394453F8587C4FEAC7090EFB019994
:102CA00053F80C7C53F8241C0F4453F8181C394477
:102CB0000CFB019108440136E0E73E4B27681B6896
:102CC0003D498C2606FB03060096F86816F0F2F9DB
:102CD0003A4B2D4A1B683A493420354400FB03F631
:102CE000206800961268C06816F0E4F9354B1A683F
:102CF000354B1F68354BD3F800E0002335444FF0C7
:102D00000C0C1E46934217DA57F82310086900B1DD
:102D10000436D1F80490002048450ADA5EF8231002
:102D2000096851F8201049680CFB0166083601302B
:102D3000F2E71C360133E5E7254B20681B6825497F
:102D400006EBC3060096C06816F0B4F9224BD3F820
:102D50000090224B2E44D3F800A000252F464F456B
:102D60003EDA5AF8270018B116F055FE0130054436
:102D70000137F4E7F8020020E5AF010870090020F0
:102D80006409002045B8010854090020B2B80108C0
:102D90002C090020DAB8010894090020E6B80108DF
:102DA0007C0900209C09002023B901083409002077
:102DB00045B90108EC08002073B90108000900209A
:102DC000A1B90108FC08002024090020A009002066
:102DD00098090020CFB901083C0900201C090020F7
:102DE000984B20681B68984905EB830500954A4677
:102DF000C06816F05FF9954B20681B68944A9549A6
:102E000034272E4407FB03F500951268C06816F0BE
:102E100051F9914B20681B68904A91492E4407FB59
:102E200003F500951268C06816F044F98D4B2068D0
:102E30001B688D494FF0380909FB03F200928B4A59
:102E4000C068126816F036F9894B20681B68894AF9
:102E500089492E4407FB03F500951268C06816F0F7
:102E600029F9864B20681B68854A86492E4409FB50
:102E700003F500951268C06816F01CF9824B2068B3
:102E80001B68824A8249354407FB03F600961268A4
:102E9000C06816F00FF97F4B20681B687E4A7F4997
:102EA0002E4407FB03F500951268C06816F002F97E
:102EB0007B4B20681B687B4A7B49354409FB03F642
:102EC00000961268C06816F0F5F8784BD3F800A0A9
:102ED000774BD3F80090774B1B6835444FEA8A074D
:102EE00000264FF00C0B4E4509DA53F826000993E3
:102EF00011F095F801360BFB0077099BF3E720688A
:102F000000974A4653466C49C06816F0D3F82368C8
:102F10006A48D96816F052F923686949D868EA19ED
:102F200016F0C8F834E1674B67491B68224603E096
:102F3000644B66491B682246D86816F0BBF8FDF75B
:102F4000FAB9B8F1000F7FF4DBAA5E4B60491B6849
:102F50002246F1E75F4B5B481B680E2B09D15E4BA5
:102F60005E4A1B6800685E491B01D3582246FDF784
:102F7000DFB90F2B0ED1584B00681A688C235A43C7
:102F8000584B19688B188A580092043322465649C8
:102F9000FEF73DBA0068554A554942F27733FDF7CE
:102FA000C7B9B9F1FF3F09D1464B52491B682246C8
:102FB000D86816F07FF8C846FFF7A2BA00236E1E45
:102FC0000168152927D00A2E07D8DFE806F0080A7D
:102FD0000C0E10121416181A1C00042914E00529EE
:102FE00012E0082910E009290EE00E290CE00F2953
:102FF0000AE0062908E0072906E00B2904E00C296D
:1030000002E0102900E0112903D14168894508BF79
:1030100001330C30D4E7002B3FF4BDA9691E0A2907
:1030200007D8DFE801F06B747D868F999B9D9FA187
:10303000AB00314908682B4909688C2606FB001152
:10304000886C93E014090020FDB901084C090020A8
:10305000100900202BBA0108080900208C09002063
:1030600059BA01082009002087BA01085C0900202C
:1030700050090020F4080020B5BA010838090020E2
:103080006C090020E3BA01086809002090090020BB
:1030900011BB010858090020780900203FBB010836
:1030A00040090020A80900206DBB01088409002008
:1030B00080090020440900209BBB0108C9BB01080E
:1030C000F9BB0108F802002025AC010827BC010863
:1030D000E9AE01082803002024030020749E0108A3
:1030E000B9AF010870090020E5AF010824B001085C
:1030F00033B001084FB001081809002027490868BB
:10310000274909688C2606FB0011C86E38E0234960
:103110000868234909688C2606FB0011486D25E0E4
:103120001E4908681E4909688C2606FB0011886F35
:1031300026E01A4908681A4909688C2606FB00111E
:10314000086E13E015490868154909688C2606FBC6
:103150000011D1F8840013E0124906E012490EE094
:10316000124902E012490AE012490868342101FBC1
:103170000900C16ACB1AC362FFF70DB90E4908688E
:10318000382101FB0900016BCB1A0363FFF703B978
:1031900040460DF2CC7DBDE8F08F00BF180900203D
:1031A0007009002094090020280900204809002007
:1031B000A4090020040900200C0900201FB50368A1
:1031C0000269416902934368019383680093C3686D
:1031D0000448013201F26C7116F0E8FA05B05DF8AE
:1031E00004FB00BFB3C3010870B5134B1D681E4636
:1031F00055B1124816F082FB002070BD0A2001353F
:1032000009F0A4F90A2D07D001210D480FF0A8FDFF
:103210000328044606D1F1E721460A4806F0E4F8FF
:10322000012070BD0028F7D12946074816F0BEFAE4
:1032300001233360E0E700BF00070020D0C301088E
:10324000B404002098C70108E8C30108012310B5A1
:10325000C1F3421401F01F029C4203FA02F201D1B1
:10326000838903E0022C0CBF038A838A9BB213403C
:10327000028892B243B10123090A03FA01F10A421A
:1032800014BF1846002010BD184610BD034B5B6BE1
:10329000034214BF01200020704700BF002C0140F2
:1032A00082B000230193034B03440193019B1868F0
:1032B00002B07047142C014000230928DAB203F150
:1032C000010302D90A38C0B2F7E740EA0210C0B2DF
:1032D0007047000030B50E4BCA245C6253245C6218
:1032E000DC68E40305D50B4CDD68ED0301D5013C3A
:1032F000FAD1074BDC68E4035CBF0A4310434FF08C
:10330000FF0258BFD8635A6254BF0120002030BD6D
:10331000002800400100020082B0002301930E4B00
:10332000CA225A6253225A62DA6822F0A002DA6094
:10333000DA680199013101910199B1F5003F02F07C
:103340002002054901D0002AF2D0C868FF23C0F34B
:1033500040104B6202B070470028004082B000234A
:1033600001930D4BDA68520613D44FF0FF32DA6046
:10337000DA680199013101910199B1F5803F02F0BC
:10338000400201D0002AF3D0034BD868C0F380106C
:1033900000E0012002B070470028004010B51D4A2F
:1033A000936803F00C03042B03D0082B03D01A4BB3
:1033B00018E01A4B16E05168536811F4800F03F0BF
:1033C0003F03516814BF154A134AB2FBF3F3114A85
:1033D0005268C2F30142C1F3881101324B435200DB
:1033E000B3FBF2F30B4A036093680D49C3F3031375
:1033F000CC5C0368E34043609468C4F382240C5DB2
:1034000023FA04F484609268C2F342328A5CD340A7
:10341000C36010BD003802400024F40000127A009E
:10342000440000202DE9F04F0D46BFB004AF064622
:10343000B7492868D7F810419046994616F0BEFA69
:1034400020B9B44B013E04351B6800E00023FB614A
:10345000B8F1000F16D098F80020B2B1AE4AAF49CB
:103460004046B9F1000F08BF114612F049FFB8629B
:1034700020B112F029FEAA4B186007E0A94B424682
:103480001B681BE0C7F8288000E0BA62ECB1237823
:10349000EBB1A14BA14AD7F814112046002914BF63
:1034A0001146194612F02CFF786220B112F00CFE82
:1034B0009D4B18600CE09B4B1B6822469B49D868CB
:1034C00015F0F8FD012001F0EBBC7C6200E07B62AE
:1034D000D5F800909649484616F070FA002840F05A
:1034E000C7800446012EA84619DDD8F804301A78A2
:1034F0002D2A05F104050FD113F8012F52B1652AC9
:103500004FF00104F8D0874BD8F800201B68894998
:1035100000F0B9BD013EE5E74FF0010951E005D0EB
:1035200008F104040125DFF8FC8167E054B97D4B04
:103530001B68986812F0C8FD13F096FDB0FA80F68B
:10354000760900E00026DFF8DC814FF0FF3900202B
:103550000CF0BEF8042805461BD056B129460020C1
:1035600009F040FB0D2D41F0E5830A21002009F010
:1035700039FBD8F800002946826810F0D7FF0D2DDE
:1035800005D1D8F8000082680A2110F0CFFFA946C3
:10359000DDE7002C00F0A687B9F10D0F00F0A2873F
:1035A000604C20680D21826810F0C0FF20680A215D
:1035B000826810F0BBFF00F095BF09F101094E458C
:1035C000AEDDAA4607F19801DAF8000008F042FAE9
:1035D000012805F10405044606D1524BDAF8002013
:1035E0001B68554900F04FBD0028E6DA4D4BDAF86C
:1035F00000201B68514900F072BF0135AE4240F314
:103600006B82A14654F804BB4D49584612F078FE2F
:10361000824600B3DAF80430013B002BCAF80430CC
:103620000DDA5146D8F8000013F056FB431C014652
:103630000CD0D8F80000826810F078FFEAE7DAF8DA
:1036400000305A1CCAF800201978F2E7504612F0F0
:10365000CFFB002304E0584605F066FF4FF0FF3330
:1036600013F0FF0FC9D0FF21D9F8000000F0A7BD6B
:103670003449484616F0A2F9804600286AD1022E45
:1036800062D107F198046968204616F0A1F9204636
:1036900016F0C1F9012809DD07F1E80301381844E3
:1036A00010F8503C2F2B08BF00F8508C002207F177
:1036B000400107F134007C6304F000F918BB07F106
:1036C000E8063B6C46F8903D796B304604F066FEA8
:1036D000A0B997F98330002B04DA3B6C3A6E5A613B
:1036E00001F034BB97F85E30D8060BD53C6C796F8F
:1036F000207806F0F0FA606101F028BB042808BFCA
:10370000052000E005200146204600F058BD00BF1E
:1037100066BD0108601B002061BE01080BC40108E2
:1037200058020020F80200205C0200207AB0010854
:103730000FC4010813C401082EC4010842C40108C3
:103740001A82040854C40108C34BC4491B684A4682
:1037500000F0C5BEC249484616F030F988B9012EBE
:1037600040F0098607F19800FFF718FED7F8A4305B
:10377000009307F198010EC9BA4816F017F800F047
:1037800050BDB949484616F019F9002840F0A38009
:103790008046012EAA4640F3908055F8043F1A78DF
:1037A0002D2A1CD113F8012FBAB1762A02D148F084
:1037B0000108F7E7662A02D148F00208F2E7A64CB2
:1037C000DAF800202368A949D86815F073FC23684B
:1037D000DAF80020A64900F082BE013ED9E7022EA9
:1037E0006BD006F18044013CA2495AF8240008F04D
:1037F00031F9012881464DD15AF82440204616F06F
:103800000AF94FF0000A8346731E994580F2BD8481
:103810009949204616F0D2F848B9286808F0A0F96E
:103820009649024607F1980016F078F819E0BBF1C6
:10383000000F0CDD04EB0B0313F8013C2F2B06D11A
:10384000286808F08DF9224603468D4905E028686E
:1038500008F086F98B490346224607F1980016F0D6
:103860005DF8424607F1980155F8040B08F070F82E
:103870005FFA80FABAF1000F09D0774B55F8042CA3
:1038800018688149C06807F1980315F013FC09F125
:103890000109B9E7032E0AD1DAF80810DAF80400B2
:1038A000424608F055F85FFA80FA00F06EBC6A4BA9
:1038B0005AF824201B6800F089BC674CDAF8002015
:1038C00023687249D86815F0F5FB2368DAF8002000
:1038D0006F4900F004BE6F49484616F06FF8044681
:1038E000002854D1012E10D107F1980009F020FCD6
:1038F000012802D107F198003FE0574B66481B684A
:10390000D96815F05BFC00F08CBC032E39D16E68D1
:10391000304616F080F80A2840F00686AD68284642
:1039200016F079F8082840F0FF85304612F0F0F9DB
:10393000A0F26C70C7F8AC00701D12F0E9F9013804
:10394000C7F8A80006F1080012F0E2F9C7F8A400D1
:10395000284612F0DDF9C7F8A000E81C12F0D8F9EB
:10396000C7F89C00A81D12F0D3F907F1E80545F847
:10397000500D284609F032FC2846FFF71FFC00F0E6
:10398000B2BD354B45491B684A4600F0A8BD4449C5
:10399000484616F013F80446002840F0AA80012E8D
:1039A00040F0E9843F4BC7F89830024607F15801D0
:1039B00007F1980003F082FF804600287CD1BD6D9E
:1039C000D5F818902C69A9F102039C4278D92B787C
:1039D000012B11D1022600243146284606F0E4F8D6
:1039E000411C33D0012834D000B90134BB6D9B6930
:1039F00001369E42F0D358E00026D5F824B0344674
:103A000046B95946B86D0BF1010A08F0E3FB0028EE
:103A10004AD1D346B86D10F8343B022B08D1831934
:103A20005A78835D53EA022308BF0134023607E067
:103A3000304408F015F920F0704000B90134043624
:103A4000B9F10109C6F30806DAD12EE04FF00108FA
:103A50002BE04FF0020828E0F802002057C40108CC
:103A60006CC4010873C40108A4C40108A7C40108F8
:103A7000C8C40108E8060020B1AD0108BCC70108B0
:103A8000F0C40108F5C40108FBC4010825C50108FC
:103A900041C5010864C5010869C501087FC5010861
:103AA000A0C50108A3C501088046BB6D1A791C6139
:103AB00042F001021A7100E02546B8F1000F0ED164
:103AC000A9696A89B3480239514362438B1A5B087A
:103AD0005208490815F06AFE002400F004BD414672
:103AE000002005F081FCAC4BAC481B68D96800F0A5
:103AF0001FBDAB49484615F061FFF0B9DFF8989259
:103B0000012406F1FF38A64210DDD9F8003055F83F
:103B10002400996815F052FB444505DAD9F80000F5
:103B20002021826810F002FD0134ECE79A4B1868FE
:103B30000A21826810F0FAFCCEE79A49484615F04F
:103B40003DFF88B9731E012B08D8022E0CBF686890
:103B5000954807F09FFEC0B2041C18E38E4B9349B2
:103B60001B684A4600F0BBBC9149484615F026FF49
:103B7000002840F0BA80022EAED16B68FB621B7841
:103B8000002BA9D007F19801F86A06F0A4F978B9DA
:103B900097F8A030DA0608D57F4BFA6A1B6885498A
:103BA000D86815F087FA00F096BCD7F8986000E066
:103BB00000262C2012F056FD0446002800F08B84CD
:103BC000FB6A036006F5806012F04CFD8146606080
:103BD000002800F086804FF48063002563614FF079
:103BE000FF33E6602561A56025626362A562002E51
:103BF00000F0A1847049F86A12F082FB8046002828
:103C000036D0DFF894B14FF00A0AD8F80430013BFF
:103C1000002BC8F804300FDA4146DBF8000013F03F
:103C20005BF8431C0FD00D281EBF89F8000001353A
:103C300009F101098246E8E7D8F800305A1CC8F8B3
:103C400000201878EFE735B1BAF10A0F1EBF0A233A
:103C500089F800300135404612F0CAF8E560256168
:103C6000751B05F5806565610025A560A84614E013
:103C7000494BFA6A1B685149D86815F01BFA20466F
:103C800005F080FC00F027BC4146204605F087FC8B
:103C90000A2807D108F101080025E3689845F3DBFD
:103CA00000F049BC092819D14146204605F0F6FD2F
:103CB000636901336361E3682E1D013B26F003064F
:103CC000E360C5EB080909EB0501AE428846E4DD77
:103CD0002022204605F0ECFE0135F4E708F101084A
:103CE000DBE7204612F0C6FCF5E33549484615F0FF
:103CF00065FEB8B9022E40F0A8876C6831492046AD
:103D000015F05CFE18B9304B40225A83E4E62F4987
:103D1000204615F053FE002840F097872A4B40229A
:103D20001A83D9E62A49484615F048FE002840F093
:103D3000178129464FF0010A0546012E8B4650DDBA
:103D400051F8042F13782D2B53D112F8013F002B7B
:103D500045D06C2B02D145F00105F6E7612B02D16D
:103D600045F00205F1E7552B0DD0532B0ED0742BE7
:103D700032D0722B02D145F02005E6E7064B1549FB
:103D80001B684A46ABE34FF0000ADEE74FF0030A38
:103D9000DBE700BFA6C50108F8020020E5C5010861
:103DA000F0C50108F5C501080DC40108FAC50108F0
:103DB00011C6010814C601081A82040827C60108A2
:103DC00059C601081EA70108000002405DC601088F
:103DD00061C6010864C601084FF0020AB5E7013E5A
:103DE000ABE718D1AA4807F06FFE00245FFA80F80D
:103DF00013E000244FF001095BF8290007F064FE8E
:103E00005FFA80F8B8F1000F09F1010918BF012429
:103E10004E45F1DC01E00024A046BAF1000F0CD0C1
:103E20009C4B9D49C3F800A09C489D4B09681D60B0
:103E300010229C4B006812F087FDDFF85CA24FF067
:103E40000009DAF80030DFF850B2944E99456CDA88
:103E5000924B18684FEA09128118AE0791F80CB01E
:103E600002D41BF0060F5DD18358FB62E8074ED5E4
:103E700008894A898C4E430ABB61C0F343137B60B7
:103E800000F01F037B61D30A3B613068C2F3451326
:103E900052001BF0100FFB6002F03E03BB60826813
:103EA0004B683B6214BF64212D2110F03FFB30684A
:103EB0007221826810F03AFB30681BF0010F14BFCA
:103EC0002D217721826810F031FB30681BF0020F42
:103ED00014BF68212D21826810F028FB30681BF088
:103EE000040F826814BF73212D2110F01FFBBB68E3
:103EF0000393FB6802933B6901937B690093BA6962
:103F00007B68396A694802F2BC7215F04FFC664E54
:103F1000F86A3368996815F051F930680A218268A7
:103F200010F004FB09F101098BE70025DBF80030F4
:103F30009D4206DA2A013368985812F09BFB01353E
:103F4000F4E7306808B112F095FB594A002333605A
:103F5000CBF800301360B8F1000F40F0C382C2E22A
:103F60005449484615F02AFD00285AD1012E40F345
:103F7000CE8104464FF0010A07F1E80055F8043FEE
:103F800040F8A83D022207F1580103F097FC834650
:103F900000283CD107F1E808BB6D48F8503D396C6A
:103FA000404604F0FBF98346002800F0BB86042855
:103FB0002DD197F8C33003F0200303F0FF01002B4D
:103FC00040F0B486404608F09AF9BA6D53895B0216
:103FD000C7F8A4308046002800F04086B8F1010FF1
:103FE00000F03886B8F1FF3F40F0AA864FF0010B91
:103FF00008F08BFAF862BBF1000F00F033864146FF
:1040000007F198000EF03DFEBBF1000F04D05946B9
:10401000286805F0E9F901240AF1010A5645ABD1F7
:1040200061E22549484615F0C9FC28B9012E40F047
:10403000A281FFF7D9F833E22049484615F0BEFCCB
:10404000002840F0D280044600E0013E012EAA463E
:1040500040F3BE8055F8043F1A782D2A34D113F866
:10406000012F002AF1D0762A4FF00104F7D00E4D2F
:10407000DAF800202B681249D86815F01BF82B6875
:10408000DAF800200F49D86815F014F82BE200BFC9
:1040900017D80108BC090020142500202025002085
:1040A000AC09002015B00008F802002084C6010801
:1040B0003C250020A9C6010898C70108C2C601080E
:1040C000C5C60108E1C60108022E00F0818006F194
:1040D0008045013DB4495AF8250007F0BBFC012892
:1040E000804657D15AF82590484615F094FC0AF1BD
:1040F000040583464FF0000A731E984545DAAB4924
:10410000484615F05BFC48B9286807F029FDA84926
:10411000024607F1980015F001FC19E0BBF1000F11
:104120000CDD09EB0B0313F8013C2F2B06D128689B
:1041300007F016FD4A4603469E4905E0286807F049
:104140000FFD9D4903464A4607F1980015F0E6FB2E
:1041500055F804AB2CB107F198025146974815F079
:1041600025FB504607F1980105F0CCFD824648B189
:10417000934B55F8042C18689249C06807F19803CE
:1041800014F098FF08F10108B6E71AF1000418BF0F
:104190000124A8E1032E15D1DAF80450DAF80860FA
:1041A00024B132462946854815F000FB31462846A1
:1041B00005F0A8FD014600283FF48EAC824805F0CA
:1041C00013F98FE17E4B5AF825201B687F4986E161
:1041D0007B4CDAF8002023687D49D86814F06AFF28
:1041E0002368DAF800207B4979E17B49484615F0DD
:1041F000E5FB20B92946304602F036FA50E177490E
:10420000484615F0DBFB10B92946304646E17449B3
:10421000484615F0D3FB58B9012E04D1714815F06A
:104220006DFB34465FE149466F4815F0BFFA59E12E
:104230006E49484615F0C2FB70BB012E27DDDFF842
:10424000809104464FF0010855F828A007F1980125
:10425000504605F040FE014680B997F8A030DA06D6
:1042600004D4504605F0D7FD60B10AE0D9F800301B
:104270005F49D868524614F01DFF03E0504605F030
:10428000B3F8012408F101084645DDD12BE14C4B80
:1042900058491B684A4622E15749484615F08EFBAB
:1042A000002839D1012E32DDDFF8149100244FF0BF
:1042B000010855F804BF07F19801584605F00BFEB8
:1042C000A8B997F8A030DB0609D5584605F0A3FD3C
:1042D0008246B8B10146584605F086F80DE0D9F897
:1042E00000303A49D8685A4614F0E4FE0AE0014624
:1042F000584605F079F84FF0FF0A5146286805F056
:1043000073F8012408F101084645D2D1EBE02C4BAB
:104310003A491B684A46E2E03949484615F04EFBE7
:1043200098B9022E0CD1686811F0F2FC0446002CFA
:104330003FF4D2AB4FF47A70013C08F007F9F6E78E
:104340001F4B30491B684A46C9E02F49484615F0C3
:1043500035FB0446A0B9012E0DD101460EF000FD3B
:1043600001462A4815F022FA10491E4815F030FB84
:10437000274B1C60B7E0124B1B491B684A46AEE056
:1043800007F158044946204615F022FB07F1400189
:10439000204605F0A0FD00283CD1204615F03BFB4F
:1043A0000428804647DC66E004070020B1AD010820
:1043B000BCC70108F0C40108F5C4010804C701081E
:1043C000F80200200EC70108C2C6010810C5010886
:1043D00023C701083AC70108C1C7010858C7010827
:1043E0005DC701080400002099C4010861C70108E5
:1043F0002EC4010864C7010878C70108AFC60108C8
:104400007EC7010884C7010897C701089EC7010835
:1044100000070020AC494A46204615F07FFA07F114
:104420004001204605F057FD0028B6D0A74B2A686A
:104430001B68A74953E00438A649204415F092FAB6
:104440000346D0B9701C82000A3222F00702E84607
:10445000ADEB020D04A9A04A0A60043D9E4205DDB1
:10446000013355F8042F41F82320F7E702F0FCF858
:104470000446C54637E0022814DDA8F1020097493A
:10448000204415F06FFA68B9954BC7F8A000C7F83B
:104490009830C7F89C4007F19801022005F00AFE09
:1044A000044620E020468F4911F02AFF04460028E8
:1044B0003FF412AB2246502107F1980011F0FAFDAB
:1044C00020B107F198000EF09DFEF3E7204611F0B1
:1044D0008FFCFFF701BB7D4BFA6A1B688249D868E5
:1044E00014F0E8FD01247B6A33B1184611F080FC1A
:1044F0007E4B4FF0FF321A60BB6A33B1184611F0A1
:1045000077FC7B4B4FF0FF321A60FB694BB1794B64
:10451000F9691A686D4B1B68521AD868764914F00D
:10452000C9FD204600F0BCBC684B74481B68D968C4
:1045300014F044FED6E76368002B00F05C83704EF5
:1045400011F01EFA6F4A3368002515606E4A033B6E
:1045500029462846136009F003FDAB46A946A84644
:10456000E268934520DAA2685A4506D1674BA562F6
:10457000D3F80080664BD3F800905946204605F0EA
:104580000EF80A28824609D109F070FC326801351C
:10459000033A954208D80D2011F0F8FA504611F070
:1045A000F5FA0BF1010BDBE74946404609F0D8FC70
:1045B0000022A261E268524D5A45C8BF0BF10103C7
:1045C0004FF00001CCBFE361C4F81CB0084609F00D
:1045D000C7FC01233B61DFF834B14FF0FF333B628E
:1045E0001A46A16AB96191420AD1226A7A619A4255
:1045F00006D1636A3A6ADB43DB0F934200F08E8098
:104600002868DFF80C81DBF80090D8F800A00021C2
:10461000023809F0A5FC022011F04CF9202011F01D
:10462000B5FA236A0BB12A2000E0202011F0AEFA7F
:10463000202011F0ABFA206808B111F09DFA3B6917
:10464000344E63B1D8F8002033680A3B9A420DD249
:1046500020203A6211F09AFA3A6A0132F4E7284BC4
:10466000316818680A39023809F07AFC636A002B4D
:10467000ACBF4D20202011F089FA202011F086FADD
:10468000A16A254801310EF00FFC3B698BB900206F
:1046900011F010F95146484609F062FCA36ABB616B
:1046A000236A7B61636ADB43DB0F3B6200233B6170
:1046B00034E0D8F8008033689845E8D2202011F023
:1046C00065FA08F10108F6E7B8C70108F80200200A
:1046D000C8C70108C0C70108C1C70108C5C701088C
:1046E00058C701081A82040807C801085C020020A4
:1046F00058020020601B0020DFC70108EFC7010837
:1047000064020020701B0020741B0020880200201F
:10471000840200206802002037C6010809F046FB29
:104720001828064600F0898034D8072800F0C68093
:104730000DD8032871D005D8002865D0012800F0D5
:104740006181FAE1042800F07381052849E00B2813
:1047500000F0728111D8082800F0E281092840F0A9
:10476000EC81C14BD3F800904FF0040809F1040329
:1047700093FBF8F84FEA8808D6E1152800F07C8111
:10478000162840F0DA814FF00008DFF8E092DFF8F9
:10479000E4A284E0852800F0358113D8812800F058
:1047A0002D8108D81B282DD0802840F0C6812046B6
:1047B00005F028F8D1E1822800F0C680832800F0B7
:1047C000FC80BAE1882800F08F8106D8862800F0A6
:1047D0002F81872800F0C181AFE1892800F0928104
:1047E0008A2840F0AA81D4F80880204641460EF07D
:1047F0003BFB9D4BA0601968C8EB00000144DBF84F
:1048000000006EE10123A9E1636A002BB4BFA36835
:104810004FF0FF3363620346A0E1636A002BC0F2EE
:104820009C81A1688B4202DA0A46194601E02FDD1D
:104830001A46204604F0BCFE2DE0636A002BC0F24D
:104840008C81A1688B4211DA0A462046194604F091
:10485000AFFEA368626AC2EB0308B8F1000F1AD07A
:10486000204605F041F808F1FF38F6E710DD1A465A
:10487000204604F09DFE636AA268C2EB0308B8F10B
:10488000000F08D0204608F1FF3805F0A9F8F6E738
:10489000764B00221A604FF0FF3363625DE1D9F876
:1048A0000030984580F25981DAF80030204613F83C
:1048B000081005F023F908F10108F0E728686A4BB1
:1048C000DBF80090D3F800A00021013809F048FB84
:1048D00007F1E80809F0CAFA654811F04DF900231C
:1048E00008F8503D0821404609F078FB51464846FB
:1048F00009F036FB97F89830002B00F02E814046E7
:1049000011F006FA002840F32881A36A00F1FF386D
:1049100098450BDAD4F82890C84580F21E812046CD
:1049200004F0EAFEA36A4B45F4D116E140F3158189
:10493000D4F82890C84540F31081204604F062FF67
:10494000A36A4B45F4D108E1D4F80890B9F1000FFF
:1049500040F3038109F1FF31434BA1602046D3F8B6
:1049600000A0DBF8008004F01AFE0A2822D1A9F189
:10497000020120460EF088FAE36800F1010908F10F
:10498000FF384FF0000A994507DB5146404609F0D1
:10499000E7FAA36A013BA362DFE049462046FB60D9
:1049A00004F0FDFD0A28FB68EFD009F101090AF1C6
:1049B000010AE8E70AF1FF3192E0A168E368994251
:1049C00080F2CB80284BDBF80080D3F800902046A3
:1049D00004F0E5FD0A2808D1002108F1010009F0E2
:1049E000BFFAA36A0133A36204E009F10101404662
:1049F00009F0B6FAA3680133A360AEE0204604F0E4
:104A00007BFEAAE0A168002940F3A7800139204677
:104A10000EF03AFA144B1B68002B00F10108DBF88A
:104A2000000002DD002109F09BFAC4F8088094E040
:104A3000204604F0D5FF90E0D4F80890204649467F
:104A40000EF012FA4946C9EB0008204604F026FF92
:104A5000636943446361E368C8EB0303E3600123D4
:104A6000236209F003FA78E084020020E4080020C1
:104A70003BC60108DC080020D4F808A0BAF1000FFA
:104A80006BDD0AF1FF3120460EF0FEF900F101095D
:104A90004946C4F808902046DBF8008004F0FEFE8A
:104AA0006369C9EB0A0A53446361E368CAEB030311
:104AB000E360012323620021404609F051FAE368D4
:104AC00099450ADA4946204604F069FD0A2804D0CF
:104AD00011F05CF809F10109F1E709F0C7F90021CB
:104AE000404609F03DFA38E02B6803EB43034FEAF8
:104AF0009308B8F1000F30D0204604F083FE08F18F
:104B0000FF38F6E72B6803EB43034FEA9308B8F14D
:104B1000000F22D0204604F0EFFD08F1FF38F6E741
:104B2000204604F0E1FE18E0C84516DD20212046AD
:104B300004F0E4FF09F10109F6E7A6F120035E2B7A
:104B400007D9A6F1A0035F2B03D90D2E01D00A2EA1
:104B500003D13146204604F0D1FF002326F0080699
:104B6000803E012E82BFC14A4FF0FF31116013B960
:104B70007B69BA6935E5236ADBB3BD4D286800213E
:104B8000013809F0EDF907F1E80609F06FF9B948C5
:104B900010F0F2FF002306F8503D97F89830792B7B
:104BA00033D06E2B25D00221304609F017FAF4E7F6
:104BB0003146204604F0F3FC0A28804603D12946FA
:104BC0000D2014F0ADFA2946404614F0A9FA01363A
:104BD000E3689E42ECDBB8F10A0F07D029460D20AE
:104BE00014F09EFA29460A2014F09AFA284611F089
:104BF000FFF809F0CBF9A04B186808B111F03AFDA5
:104C0000204604F0BFFCFEF767BF2868002101388A
:104C100009F0A6F909F02AF9984810F0ADFFF96AF1
:104C200007F1980014F0D4FE402107F1980009F034
:104C3000D5F9934907F1980011F062FB0546002869
:104C4000D7D04FF00A080026C2E78E4B8E491B686A
:104C50004A4644E44FF0020BFFF7CAB94FF0070B86
:104C6000FFF7C6B94146B86D07F046F983460028FC
:104C70007FF4C5A9D7F8589009F1340B09F13F0228
:104C80005B464FF0200103F8011B9A42F9D14FF027
:104C90002E0389F834304FF0100389F83F3009F1C2
:104CA0004A00F96A06F0D4FF59464246B86D05F04D
:104CB00006F809F154035946184620223B6205F0D4
:104CC00018F84FF02E0389F855303B6AD7F8A0202A
:104CD000B86D194604F0F3FFBB6D4FF0010983F87E
:104CE000039007F1980007F0DAFB834600287FF471
:104CF00086A9D7F8B4B0F96A0BF1160006F0A8FF40
:104D000059464246B86D04F0DAFF4FF010038BF8B5
:104D10000B30BB6D83F80390B86D07F018F983462C
:104D2000FFF772B94FF0080BFFF771B94FF0060BA0
:104D3000FFF76DB9D8F8000029468268FEF725BC58
:104D4000104607F0B7F88346FFF752B94F4BFB63A5
:104D500000221A7007F1380107F13C0002F0AEFDA5
:104D6000044600287DD1BB6BBB655B693B66402573
:104D70004FF02F09D7F86080B8F1000F5DD02021E7
:104D8000304606F016FF002854D1396FB86B07F093
:104D900021FA824600284BD1BB6B796F187804F05A
:104DA0009AFF51463866304606F003FF002841D18D
:104DB00030460DF03BFF824600286BD1BB6B796F0C
:104DC000187804F088FF40450AD1386F87F849A069
:104DD000A8B1304607F1400104F040FF504607E01B
:104DE0005146304607F002FB82460028E0D051E0F1
:104DF00007F1400303445B7A0BB10130F8E7C31CB1
:104E0000AB4219D8C0EB050E2B46C5EB000C9E45F6
:104E1000F96B08D0013B03EB0C0207F14008424458
:104E2000527ACA54F3E7C043054401F80590A1E75C
:104E3000044602E0044600E01124FB6B64B9402DF7
:104E400003D12F221A70013306E0FA6B525D03F88A
:104E5000012B01353F2DF8D900221A70002C3FF4A8
:104E600042AB21460A48FFF7AAB900BF540200200E
:104E70006402002047C60108DC08002019C80108A8
:104E800061BE0108F802002028C8010804000020C3
:104E900054C40108BAF1040F14BF54460224CCE7ED
:104EA000EC37BD46BDE8F08F82B00023019300933C
:104EB0000B0F00900193019B21F07F4113B1009BE8
:104EC000143302E0009B090C18330093009B1B680D
:104ED000194214BF0120002002B07047134B9842C2
:104EE00009D103F5F2331A6A42F400121A621A6AFF
:104EF00022F4001218E00E4B984209D103F5F0336A
:104F00001A6A42F480021A621A6A22F480020BE0E2
:104F1000084B984209D103F5EE331A6A42F40002B5
:104F20001A621A6A22F400021A62704700540040A2
:104F300000580040005C00404FF6FF730360002300
:104F4000037143718371C3717047F0B5002301276A
:104F500003260A6807FA03FC3CEA020233D15A002E
:104F6000056806FA02F4E4432540056091F804E080
:104F700005680EFA02FE4EEA050505600D79013D51
:104F8000012D14D885682C40846091F805E085686F
:104F90000EFA02FE4EEA05058560446824EA0C0418
:104FA00044608C7945689C40A4B22C434460C4683A
:104FB00006FA02F524EA0504C460CD79C46805FA4E
:104FC00002F22243C2600133102BC2D1F0BD0000B7
:104FD0000268134B10B513400C68CA6814434A6941
:104FE00014438A691443CA6914430A6A14434A6A17
:104FF00014438A6A14434A6B14438A6B2243134353
:1050000003604369CC6A23F007020B6B234313430D
:1050100043610B6943604B6883608B68C36010BD5C
:105020003F801CF010B5114B4478DA68D243C2F3CC
:105030000222C2F10403DBB204FA03F3D9B20F2354
:105040001341827813400B43027809491B010A443B
:10505000DBB282F8003303780122580903F01F0302
:1050600002FA03F341F8203010BD00BF00ED00E06C
:1050700000E100E02DE9F04FADF29C4D00260593D4
:105080000B6806965E700B6809969E700B68054665
:105090000C46DE70B346B1464FF0FF37002A01F0F0
:1050A00030811078002801F02A814FF00008CDF8F7
:1050B00000800EAB294622A80BF002F9002805DA81
:1050C000A94B186841F2BA2301F0A1B801F0178189
:1050D000012840F0C4802FB9A34B186841F2C623C1
:1050E00001F095B84FF00C0A23680AFB0BFA22A8CE
:1050F00003F80A80236803EB0A0710F009FE7860C2
:105100000BF10107002E45D0236853445A781AB991
:105110005A6852425A6089E06368023B5B4502DC90
:1051200020460FF0D1FC22680AF10C0302EB0A01C1
:105130001A4449685160226812F80A10D154226852
:1051400002EB0A011A44497851702268D11852447E
:10515000927801328A70226802EB0A011344C978FE
:10516000D9702368002203F80A20236853440121E0
:105170005A602368534459700E9B1878236853442F
:1051800008B9997000E09A70236853442D22DA70B0
:10519000BB464BE0069B002B48D0236853445A780B
:1051A00022B95A680696D2435A603FE06368023BD0
:1051B0005B4502DC20460FF087FC22680AF10C03F5
:1051C00002EB0A011A4449685160226812F80A1079
:1051D000D154226802EB0A011A44497851702268BE
:1051E000D1185244927801328A70226802EB0A0187
:1051F0001344C978D9702368002203F80A20236871
:10520000534401215A602368534459700E9B187807
:105210002368534408B9997000E09A7023689A444F
:105220007E238AF803300023BB4606936368013B64
:105230005B4502DC20460FF047FC22680BF1010BB6
:105240000C2303FB0BF31A440026567022681A4401
:105250003746967022681344DE7001F04DB802287C
:105260002BD12FB9404B186841F2293300F0CFBF42
:105270000C27236807FB0BF70122DA55236822A8C5
:1052800003EB07080BF0A4FCC8F804006368013BBB
:105290005B4502DC20460FF017FC226807F10C0387
:1052A0001A440027577022681A440BF1010B9770BB
:1052B00022681344DF7001F01FB8032840F05287C2
:1052C000059BE7B9032B07D1284922A814F076FBE8
:1052D000002800F03C8709E0059B042B06D12449F7
:1052E00022A814F06BFB002800F035871E4B2149E3
:1052F000186841F2533300932A4622AB11E1012B87
:1053000044D11D4922A814F059FBB8B11B4922A869
:1053100014F054FBA8B11A4922A814F04FFB98B11D
:10532000184922A814F04AFB88B10F4B1649186897
:105330002A4622ABC06813F0BDFE04E24FF0000A1B
:1053400007E04FF0010A04E04FF0020A01E04FF0DD
:10535000030A002300930E9A0FAB294622A80AF0F5
:10536000AFFF0F9B0E9313E0F80200203AC801082C
:105370003DC8010842C801086AC801080DC10108FA
:1053800076AB0108CEDF01086FC801084FF0010AB3
:10539000002700970FAB0E9A294619A80AF090FF34
:1053A000052840F00F840F9B089393F80080B8F114
:1053B000000F0BD1AD4BAE491B682A46D86813F0DD
:1053C00079FE4FF00109444600F0CABE059B012B4F
:1053D00040F0D081A74BD3F80080A74B1B68049303
:1053E0009946474517DA09F10400202222A9CDF891
:1053F0001C9014F018FB09F18C09079B08B10137C8
:10540000EFE7002F07DB994A1B6810689B49009360
:105410002A4622AB85E00E9B0793994B1B680A93A3
:10542000984B1B68984524D1934FB8F1000F08D1D1
:105430008C210A2013F036FE3860B0B94FF0FF38E7
:105440003DE08C2008F10A0800FB08F8414604986A
:1054500014F05CFA38600028F0D0A8F5AF684FF47B
:10546000AF620021404411F06EF9864A13680A3396
:105470001360804BD3F800807F4B4FF08C091B6882
:10548000049309FB08F903EB090722A92022381D20
:1054900014F0DEFA0A9BBB62049BC7F82CA07A4981
:1054A00043F8095022A814F089FA08B9012300E052
:1054B0000023704AC7F8883008F101031360734F66
:1054C0007349C7F8008022AA63A814F027FA294676
:1054D00063A80CF0A1FC6F4B1A68342303FB002077
:1054E0003B688362079801300AF0E1FE0378292BBC
:1054F00080460AD101300AF0DAFE0278034622B172
:105500002F2A07D142782F2A04D14FF0000ACDF874
:1055100010A024E0554A6049106841F2C902009287
:105520002A46C06813F0C6FD0DE1002B40F0F18063
:10553000079B2C2B1FD1089A002313702946009338
:10554000424610AB11A80AF0BBFEC0B94F4B1A6817
:10555000494B1B688C2101FB0233C3F830A0089B28
:105560001B780793002B00F0DE80079B282B049B01
:10557000DBD10133D2E0292B40F0C680DBE70328E2
:1055800004D03A4B186841F2EE0369E04349DDF874
:10559000409011A814F012FA074630BB009010ABEF
:1055A0004A46294611A80AF08BFE032804D02F4B47
:1055B000186841F2FB0353E0344BDFF8BC901868E5
:1055C0000A93D9F800304FF08C082A4611A908FB3D
:1055D00000300CF0C0F80A9BD3F800E0D9F8003096
:1055E00001463A4608FB0E3077E02D4911A814F029
:1055F000E5F910BB009010AB4A46294611A80AF005
:105600005FFE032804D0194B186841F2091327E004
:10561000DFF86480DFF87490D8F80030D9F8000023
:105620008C272A4607FB003011A90CF020F8D9F886
:1056300000E0D8F8003001224CE01A4911A814F01B
:10564000BDF9002856D1009010AB4A46294611A852
:105650000AF036FE032829D0044B186841F21713CC
:105660002A461149C06813F025FD4AE0F8020020DF
:105670009AC801082C09002070090020C3C801083D
:105680009C090020EC080020FDC801081809002032
:10569000DAB801089409002021A701080DC101080A
:1056A00076AB0108CEDF010886A60108DFF8188373
:1056B000DFF81093D8F80030D9F800008C272A467C
:1056C00007FB003011A90BF05DFFD9F800E0D8F816
:1056D00000300222014607FB0E300CF047FD08980F
:1056E0009DF81C3000F8013B0AF0E1FD0AF1010AC7
:1056F000804609E0B04BB1491B682A46D86813F0D0
:10570000D9FC4FF0010912E0089B1B78292B06D128
:105710000BE0079B292B02D1049B013B0493089BC0
:10572000013308931BE7994601E04FF00009089BFD
:105730001B7863B9049B53B19F4BA1491B682A4650
:10574000D86813F0B7FC4FF0010900F007BD9D4B7E
:10575000CDF838801A689C4B1B688C2101FB023302
:10576000B9F1010FC3F830A000F0F8844FF0000940
:1057700000F0EBBC0E9B0B9304970DF18808049B83
:10578000924A1B01404699589F1814F017F90028B7
:1057900000F09080049B0133802B0493EFD18A4A60
:1057A0008B4BD2F800901B684F4600220492049A5B
:1057B0009A4211DA391D4046079314F0FFF8BA46B1
:1057C000079B8C3728B9DAF888300133CAF888305B
:1057D00059E0049A0132E9E755D17E4BDFF808829F
:1057E0001F68D8F800309F4226D1DFF8EC9157B9F6
:1057F0003421142013F056FCC9F80000B8B94FF05A
:10580000FF33049333E03420143747433946D9F843
:10581000000014F07BF8C9F800000028EFD0A7F5CD
:1058200082674FF482620021384410F08CFFD8F870
:1058300000301433C8F80030DFF89881D8F8003011
:10584000049334275F43644BD3F800A00AEB0709A5
:10585000202222A909F1100014F0FAF800234AF8D6
:105860000750C9F80430049B0133C8F800305B4B83
:10587000049A1A600C23226803FB0BF31021D15405
:105880004FF0000928E0049A8C2303FB0299D9F811
:105890002C303BB9524B1A60524B0F221A604FF01A
:1058A000090901E04FF000090C23226803FB0BF308
:1058B0000F2110E0FB68002B40F09E85484B049AB6
:1058C0001A60484B0E221A604FF009090C23226817
:1058D00003FB0BF30E21D154002E37D06368023B3B
:1058E0009B4502DB20460FF0EFF80BF1010B0C2279
:1058F00002FB0BF22168A2F10C03C85C88542168FA
:10590000C81811444078487021688818194489786B
:10591000013181702168C8180A44C078D0702268AB
:105920000021D15422681A440120516022681A448F
:1059300050700B9A167822681A440EB9907000E0E5
:105940009170226813442D22DA7056E0069B002BDA
:1059500053D06368023B9B4502DB20460FF0B4F84E
:105960000BF1010B0C2202FB0BF22168A2F10C03DC
:10597000C85C88542168C818114440784870216870
:10598000881819448978013181702168C8180A443F
:10599000C078D07022680021D15422681A440120B6
:1059A000516022681A4450700B9A167822681A4483
:1059B000E6B990701BE000BFF802002002C90108A0
:1059C00029C901081809002070090020749E0108E7
:1059D0002C09002054090020640900200000002048
:1059E0002403002028030020000900209170226871
:1059F00013447E22DA70002306930C2303FB0BF37F
:105A00000A930A9A23681344049A5A6004212020B6
:105A100013F048FB079008980B9F0AF048FC0137E9
:105A2000064638460AF043FC002306F1FF380C9086
:105A30000D931E4608F10102089298F80120002AF1
:105A400000F0DD84282A01D10133B8E0222A05D1F3
:105A50000D9981F001010D911BB1B0E0002B40F0D8
:105A6000AA800D9B002B40F09F802C2A02D0292A6F
:105A700040F09A800FF03FF8089B0C9A0B90C2EB15
:105A8000030ABAF1000F73DD0AF1010010F0EAFD1C
:105A9000524607460C9913F0DBFF4FF0000307F85E
:105AA0000A30AD4BAC4AD3F800A00B994FF0FF334E
:105AB0001360002300933A462846FFF7DBFA0128DB
:105AC0000DD1384610F0D6FD0B980EF0E1FF002EF8
:105AD00000F09884013E079B53F82600F5E79E4BA3
