:020000040800F2
:1000000000000220AD510108F3510108F55101082B
:10001000F7510108F9510108FB51010800000000E7
:10002000000000000000000000000000FD51010879
:10003000FF5101080000000001520108918A0008E8
:1000400007520108095201080B5201086DE8000827
:100050000F520108115201081352010815520108EC
:1000600017520108195201081B5201081D520108BC
:100070001F5201082152010823520108712D010865
:1000800027520108295201082B5201082D5201085C
:100090002F5201083152010833520108355201082C
:1000A00037520108395201083B5201083D520108FC
:1000B00035E7000841520108435201084552010842
:1000C00047520108495201084B5201084D5201089C
:1000D0004F52010871100108A10F0108D10E01084B
:1000E00057520108595201085B5201085D5201083C
:1000F0005F5201086152010863520108655201080C
:1001000067520108A1EA00086B5201086D5201080C
:10011000010E0108310D01087352010875520108E2
:100120000D0B0108795201087B52010881EA000891
:100130007F5201088152010883520108855201084B
:1001400087520108895201088B5201088D5201081B
:100150008F5201089152010893520108610C010865
:1001600097520108995201089B5201089D520108BB
:100170009F520108A1520108A3520108A55201088B
:10018000A7520108A952010810B5054C237833B9CC
:10019000044B13B10448AFF300800123237010BD5A
:1001A0000803002000000000A4DE0108084B10B581
:1001B0001BB108490848AFF300800848036803B939
:1001C00010BD074B002BFBD0BDE81040184700BF07
:1001D000000000000C030020A4DE0108040300203E
:1001E00000000000154B002B08BF134B9D46A3F5E4
:1001F000803A00218B460F461348144A121A15F014
:1002000072FD0F4B002B00D098470E4B002B00D0F7
:1002100098470020002104000D000D48002802D05E
:100220000C48AFF3008015F069FC200029000DF0A8
:1002300011F915F049F800BF000008000000022085
:10024000000000000000000008030020502F0020E4
:1002500000000000000000002DE9F04FADF2CC7D61
:1002600004460F91A44915F01DFB0B90002802F0E5
:10027000518114F0F0FBA14D099024211420286035
:1002800018F0E0F9DFF8C4A29D4B0C954FF0000880
:1002900018604446D3460B9A4FF480712CA815F091
:1002A000DBF9002802F02C810C9ADAF8003016688D
:1002B000B34204F101041ADB06DD924B92481B683D
:1002C000D96818F04BFA36E014368D4F2425754363
:1002D0002946386818F0EAFDA5F5347538604FF402
:1002E00034720021284415F0FEFC0C9B1E600D2189
:1002F0002CA818F025FE08B1002303700A212CA8B1
:1003000018F01EFE08B100230370002314AD009303
:100310002CAA12AB214628460EF0C8FC0028BAD001
:1003200003280CD0774B186841F6F9237749224609
:10033000C06818F08FF94FF0FF3802F0E1B8744947
:10034000129F284618F00AFE18BB724A13689BB128
:10035000714B6C481A6800688C2353436F4A1168CC
:10036000CA18CB580193131D009322462B466C49A3
:10037000C06818F06FF9DEE7012313600DF2BC428C
:10038000009209993A46204604F074FE012882D171
:10039000D1E76449284618F0E1FD002840F01181BA
:1003A0005C4F3B682BB9574B186841F61A3301F084
:1003B0002AB8DBF80030594A574D002B11D02DDDFB
:1003C000296810688C2606FB0101896A8B4208D0D7
:1003D0004B490868242101FB030151F8201C0E2918
:1003E0001CD0296810688C2606FB0101C96A79B9FE
:1003F0004348242106685943701874500E21013374
:1004000041604FF0FF318360C160CBF8003005E000
:100410003C4B45491B68224602F08EBD2968136893
:10042000DFF8E0908C2505FB013500262B6C9E4201
:1004300013DAAA6C342303FB0623DA6A5AB91A6B5F
:10044000D9F80000002AC8BF38495A6AD8BF3849CD
:10045000C06818F0FFF80136E8E7DFF8A89000263A
:100460006B6E9E4213DAEA6E382303FB06231A6B87
:100470005AB95A6BD9F80000002AC8BF2D495A6AE8
:10048000D8BF2D49C06818F0E5F80136E8E7DFF875
:1004900074900026EB6C9E4213DA6A6D342303FBE2
:1004A0000623DA6A5AB91A6BD9F80000002AC8BFC5
:1004B00022495A6AD8BF2249C06818F0CBF80136E1
:1004C000E8E7DFF8409000262B6F9E4240DAAA6FE3
:1004D000382303FB06231A6B5AB95A6BD9F800006C
:1004E000002AC8BF17495A6AD8BF1749C06818F010
:1004F000B1F80136E8E700BF0BDB0108240E00204D
:10050000740E0020F40200201494010826940108BF
:10051000B8940108700E0020800E0020FC0D002011
:1005200049940108B5940108EE9401082395010847
:100530005F95010893950108D59501080F9601086C
:100540004C96010881960108C4960108640E0020AB
:10055000DFF8DC920026AB6D9E4213DA2A6E34235C
:1005600003FB0623DA6A5AB91A6BD9F80000002A8D
:10057000C8BFAA495A6AD8BFA949C06818F06AF822
:100580000136E8E7DFF8A8920026EB6F9E4214DA06
:10059000D5F88420382303FB06231A6B5AB95A6B0B
:1005A000D9F80000002AC8BF9E495A6AD8BF9E49A0
:1005B000C06818F04FF80136E7E700233B6000F011
:1005C000D3BD9A49284618F0C9FC002840F0CA80DB
:1005D000009012AB3A46214628460EF067FB0328EE
:1005E00004D0934B186841F642339FE69149129E1E
:1005F000284618F0B3FC00284AD1009012AB3246CE
:10060000214628460EF052FB032804D0884B186878
:1006100041F64D338AE6884B1B685BB3874E884FA3
:1006200033683A688C20294600FB023013F02CFD19
:10063000002800F34E82284613F0B2FD031E09DDA8
:100640007B4A80491068019300952B462246C0687A
:1006500018F000F83B6832688C2101FB0322043259
:1006600079492B460DF2BC4018F028FC21460DF2CA
:10067000BC4007E0284613F093FD002800F32982D0
:100680002146284611F036F903464FF0FF3055E079
:100690006E49284618F062FC002849D1009012AB40
:1006A0003246214628460EF001FB032804D0604B59
:1006B000186841F6783339E65F4B1B685BB35F4ED1
:1006C0005F4F33683A688C20294600FB023013F0F4
:1006D000DBFC002800F3FD81284613F061FD031EBA
:1006E00009DD534A57491068019300952B4622466D
:1006F000C06817F0AFFF3B6832688C2101FB032212
:10070000043251492B460DF2BC4018F0D7FB21466C
:100710000DF2BC4007E0284613F042FD002800F32C
:10072000D8812146284610F093FE4FF0FF3305E0B4
:100730003F4B186841F69E3300F065BE4FF0FF3521
:1007400006900593049503950295019500952B4617
:1007500012AA1299204613F075FD002880F2048534
:1007600001F0CBBE3A49284618F0F8FB002840F0CB
:1007700027821390009012AB3A46214628460EF08D
:1007800095FA032804D02A4B186841F6BA33CDE510
:100790002849129F284618F0E1FB0646002840F041
:1007A000AD80009012AB3A46214628460EF07EFA04
:1007B000032804D01E4B186841F6C533B6E5129FD6
:1007C000009612AB3A46214624A80EF06FFA0E2886
:1007D00040D100230093129A12AB214624A80EF0B8
:1007E00065FA012804D124A814F064FD139009E0EF
:1007F000032840F0598113A924A813F017FC0028FE
:1008000000F0528100230093129A12AB214624A8D3
:100810000EF04CFA0F281ED046E100BFFF960108EB
:100820003E97010875970108BA970108F7970108E4
:10083000F4020020ADAE0108700E0020FC0D002077
:10084000800E002037980108889801081BD3010802
:100850008E9801081297A34B1B68002B31D0A24E33
:10086000A24F33683A688C20294600FB023013F00F
:100870000BFC002800F32D81284613F091FC031E89
:1008800009DD9B4A9B491068019300952B4622463F
:10089000C06817F0DFFE3B6832688C2101FB032241
:1008A000043295492B460DF2BC4018F007FB139912
:1008B00019B122460DF2BC4015E021460DF2BC40B4
:1008C00019E08B4E8D4933682246D86817F0C2FE76
:1008D000284613F065FC002801DD3668FBE013991B
:1008E00039B12246284611F051F84FF0FF32114637
:1008F00055E12146284611F097F8F6E78049284649
:1009000018F02CFB002840F09080009012AB3A4683
:10091000214628460EF0CAF9032804D0744B186803
:1009200041F6224302E5129E0027009712AB3246A1
:10093000214624A80EF0BAF90E2822D1009712AB56
:10094000129A214624A80EF0B1F9012804D124A856
:1009500014F0B0FC139009E0032840F0A58013A91F
:1009600024A813F063FB002800F09E80002300936E
:10097000129A12AB214624A80EF098F90F2801D044
:1009800092E01296574B1B68002B37D0564E574FAC
:1009900033683A688C20294600FB023013F074FB60
:1009A000002800F39680284613F0FAFB031E09DDA9
:1009B0004F4A50491068019300952B462246C06863
:1009C00017F048FE3B6832688C2101FB0322043299
:1009D00049492B460DF2BC4018F070FA139919B131
:1009E00022460DF2BC401AE021460DF2BC4010F048
:1009F00035FF4FF0FF3201461046D0E03C4D3F49F5
:100A00002B682246D86817F025FE14A813F0C8FBFF
:100A1000002800F3B280139921B1224614A810F0E7
:100A2000CFFEE6E7214614A8E1E73649284618F04C
:100A300095FA002840F0AD800026009612AB3A46A9
:100A4000214628460EF032F9032804D0284B1868B6
:100A500041F67F436AE4129F009612AB3A46214664
:100A600024A80EF023F90E2822D1009612AB129A78
:100A7000214624A80EF01AF9012804D124A814F064
:100A800019FC139006E003280ED113A924A813F033
:100A9000CDFA48B100230093129A12AB214624A844
:100AA0000EF004F90F2804D0114B186824ABB0E203
:100AB00012970C4B1B68002B53D00B4E0B4F336817
:100AC0003A688C20294600FB023013F0DDFA00283A
:100AD0001CDD074B1E6800902B4622460A49F06831
:100AE00000F096BC700E0020FC0D0020800E00204F
:100AF000F40200203798010888980108DD98010861
:100B0000169901081BD30108FD970108284613F028
:100B100047FB031E09DDAE4AAE49106801930095FC
:100B20002B462246C06817F095FD3B6832688C2141
:100B300001FB03220432A8492B460DF2BC4018F0F9
:100B4000BDF9139919B122460DF2BC401BE02146B4
:100B50000DF2BC4010F016FD4FF0FF310246084682
:100B60001DE09B4D9D492B682246D86817F072FD09
:100B700014A813F015FB002801DD2D6807E3139975
:100B800021B1224614A810F0AFFCE5E7214614A8D5
:100B9000E0E78F4B186841F6D94300F034BC139B53
:100BA000129F002B41F096844FF0FF330492039183
:100BB0000693059302900193009312AA394605E328
:100BC0008749284618F0CAF90646002840F0E78011
:100BD0002490009012AB3A46214628460EF066F863
:100BE000032805D07A4B186841F6F243FFF79EBB05
:100BF000129F009612AB3A4621460DF2BC400EF011
:100C000055F80E2826D1009612AB129A21460DF205
:100C1000BC400EF04BF8012805D10DF2BC4014F099
:100C200049FB24900AE0032840F0EF8124A90DF24B
:100C3000BC4013F0FBF9002800F0E781002300938B
:100C4000129A12AB21460DF2BC400EF02FF80F287D
:100C500001D0DAE11297634B1B68002B00F0828011
:100C6000614EDFF88C913368D9F800208C2029463A
:100C700000FB023013F008FA00283FF72AAF28469D
:100C800013F08EFA002809DD514B52491F6801907C
:100C900000952B462246F86817F0DCFC249F002FB5
:100CA00047D03368D9F800208C2606FB0236716ED7
:100CB000B36E99421FD141B93821052017F0C2FC0B
:100CC000F066A8B94FF0FF333EE005314FF0380928
:100CD00009FB01F1F06E18F0E9F8F0660028F1D098
:100CE000B36E4FF48C72002109FB030014F0FBFF7C
:100CF000B36E0533B366F36E706E4FF03809202281
:100D000009FB0030294618F073F9736EF26E09FB87
:100D100003235C62736EF26E09FB0323DF62736E62
:100D2000F26E09FB032300221A63736E5A1C72666B
:100D30000AE03368D9F8000029468C2505FB00300D
:100D4000224610F011FB0346249A002A40F00C8240
:100D50004FF0FF32069205920492039202920192A2
:100D6000009231E214A813F01BFA002800F30D8260
:100D7000249921B1224614A810F008FE03E0214670
:100D800014A810F051FE249B002B40F0ED814FF091
:100D9000FF330693059304930393029012E21349E1
:100DA000284618F0DBF80646002840F0F980249029
:100DB000009012AB3A46214628460DF077FF0328F3
:100DC00018D0034B186841F66953FFF7AFBA00BF5C
:100DD000F40200203798010888980108DD9801087E
:100DE000ADAE0108700E0020FC0D00201699010820
:100DF000800E0020129F009612AB3A4621460DF25B
:100E0000BC400DF053FF0E2827D100230093129A07
:100E100012AB21460DF2BC400DF048FF012805D170
:100E20000DF2BC4014F046FA24900AE0032840F08A
:100E3000EC8024A90DF2BC4013F0F8F8002800F073
:100E4000E48000230093129A12AB21460DF2BC40BD
:100E50000DF02CFF0F2801D0D7E01297B54B1B687F
:100E6000002B00F08180B44EDFF8E0923368D9F8AF
:100E700000208C20294600FB023013F005F90028E1
:100E80003FF727AE284613F08BF9002809DDAB4B5E
:100E9000AB491F68019000952B462246F86817F071
:100EA000D9FB249F002F47D03368D9F800208C2627
:100EB00006FB0236316F736F99421FD141B9382159
:100EC000052017F0BFFBB067A8B94FF0FF303DE039
:100ED00005314FF0380909FB01F1B06F17F0E6FF5B
:100EE000B0670028F1D0736F4FF48C72002109FBBA
:100EF000030014F0F8FE736F05337367B36F306F40
:100F00004FF03809202209FB0030294618F070F80C
:100F1000336FB26F09FB03235C62336FB26F09FB5F
:100F20000323DF62336FB26F09FB032300221A63CE
:100F3000306F431C336709E0D9F800003368294655
:100F40008C25224605FB003010F09AF9249B002BDB
:100F500040F00A814FF0FF33069305930493039307
:100F600002938DE809002FE1284613F019F90028B3
:100F70003FF7AFAD249921B12246284610F020FC5E
:100F800003E02146284610F069FC249B002B40F02A
:100F9000EB804FF0FF33069305930493039010E129
:100FA0006849284617F0DAFF002840F0168124909F
:100FB000009012AB3A46214628460DF077FE0328F2
:100FC00005D05E4B18684FF4EF53FFF7AFB9129E90
:100FD0000027009712AB324621460DF2BC400DF0BF
:100FE00065FE0E282CD1009712AB129A21460DF205
:100FF000BC400DF05BFE012805D10DF2BC4014F0A1
:1010000059F9249010E0032807D04C4B18680DF2D2
:10101000BC4322464C49FFF78BB924A90DF2BC40D2
:1010200013F004F80028F0D000230093129A12ABBA
:1010300021460DF2BC400DF039FE0F2801D0E4E747
:1010400012963C4B1B68002B00F09A803A4EDFF85A
:10105000FC903368D9F800208C20294600FB023030
:1010600013F012F800283FF734AD284613F098F833
:10107000002809DD314B32491F68019000952B464D
:101080002246F86817F0E6FA249F002F60D03368F4
:10109000D9F800208C2606FB0236F16FD6F8803096
:1010A000994225D149B93821052017F0CBFAC6F865
:1010B0008400C0B94FF0FF3054E005314FF03809DB
:1010C00009FB01F1D6F8840017F0F0FEC6F88400A1
:1010D0000028EFD0D6F880304FF48C72002109FB45
:1010E000030014F000FED6F880300533C6F88030D7
:1010F000D6F88430F06F4FF03809202209FB003019
:10110000294617F075FFF36FD6F8842009FB0323F7
:101110005C62F36FD6F8842009FB0323DF62F36F70
:10112000D6F8842009FB032300221A63F06F431CC6
:10113000F36717E0700E0020FC0D0020F402002081
:10114000379801081BD3010895980108800E0020EC
:10115000D9F80000336829468C25224605FB00306B
:1011600010F019F8249B13B1129F01F0B3B94FF09E
:10117000FF3306930593049303930293019022E0B7
:1011800014A813F00DF8002807DDB14B1D6800907E
:1011900014AB2246AF49E8683AE1249921B12246CE
:1011A00014A810F0A1F903E0214614A810F0EAF900
:1011B000249B002BD8D14FF0FF3306930593049066
:1011C0000393029301930093129912AA204613F0FD
:1011D00039F80028C8DAFFF7AEB89F49284617F05B
:1011E000BDFE00285CD19D4B1B6823B9984B186845
:1011F00041F6586307E1DFF88092DBF80030D9F858
:101200000000242505FB03F1421844500133002659
:10121000566093603B78002B01F07C8013AB009309
:101220003A4602230999204603F024FF0128074685
:101230003FF481A8022800F08883099B6CA81968F4
:1012400012F04CFD6CA812F001FD031E0A93C1F2CE
:101250001F8100963346139A0999204603F00AFF2E
:1012600001283FF468A8099B0DF2BC40196812F0F0
:1012700035FD0DF2BC4012F0E9FC0028C1F20881F6
:10128000DAF80030D9F8002005FB03250A9AEA6055
:101290004FF0FF322F616861AA612496259389E39C
:1012A0006F49284617F05AFE002840F09F806B4B8C
:1012B0001B6823B9664B186841F6AF63A3E0DFF8FB
:1012C000B891684E0125294624A813F029F9002871
:1012D00041F029862498D8B9D9F80020259B2421EB
:1012E00001FB032399690029BCBFDBF800209A6148
:1012F0005D4BDBF800201B6825929D4201F31386AD
:101300005B1B002146F8331006EBC3035A6002E072
:10131000012840F0B58001350028D4D1B8F1000F84
:1013200041F0EE80DFF85091DBF80030D9F8000092
:10133000242505FB03F1421844500133C2F8048010
:1013400093603B78002B00F0E58713AB00933A469F
:1013500002230999204603F08DFE012806463EF43B
:10136000EAAF022800F0F182099B6CA8196812F01C
:10137000B5FC6CA812F06AFC071EC1F28980CDF89A
:1013800000804346139A0999204603F073FE012812
:101390003EF4D1AF099B0DF2BC40196812F09EFCDF
:1013A0000DF2BC4012F052FC0028C1F27180DAF854
:1013B0000030D9F8002005FB032501222E614FF0F3
:1013C000FF366861EF60AE61334424A82492259310
:1013D00013F0D2F8002801F076801D4B23491B68DA
:1013E0002246D86817F036F901F089B82049284616
:1013F00017F0B4FD002861D1184B1B6863B9144B7A
:10140000186841F62E731B49009322462B46C0688C
:1014100017F020F9FEF78FBF174E01254FF0240972
:1014200029460DF2BC4013F07BF8002841F07B8583
:10143000DDF8BC0410BBDDF8C034326809FB0323BF
:101440009969002922DADBF800209A611EE000BFCA
:10145000F4020020FD970108239A0108700E002075
:10146000BE9901083003002024030020949901084C
:101470001B9A0108C1940108740E0020012805D0B0
:10148000AA4BAB491B68224601F056BD0135002826
:10149000C6D1B8F1000F41F033800123CDF8BC3440
:1014A000DBF800300DF2BC40013BCDF8C03413F046
:1014B00063F8002801F00E8000F006BC9D49284624
:1014C00017F04CFD002856D19B4B1B6823B9974B56
:1014D000186841F6657396E7984E054601210DF2AE
:1014E000BC4013F01DF848B1904B95491B6822464B
:1014F000D86817F0AFF84FF0FF3827E0DDF8BC34BC
:10150000012B0DD10DF2BC4013F020F8DDF8C034F2
:101510003268242101FB0323DBF800209A6011E0EC
:1015200083B90DF2BC4013F011F8DDF8C024336824
:10153000242101FB023301259A69002ABCBFDBF894
:1015400000209A61DDF8BC34002BC7D12DB9774B50
:101550007C491B68224601F0EFBCDBF8003077497C
:1015600024225A43086881188450012213444A6097
:101570008B6000F00DBC7449284617F0EFFC06465E
:10158000002840F04A816C4B1B6823B9674B1868F0
:1015900041F69A7337E76949DBF80030086824227E
:1015A0005A438118013384508B60042212AB4A6085
:1015B00000961A68214628460DF078FB032805D0CE
:1015C0005A4B186841F6A773FEF7B0BE5F4FDFF8BD
:1015D0008C913B68D9F800208C2101FB023318461E
:1015E00029460A930FF019FF00280A9B08DB9A6C22
:1015F000342303FB00231A6B01321A63334678E06D
:101600002946184610F0CEFA002804DA284610F0D1
:1016100095FB002809DB4E4B1A68342303FB00239B
:101620001A6B01321A63062363E0D9F800003B68A5
:101630003E4E8C22294602FB003010F0F9FA0028B9
:1016400005DB30682B4622464249FEF771BE28462C
:1016500010F0CEFA0028F4DAD9F800003B68DFF881
:10166000EC80DFF8F8A04FF08C09294609FB003028
:1016700010F040F80028E4DA284610F01BF80028A3
:10168000DFDADAF80030D8F8007009FB0377294672
:1016900038460FF04EFE002805DB30682E492B46F9
:1016A0002246FEF745BE2946384610F02FFA00289C
:1016B000F3DA284610F002FB0028EEDADAF8003000
:1016C000D8F8002009FB0329294648460FF0BDFD44
:1016D0000028E2DA294648460FF0C6FF0028DCDA87
:1016E000284610F04DF80028D7DA30682B4600F075
:1016F000E6BD124EDBF800203168242707FB0212FA
:1017000012AD4FF00009D0601361CDF800902B4668
:101710002A68214614A80DF0C9FA072820D0034BE7
:10172000186841F6DD73FEF701BE00BFF402002029
:10173000F0990108209A0108700E0020740E002014
:10174000C5990108269A0108E79A0108FC0D0020B6
:101750006C0E0020529A0108849A0108800E002025
:10176000009503232A680999204603F083FC012889
:101770003EF4E1AD099B6CA8196812F0AFFA6CA8B1
:1017800012F064FA0028C0F283863268DAF800307A
:10179000099907FB03235861009504232A68204612
:1017A00003F068FC01283EF4C6AD099B6CA81968DB
:1017B00012F094FA6CA812F049FA0028C0F2688678
:1017C0003268DAF8003007FB03232A689861117841
:1017D000D1B100954B460999204603F04BFC0128F6
:1017E0003EF4A9AD099B6CA8196812F077FA6CA8B1
:1017F00012F02CFA0028C0F24B86DAF8003032687A
:1018000007FB0327F86102E04FF0FF32DA6104239F
:10181000CDF8BC34DBF800304DE2AF49284617F074
:101820009DFB002864D1AD4B1B6823B9AC4B1868F5
:1018300042F23F03E7E524A812F088FE002841F0B9
:101840007283249B042B05D0A54BA6491B68224616
:1018500001F072BBA44EDBF800103368242505FBB1
:1018600001F01A181C5005205060481C9060259803
:1018700005FB0033B1461962D0600DF2BC4011F097
:1018800069F898B9DDF8C024259B9A420ED10DF273
:10189000BC4012F02FFEDDF8BC34D9F8002005FB67
:1018A0000323DBF8002001329A60E6E78F4A3168B3
:1018B0000A911368DBF80010DDF894908C4E0D91BE
:1018C0004FF0240C0021002B40F35D82581E06EBE4
:1018D000C00E56F83050DEF804E0F14540F0538277
:1018E0000A9B0CFB05350D9BAB6001210346EAE723
:1018F0008049284617F032FB00285DD1774B1B68E2
:1019000023B9774B18684FF402537CE5764EDBF829
:101910000020306824235343C118C45001320223ED
:101920004B608A603A78002A00F0F4840DF14C098B
:10193000CDF800903A460999204603F09BFB012818
:1019400005463EF4F8AC022805D1654B6A491B6890
:10195000224601F0F1BA099B6CA8196812F0BEF991
:101960006CA812F073F9071EC0F292850023009351
:10197000D9F800200999204603F07CFB01283EF4A9
:10198000DAAC099B0DF2BC40196812F0A7F90DF210
:10199000BC4012F05BF90028C0F27A85DBF8002029
:1019A0003168242303FB0213DF601D6158610223A9
:1019B0002493259224A882E15049284617F0CEFAB4
:1019C000002843D1454B1B6823B9454B186842F2A8
:1019D000D10318E524A812F0B9FD002841F0A38234
:1019E000249B022B05D03E4B45491B68224601F043
:1019F000A3BA3D4EDBF800103368242505FB01F047
:101A00001A181C5003205060481C9060259805FB54
:101A100000339961D0600DF2BC4010F09BFF0028AC
:101A200040F0B381DDF8C024259B9A4240F0AD819F
:101A30000DF2BC4012F05EFDDDF8BC34326805FBEF
:101A40000323DBF8002001329A60E4E72D492846A1
:101A500017F084FA002831D1204B1B6823B9204BA2
:101A600018684FF40453CEE41F4ADBF800501168A5
:101A700024236B43CA18CC50062353606B1C93601D
:101A80003B7873B102222049384617F09CFA40B1E6
:101A9000134B186842F20B1300933B4622461B4936
:101AA000B5E406230DF2BC40CDF8BC34CDF8C054EB
:101AB00012F062FD002800F0688105E11449284613
:101AC00017F04CFA002861D1044B1B6813BB044B80
:101AD000186842F2231396E4E49A0108700E00207D
:101AE000F4020020EB9A0108740E0020B0040020DC
:101AF000300400201B9B01083D990108189B010838
:101B0000219B0108849B0108509B0108539B0108FD
:101B1000819B010824A812F019FD002841F00382DE
:101B2000249B062B05D0AC4BAC491B68224601F028
:101B300003BAAB4EDBF800103368242505FB01F037
:101B40001A181C5007205060481C9060259805FB0F
:101B50000033D960D0600DF2BC4010F0FBFE0028CD
:101B600040F01381DDF8C024259B9A4240F00D819E
:101B70000DF2BC4012F0BEFCDDF8BC34326805FB4F
:101B80000323DBF8002001329A60E4E795492846F8
:101B900017F0E4F900284ED1934B1B6823B98E4B04
:101BA000186842F250132EE48D4EDBF80030316895
:101BB000242505FB03F288188C500E2242608B4AC4
:101BC00011688B4A12684FF08C0E0EFB0122013314
:101BD0008360D16A3A7851B92AB17F4B85491B6835
:101BE000224601F0A9B94FF0FF32C260B7E12AB92D
:101BF000794B81491B68224601F09EB9002300936E
:101C00003A460999204603F035FA01283EF493AB91
:101C1000099B6CA8196812F061F86CA812F016F80C
:101C20000028C0F23584DAF80030326805FB03255D
:101C3000E86000F04ABC7149284617F08FF9034666
:101C4000002847D1684A12682AB9634B186842F2E3
:101C50008E13FFF7D8BBDFF88891DBF80020D9F8A6
:101C60000000242505FB02F6811984510132082663
:101C70004E608A603A78002A00F04C8300933A461E
:101C80000999204603F0F6F901283EF454AB099B6C
:101C90006CA8196812F022F86CA811F0D7FF002880
:101CA000C0F2F683DAF80030D9F8002005FB0325EE
:101CB000E860CDF8BC64CDF8C0340DF2BC4012F041
:101CC0005BFC002800F0FF83434B4D491B68224614
:101CD00001F032B94B49284617F040F900286BD182
:101CE000414B1B682BB93C4B186842F2C613FFF7F7
:101CF0008ABB24A812F02AFC002841F01481249BFE
:101D0000082B05D0344B40491B68224601F014B91A
:101D1000334EDBF800103368242505FB01F01A1858
:101D20001C5009205060481C9060259805FB00332A
:101D3000B1461961D0600DF2BC4010F00BFE98B9AD
:101D4000DDF8C024259B9A420ED10DF2BC4012F062
:101D5000D1FBDDF8BC34D9F8002005FB0323DAF809
:101D6000002001329A60E6E7284A31680A91DDF8DE
:101D70009490DBF800101368254E0D914FF0240C61
:101D80000021002B07DC01B11360DBF800300133C8
:101D9000CBF800309EE3581E06EBC00E56F83050CC
:101DA000DEF804E0F145EED10A9B0CFB05350D9BF6
:101DB000AB6001210346E4E71649284617F0CEF848
:101DC000002861D1084B1B6833BB034B186842F2F3
:101DD0000523FFF718BB00BFF4020020899B010810
:101DE000740E0020B79B0108700E0020800E0020AA
:101DF000FC0D0020BE9B0108019C01084C9C0108C1
:101E000094990108499C0108539C0108B0040020E2
:101E100030040020839C0108B949DBF800300868D1
:101E200024225A438118845001330A224A608B606D
:101E300001254FF4AA7629460DF2BC4012F070FB42
:101E4000002841F07E80DDF8BC34082B1AD826FA31
:101E500003F3DB0716D5AB48DAF800100368DDF8AA
:101E6000C0540F2B01F36480A74A42F8331002EBF1
:101E7000C302013355600360B8F1000F40F04083A6
:101E80004B1C6CE00135D6E7A049284617F066F8F0
:101E9000002867D19E4B1B682BB99E4B186842F2F5
:101EA0003E23FFF7B0BADBF80020954D24235343BF
:101EB0002A68D118D4500B234B60012631460DF20D
:101EC000BC4012F02DFB00283ED1DDF8BC34022BC3
:101ED00008D12A68DAF80030242101FB0323DDF859
:101EE000C0240CE0062B0CD12968DDF8C024DAF8F8
:101EF0000030242000FB021200FB031392689A605A
:101F00002AE0042B01D0082B24D18348DAF80020E2
:101F10000368DDF8C0640F2B0FDC804941F83320E3
:101F200001EBC301013303602B684E60242101FBE8
:101F300002324FF0FF3393600EE0764B78491B6816
:101F40002246D86816F086FB724B76491B682246FB
:101F500000F0F2BF0136B1E7DAF800300133CAF819
:101F60000030B7E22B78002B00F0B482684B1B687E
:101F70002BB9684B186842F27F23FFF744BA3B78CD
:101F80005B2B3BD1013701233A783E46013742B102
:101F90005D2A02D1013BF7D10CE05B2A08BF013377
:101FA000F2E75C4B60491B682246D86816F052FB8A
:101FB0004FF0FF384FF0000986F8009012F04BFD0B
:101FC000CDF80090014607464B46129A204603F092
:101FD00051F801283EF4AFA939680DF2BC4011F068
:101FE0007DFE384612F004FD0DF2BC4011F02EFECD
:101FF0000A90701C0CF051FE129002E04FF0FF337B
:102000000A93129B1B783D2B40F07E81474E484F30
:1020100029461CA816F0ACFF3A6833688C2101FBF6
:10202000023528461CA90FF0F8F9B0F1000908DBC9
:10203000AA6C342303FB092300251A6B01321A63AF
:1020400055E11CA928460FF0CDF9B0F100090CDBD1
:10205000EA6E382303FB09F31A44516B01315163D3
:10206000EA6E13440125DB6A2DE11CA928460FF016
:1020700060F9B0F1000908DB6A6D342303FB092322
:1020800002251A6B01321A6331E11CA928460FF0B0
:1020900035F9B0F100090CDBAA6F382303FB09F313
:1020A0001A44516B01315163AA6F13440325DB6A53
:1020B00009E11CA928460FF0C8F8B0F1000908DBB7
:1020C0002A6E342303FB092304251A6B01321A6399
:1020D0000DE11CA928460FF09CF8B0F1000929DB9E
:1020E000D5F88420382303FB09F31A44516B0131DE
:1020F0005163D5F8842013440525DB6AE3E000BF73
:10210000740E0020E42A0020F82A0020B59C010863
:10211000700E0020F4020020B004002030040020E3
:10212000EDA90108BE9C010816AA0108FC0D0020BB
:10213000800E00201CA928460FF034FDB0F10009E4
:102140005DDA386833688C221CA902FB00300FF07E
:1021500003FDB0F1000962DA386833688C221CA9EB
:1021600002FB00300FF0D2FCB0F1000968DAA54E96
:10217000A54F336838688C251CA905FB00300FF08B
:102180009FFCB0F100096BDA386833681CA905FBC5
:1021900000300FF069FAB0F1000972DA386833687C
:1021A0001CA905FB00300FF039FAB0F1000978DA0C
:1021B000386833681CA905FB00300FF039FD002892
:1021C00004DB924B18681CABFFF73DBA1CA80FF05C
:1021D0000FFD0028F5DA386833681CA905FB0030CC
:1021E0000FF088FA0028ECDA1CA80FF063FA002838
:1021F000E7DA1CA80FF0A2FDB0F1000909DB844B5F
:102200001A68342303FB092306251A6B01321A636B
:102210006DE01CA80FF072FDB0F100090ADB7D4BE8
:102220001A68382303FB092307255A6B01325A63C6
:10223000DB6A48E01CA80FF041FDB0F1000909DBA2
:10224000754B1A68342303FB092308251A6B0132E6
:102250001A634CE01CA80FF011FDB0F100090ADB75
:102260006E4B1A68382303FB092309255A6B013288
:102270005A63DB6A27E01CA80FF082FAB0F100096C
:1022800009DB674B1A68342303FB09230A251A6B01
:1022900001321A632BE01CA80FF052FAB0F10009CA
:1022A0000ADB604B1A68382303FB09230B255A6BA2
:1022B00001325A63DB6A06E0544B18681CAB2246B5
:1022C0005949FEF735B80A9A002A07DB93B94F4BF4
:1022D00056491868224614ABFEF72AB8002B09DDD0
:1022E0004A4B53491868224614ABFEF721B80A9BA3
:1022F000002BECDA00230093129A12AB214614A8AB
:102300000CF0D4FC129A03E000254FF0FF392CAA00
:1023100013782BB93D4B47491B68224600F00CBE91
:10232000454F099900234FF0FF363E602046009349
:1023300002F0A0FE012800F0E280B1450CD03B681D
:10234000002B06DB3D4A1268342101FB03230122E6
:10235000DA60092800F0FE85099B6CAE19683046EA
:1023600011F0BCFC364ADAF80070116824237B4374
:10237000CA180137CC503046976000210B58152BF6
:1023800000F00F86123B022B01F10C01F6D8B9F1D7
:10239000FF3F00F08380002D54D16C9B042B1ED195
:1023A0006D9B99457AD16F9B012B09D1729B3BB9EB
:1023B000739B2B2B04D1759B152B01D1709B5FE078
:1023C0006F9B012B6AD1729B002B67D1739B2D2BC6
:1023D00064D1759B152B61D1709B5B4250E0012B42
:1023E0005CD16F9B042B59D1709B994556D1729B40
:1023F000002B53D1739B2B2B50D1759B152B4DD19B
:102400006D9B3DE0FC0D0020800E0020F4020020BA
:102410006C0E0020940E0020A40E0020A00E0020C0
:10242000900E0020040E0020B99A0108ED9C0108CE
:10243000259D01081B99010800000020EC0D0020DB
:10244000740E0020062D07D16C9B062BA8D0012B03
:1024500024D16F9B062BC6E7022D07D16C9B082B5E
:102460009ED0012B1AD16F9B082BBCE7082D15D1EC
:102470006C9B0B2B94D0012B10D16F9B0B2BB2E7D5
:1024800063B10C215160C2F80C90156153611AE0E0
:10249000A64BA7491B68224600F04EBD0D23536092
:1024A0000A9B9760C2F80C90156153616CA811F0FB
:1024B000CDFB0028ECDB9F4BDBF800201B682421C0
:1024C00001FB02339861DAF800300133CAF80030BA
:1024D000FDF7E1BE002300933A4612AB214614A853
:1024E0000CF0E4FB00283DF4D6AE904B186842F2A5
:1024F000DE33009314ABFFF7D1BAA84600E0B04634
:10250000099812F075FA0B9812F044FFB8F1000F19
:1025100005D083E3854B88491B68224606E0874B3C
:102520001B683BB1814B86491B682246D86816F070
:1025300091F871E3834B1B68002B05DC4446824F06
:10254000DFF85892794E5CE001210DF2BC4011F0A9
:10255000E7FFDDF8BC14774B744A082938D8DFE868
:1025600001F0050F1937373723372D00DDF8C00488
:102570001968242343431068CB587449224630E03D
:10258000DDF8C0041968242343431068CB58704910
:10259000224626E0DDF8C00419682423434310686E
:1025A000CB586C4922461CE0DDF8C004196824238E
:1025B00043431068CB586849224612E0DDF8C00456
:1025C0001968242343431068CB586449224608E025
:1025D000DDF8C0041968242343431068CB586049D0
:1025E0002246C06816F036F816E3D9F800304FF0EE
:1025F000340A0AFB043ADAF82CB0BBF1000F04D01D
:1026000001343B689C42F0DB25E02E21504616F059
:1026100097FC054688B180F800B05249504616F044
:102620009DFC38B13068DAF824204F49C0686B1C33
:1026300016F010F82E232B70E2E7DAF8303030680D
:10264000DAF82420C068002BCCBF484946495346DD
:1026500016F000F8D4E7464E464F344D0024336858
:102660009C4224DA3B684FF0340909FB0439D9F85D
:102670002C30D3B92E21484616F062FCD9F8303000
:1026800040B1002BD9F82420CCBF3B493B49431C27
:10269000286807E0002B2868D9F82420CCBF3849E7
:1026A00038494B46C06815F0D5FF0134D7E7364F9F
:1026B000DFF8EC901D4D00243B689C4272DAD9F89B
:1026C00000304FF0340A0AFB043ADAF82CB0BBF1C0
:1026D000000F29D12E21504616F032FC0646B0B12B
:1026E00080F800B01F49504616F038FC60B1DAF8A7
:1026F00030302868DAF82420C068002BCCBF23498A
:102700002349731C15F0A6FF2E2333700CE0DAF872
:1027100030302868DAF82420C068002BCCBF1D496F
:102720001D49534615F096FF0134C5E7F402002019
:1027300068990108740E00201A9E0108700E00208E
:102740002B9E0108240300207C0E0020619E0108BE
:102750009E9E0108D29E0108099F01083E9F010824
:10276000779F0108B8940108B59F0108E99F010807
:10277000100E0020F40D002025A0010865A001081E
:102780009DA00108DCA00108280E002013A101086B
:1027900050A1010885A10108C2A101089C0E0020DA
:1027A0006C0E0020AD4FDFF83C93AD4E00243B682B
:1027B0009C4231DAD9F800304FF0380A0AFB043A6B
:1027C000DAF830B0BBF1000F24D12E21504616F0BC
:1027D000B7FB054688B180F800B0A249504616F014
:1027E000BDFB38B13068DAF824209F49C0686B1C03
:1027F00015F030FF2E232B700CE0DAF834303068FF
:10280000DAF82420C068002BCCBF98499849534679
:1028100015F020FF0134CAE7964FDFF8CC92904EB6
:1028200000243B689C4231DAD9F800304FF0340A7A
:102830000AFB043ADAF82CB0BBF1000F24D12E21A8
:10284000504616F07DFB054688B180F800B08549FA
:10285000504616F083FB38B13068DAF824208649F8
:10286000C0686B1C15F0F6FE2E232B700CE0DAF816
:1028700030303068DAF82420C068002BCCBF7F49A4
:102880007F49534615F0E6FE0134CAE77D4FDFF875
:102890005C92734E00243B689C4231DAD9F80030D8
:1028A0004FF0380A0AFB043ADAF830B0BBF1000FF7
:1028B00024D12E21504616F043FB054688B180F8FE
:1028C00000B06849504616F049FB38B13068DAF874
:1028D00024206D49C0686B1C15F0BCFE2E232B70A4
:1028E0000CE0DAF834303068DAF82420C068002BC5
:1028F000CCBF66496649534615F0ACFE0134CAE7C1
:10290000644E654F564D002433689C4224DA3B6880
:102910004FF0340909FB0439D9F82C30D3B92E21F2
:10292000484616F00DFBD9F8303040B1002BD9F8ED
:102930002420CCBF59495A49431C286807E0002B82
:102940002868D9F82420CCBF564957494B46C0685F
:1029500015F080FE0134D7E7544E554F404D00240A
:1029600033689C4224DA3B684FF0380909FB04398C
:10297000D9F83030D3B92E21484616F0E1FAD9F80B
:10298000343040B1002BD9F82420CCBF49494A4902
:10299000431C286807E0002B2868D9F82420CCBF06
:1029A000464947494B46C06815F054FE0134D7E705
:1029B00000263746434B1B689F4280F2E080424B23
:1029C0001B6853F8274000230434099354F8043C4F
:1029D000152B00F0D280142B40F0CA803B4A2368AC
:1029E000126852F823200B921568394A12689542F2
:1029F0000ADB1B4A374910688DE8280041F21E7235
:102A0000099BC06815F026FE34236B430A93324BB2
:102A10000A9A1B680D9303EB020A0AF110030C9348
:102A20002E4B2F4A1B68D2F800B000258C229D4205
:102A300080F29E8011930BF1040102FB05F30C98C8
:102A400010920E9316F08AFAD9460BF18C0B0028DF
:102A50004ED00135119B109AE9E700BF5C0E0020B3
:102A6000F4020020B8940108F7A1010832A201087D
:102A700075A20108540E0020B0A20108E6A20108C8
:102A800024A30108580E00205AA3010896A30108A8
:102A9000DAA30108880E0020900E002025A001086E
:102AA00065A0010816A4010852A40108480E0020E0
:102AB000040E00208AA40108D0A401080EA5010874
:102AC00050A50108180E00202C0E00201C0E00201E
:102AD0008C0E00208EA50108EC0D0020980E002021
:102AE000FC0D0020940E0020A40E0020A00E00205B
:102AF000002D3DDBDAF804300133CAF80430D9F890
:102B000088300133C9F88830D9F82C308BB9DAF81D
:102B10000C3073B1974B0A9918680D9AD9F80030A8
:102B2000009352580C9B9449C06815F093FD4FF0E8
:102B3000FF36924B0E9A1B681344914A186B11682A
:102B40000A9A11448A6890420DD08A4C24680290F7
:102B500001921A6800920A68E0688A49043315F005
:102B600079FDFF2609E00B9B1D60132344F8043C0C
:102B7000099B013309930C3428E701371AE7824D8A
:102B80007F4FDFF8F09100242B689C4210DA34224A
:102B9000396862438B18586840B9D9F800008A58E0
:102BA000C0687A49103315F055FDFF260134EBE774
:102BB000002E31DB714D764E00242F4633689C4247
:102BC0002CDA4FF08C092A6809FB04F94A44D2F840
:102BD0008830FBB904326F490DF2BC4016F06EF933
:102BE0000DF2BC400FF0AAF8031E06DB6A4A126819
:102BF000342000FB0320C36A63B93A685D4902EBE5
:102C00000903086852F80920009204336349C06838
:102C100015F020FD0134D1E74FF0FF380F9B002B5A
:102C200000F0B6825E4A5F4E10683368002211469B
:102C30002424994207DA04FB010501316D680C2D4B
:102C400008BF0132F5E74B4C57492068C06815F0C2
:102C500001FD564B20681B68554924255D430095AE
:102C60003268C06815F0F6FC494B1A68434B0020E7
:102C70001B6806464FF0340E4FF0380C964203F1B5
:102C80008C031ADA53F8301C53F8487C0F4453F87D
:102C90003C1C394453F8587C4FEAC7090EFB019994
:102CA00053F80C7C53F8241C0F4453F8181C394477
:102CB0000CFB019108440136E0E73E4B27681B6896
:102CC0003D498C2606FB03060096F86815F0C2FC09
:102CD0003A4B2D4A1B683A493420354400FB03F631
:102CE000206800961268C06815F0B4FC354B1A686D
:102CF000354B1F68354BD3F800E0002335444FF0C7
:102D00000C0C1E46934217DA57F82310086900B1DD
:102D10000436D1F80490002048450ADA5EF8231002
:102D2000096851F8201049680CFB0166083601302B
:102D3000F2E71C360133E5E7254B20681B6825497F
:102D400006EBC3060096C06815F084FC224BD3F84E
:102D50000090224B2E44D3F800A000252F464F456B
:102D60003EDA5AF8270018B116F025F9013005446B
:102D70000137F4E7F4020020859D0108FC0D0020D6
:102D8000EC0D0020E5A501088C0E002052A60108DC
:102D9000980E00207AA601086C0E002086A6010875
:102DA000740E0020640E0020C3A60108240E00202B
:102DB000E5A601084C0E002013A70108000E002014
:102DC00041A70108600E00201C0E00203C0E0020D0
:102DD000380E00206FA70108340E0020140E0020CA
:102DE000984B20681B68984905EB830500954A4677
:102DF000C06815F02FFC954B20681B68944A9549D4
:102E000034272E4407FB03F500951268C06815F0BF
:102E100021FC914B20681B68904A91492E4407FB86
:102E200003F500951268C06815F014FC8D4B2068FE
:102E30001B688D494FF0380909FB03F200928B4A59
:102E4000C068126815F006FC894B20681B68894A27
:102E500089492E4407FB03F500951268C06815F0F8
:102E6000F9FB864B20681B68854A86492E4409FB7E
:102E700003F500951268C06815F0ECFB824B2068E2
:102E80001B68824A8249354407FB03F600961268A4
:102E9000C06815F0DFFB7F4B20681B687E4A7F49C6
:102EA0002E4407FB03F500951268C06815F0D2FBAD
:102EB0007B4B20681B687B4A7B49354409FB03F642
:102EC00000961268C06815F0C5FB784BD3F800A0D7
:102ED000774BD3F80090774B1B6835444FEA8A074D
:102EE00000264FF00C0B4E4509DA53F826000993E3
:102EF00010F0FDFD01360BFB0077099BF3E720681E
:102F000000974A4653466C49C06815F0A3FB2368F6
:102F10006A48D96815F022FC23686949D868EA191B
:102F200015F098FB34E1674B67491B68224603E0C4
:102F3000644B66491B682246D86815F08BFBFDF789
:102F4000FAB9B8F1000F7FF4DBAA5E4B60491B6849
:102F50002246F1E75F4B5B481B680E2B09D15E4BA5
:102F60005E4A1B6800685E491B01D3582246FDF784
:102F7000DFB90F2B0ED1584B00681A688C235A43C7
:102F8000584B19688B188A580092043322465649C8
:102F9000FEF73DBA0068554A554942F27733FDF7CE
:102FA000C7B9B9F1FF3F09D1464B52491B682246C8
:102FB000D86815F04FFBC846FFF7A2BA00236E1E73
:102FC0000168152927D00A2E07D8DFE806F0080A7D
:102FD0000C0E10121416181A1C00042914E00529EE
:102FE00012E0082910E009290EE00E290CE00F2953
:102FF0000AE0062908E0072906E00B2904E00C296D
:1030000002E0102900E0112903D14168894508BF79
:1030100001330C30D4E7002B3FF4BDA9691E0A2907
:1030200007D8DFE801F06B747D868F999B9D9FA187
:10303000AB00314908682B4909688C2606FB001152
:10304000886C93E00C0E00209DA70108440E002020
:103050007C0E0020CBA70108780E0020280E00204F
:10306000F9A70108840E002027A801085C0E0020A3
:10307000E80D0020540E002055A80108300E002055
:10308000580E002083A80108500E0020100E0020CA
:10309000B1A80108F00D0020880E0020DFA801086B
:1030A000400E0020480E00200DA90108200E00202F
:1030B000180E00202C0E00203BA9010869A9010868
:1030C00099A90108F4020020C5990108C7A90108BF
:1030D000899C01082C0300202803002054B101081A
:1030E000599D0108FC0D0020859D0108C49D010823
:1030F000D39D0108EF9D0108800E00202749086834
:10310000274909688C2606FB0011C86E38E0234960
:103110000868234909688C2606FB0011486D25E0E4
:103120001E4908681E4909688C2606FB0011886F35
:1031300026E01A4908681A4909688C2606FB00111E
:10314000086E13E015490868154909688C2606FBC6
:103150000011D1F8840013E0124906E012490EE094
:10316000124902E012490AE012490868342101FBC1
:103170000900C16ACB1AC362FFF70DB90E4908688E
:10318000382101FB0900016BCB1A0363FFF703B978
:1031900040460DF2CC7DBDE8F08F00BF800E0020D0
:1031A000FC0D00206C0E0020940E0020A40E0020C8
:1031B000A00E0020900E0020040E00201FB5036812
:1031C0000269416902934368019383680093C3686D
:1031D0000448013201F26C7115F0B8FD05B05DF8DC
:1031E00004FB00BF54B9010870B5134B1D681E469F
:1031F00055B1124815F052FE002070BD0A2001356D
:1032000005F038FC0A2D07D001210D480FF05CFBBA
:103210000328044606D1F1E721460A480EF02AFFAA
:10322000012070BD0028F7D12946074815F08EFD12
:1032300001233360E0E700BF0007002071B90108F7
:10324000B404002039BD010889B90108012310B573
:10325000C1F3421401F01F029C4203FA02F201D1B1
:10326000838903E0022C0CBF038A838A9BB213403C
:10327000028892B243B10123090A03FA01F10A421A
:1032800014BF1846002010BD184610BD034B5B6BE1
:10329000034214BF01200020704700BF002C0140F2
:1032A00082B000230193034B03440193019B1868F0
:1032B00002B07047142C014000230928DAB203F150
:1032C000010302D90A38C0B2F7E740EA0210C0B2DF
:1032D0007047000030B50E4BCA245C6253245C6218
:1032E000DC68E40305D50B4CDD68ED0301D5013C3A
:1032F000FAD1074BDC68E4035CBF0A4310434FF08C
:10330000FF0258BFD8635A6254BF0120002030BD6D
:10331000002800400100020082B0002301930E4B00
:10332000CA225A6253225A62DA6822F0A002DA6094
:10333000DA680199013101910199B1F5003F02F07C
:103340002002054901D0002AF2D0C868FF23C0F34B
:1033500040104B6202B070470028004082B000234A
:1033600001930D4BDA68520613D44FF0FF32DA6046
:10337000DA680199013101910199B1F5803F02F0BC
:10338000400201D0002AF3D0034BD868C0F380106C
:1033900000E0012002B070470028004010B51D4A2F
:1033A000936803F00C03042B03D0082B03D01A4BB3
:1033B00018E01A4B16E05168536811F4800F03F0BF
:1033C0003F03516814BF154A134AB2FBF3F3114A85
:1033D0005268C2F30142C1F3881101324B435200DB
:1033E000B3FBF2F30B4A036093680D49C3F3031375
:1033F000CC5C0368E34043609468C4F382240C5DB2
:1034000023FA04F484609268C2F342328A5CD340A7
:10341000C36010BD003802400024F40000127A009E
:10342000440000202DE9F04F0D46BFB004AF064622
:10343000B7492868D7F810419046994615F08EFD97
:1034400020B9B44B013E04351B6800E00023FB614A
:10345000B8F1000F16D098F80020B2B1AE4AAF49CB
:103460004046B9F1000F08BF114612F01BFAB862CE
:1034700020B112F0FBF8AA4B186007E0A94B4246B6
:103480001B681BE0C7F8288000E0BA62ECB1237823
:10349000EBB1A14BA14AD7F814112046002914BF63
:1034A0001146194612F0FEF9786220B112F0DEF8EA
:1034B0009D4B18600CE09B4B1B6822469B49D868CB
:1034C00015F0C8F8012001F0EBBC7C6200E07B62E3
:1034D000D5F800909649484615F040FD002840F088
:1034E000C7800446012EA84619DDD8F804301A78A2
:1034F0002D2A05F104050FD113F8012F52B1652AC9
:103500004FF00104F8D0874BD8F800201B68894998
:1035100000F0B9BD013EE5E74FF0010951E005D0EB
:1035200008F104040125DFF8FC8167E054B97D4B04
:103530001B68986812F09AF813F066F8B0FA80F6F3
:10354000760900E00026DFF8DC814FF0FF3900202B
:103550000DF0F0FD042805461BD056B12946002089
:103560000AF0F6FF0D2D41F0E5830A2100200AF054
:10357000EFFFD8F800002946826810F03FFD0D2DBE
:1035800005D1D8F8000082680A2110F037FDA9465D
:10359000DDE7002C00F0A687B9F10D0F00F0A2873F
:1035A000604C20680D21826810F028FD20680A21F7
:1035B000826810F023FD00F095BF09F101094E4526
:1035C000AEDDAA4607F19801DAF800000EF002FD20
:1035D000012805F10405044606D1524BDAF8002013
:1035E0001B68554900F04FBD0028E6DA4D4BDAF86C
:1035F00000201B68514900F072BF0135AE4240F314
:103600006B82A14654F804BB4D49584612F04AF962
:10361000824600B3DAF80430013B002BCAF80430CC
:103620000DDA5146D8F8000012F026FE431C014680
:103630000CD0D8F80000826810F0E0FCEAE7DAF875
:1036400000305A1CCAF800201978F2E7504611F0F1
:10365000A1FE002304E058460EF0ACFD4FF0FF330E
:1036600013F0FF0FC9D0FF21D9F8000000F0A7BD6B
:103670003449484615F072FC804600286AD1022E73
:1036800062D107F198046968204615F071FC204664
:1036900015F091FC012809DD07F1E8030138184411
:1036A00010F8503C2F2B08BF00F8508C002207F177
:1036B000400107F134007C6306F0F2FD18BB07F10E
:1036C000E8063B6C46F8903D796B30460FF012FEF1
:1036D000A0B997F98330002B04DA3B6C3A6E5A613B
:1036E00001F034BB97F85E30D8060BD53C6C796F8F
:1036F000207809F0A3F9606101F028BB042808BF15
:10370000052000E005200146204600F058BD00BF1E
:1037100006AB01081821002001AC0108ACB9010872
:1037200054020020F4020020580200201A9E0108D2
:10373000B0B90108B4B90108CFB90108E3B901086B
:103740000BDB0108F5B90108C34BC4491B684A46A5
:1037500000F0C5BEC249484615F000FC88B9012EEC
:1037600040F0098607F19800FFF718FED7F8A4305B
:10377000009307F198010EC9BA4815F0E7FA00F076
:1037800050BDB949484615F0E9FB002840F0A38038
:103790008046012EAA4640F3908055F8043F1A78DF
:1037A0002D2A1CD113F8012FBAB1762A02D148F084
:1037B0000108F7E7662A02D148F00208F2E7A64CB2
:1037C000DAF800202368A949D86814F043FF236879
:1037D000DAF80020A64900F082BE013ED9E7022EA9
:1037E0006BD006F18044013CA2495AF824000EF047
:1037F000F1FB012881464DD15AF82440204615F0AE
:10380000DAFB4FF0000A8346731E994580F2BD84AF
:103810009949204615F0A2FB48B928680EF014FC1F
:103820009649024607F1980015F048FB19E0BBF1F4
:10383000000F0CDD04EB0B0313F8013C2F2B06D11A
:1038400028680EF001FC224603468D4905E02868F1
:103850000EF0FAFB8B490346224607F1980015F05B
:103860002DFB424607F1980155F8040B08F08AFA3F
:103870005FFA80FABAF1000F09D0774B55F8042CA3
:1038800018688149C06807F1980314F0E3FE09F154
:103890000109B9E7032E0AD1DAF80810DAF80400B2
:1038A000424608F06FFA5FFA80FA00F06EBC6A4B8D
:1038B0005AF824201B6800F089BC674CDAF8002015
:1038C00023687249D86814F0C5FE2368DAF800202E
:1038D0006F4900F004BE6F49484615F03FFB0446AF
:1038E000002854D1012E10D107F198000AF0D4FF1E
:1038F000012802D107F198003FE0574B66481B684A
:10390000D96814F02BFF00F08CBC032E39D16E68FF
:10391000304615F050FB0A2840F00686AD68284670
:1039200015F049FB082840F0FF85304611F0C2FC35
:10393000A0F26C70C7F8AC00701D11F0BBFC013830
:10394000C7F8A80006F1080011F0B4FCC7F8A400FD
:10395000284611F0AFFCC7F8A000E81C11F0AAFC43
:10396000C7F89C00A81D11F0A5FC07F1E80545F873
:10397000500D28460AF0E6FF2846FFF71FFC00F02E
:10398000B2BD354B45491B684A4600F0A8BD4449C5
:10399000484615F0E3FA0446002840F0AA80012EBC
:1039A00040F0E9843F4BC7F89830024607F15801D0
:1039B00007F1980006F074FC804600287CD1BD6DAC
:1039C000D5F818902C69A9F102039C4278D92B787C
:1039D000012B11D1022600243146284608F097FF1A
:1039E000411C33D0012834D000B90134BB6D9B6930
:1039F00001369E42F0D358E00026D5F824B0344674
:103A000046B95946B86D0BF1010A0FF00EFB0028BC
:103A10004AD1D346B86D10F8343B022B08D1831934
:103A20005A78835D53EA022308BF0134023607E067
:103A3000304404F0B9FD20F0704000B90134043680
:103A4000B9F10109C6F30806DAD12EE04FF00108FA
:103A50002BE04FF0020828E0F4020020F8B901083A
:103A60000DBA010814BA010845BA010848BA01089C
:103A700069BA0108E8060020519B01085DBD0108F4
:103A800091BA010896BA01089CBA0108C6BA0108A1
:103A9000E2BA010805BB01080ABB010820BB010806
:103AA00041BB010844BB01088046BB6D1A791C610B
:103AB00042F001021A7100E02546B8F1000F0ED164
:103AC000A9696A89B3480239514362438B1A5B087A
:103AD0005208490815F03AF9002400F004BD4146A7
:103AE00000200EF0C7FAAC4BAC481B68D96800F058
:103AF0001FBDAB49484615F031FAF0B9DFF898928E
:103B0000012406F1FF38A64210DDD9F8003055F83F
:103B10002400996814F022FE444505DAD9F8000023
:103B20002021826810F06AFA0134ECE79A4B186899
:103B30000A21826810F062FACEE79A49484615F0E9
:103B40000DFA88B9731E012B08D8022E0CBF6868C5
:103B5000954808F0B9F8C0B2041C18E38E4B93499D
:103B60001B684A4600F0BBBC9149484615F0F6F97F
:103B7000002840F0BA80022EAED16B68FB621B7841
:103B8000002BA9D007F19801F86A09F057F878B925
:103B900097F8A030DA0608D57F4BFA6A1B6885498A
:103BA000D86814F057FD00F096BCD7F8986000E094
:103BB00000262C2012F028F80446002800F08B8400
:103BC000FB6A036006F5806012F01EF881466060B3
:103BD000002800F086804FF48063002563614FF079
:103BE000FF33E6602561A56025626362A562002E51
:103BF00000F0A1847049F86A11F054FE8046002854
:103C000036D0DFF894B14FF00A0AD8F80430013BFF
:103C1000002BC8F804300FDA4146DBF8000012F040
:103C20002BFB431C0FD00D281EBF89F80000013567
:103C300009F101098246E8E7D8F800305A1CC8F8B3
:103C400000201878EFE735B1BAF10A0F1EBF0A233A
:103C500089F800300135404611F09CFBE560256194
:103C6000751B05F5806565610025A560A84614E013
:103C7000494BFA6A1B685149D86814F0EBFC20469E
:103C80000EF0C6FA00F027BC4146204608F010FEB0
:103C90000A2807D108F101080025E3689845F3DBFD
:103CA00000F049BC092819D14146204608F009FE18
:103CB000636901336361E3682E1D013B26F003064F
:103CC000E360C5EB080909EB0501AE428846E4DD77
:103CD000202220460EF058FC0135F4E708F10108D7
:103CE000DBE7204611F098FFF5E33549484615F02B
:103CF00035F9B8B9022E40F0A8876C6831492046E2
:103D000015F02CF918B9304B40225A83E4E62F49BC
:103D1000204615F023F9002840F097872A4B4022CF
:103D20001A83D9E62A49484615F018F9002840F0C8
:103D3000178129464FF0010A0546012E8B4650DDBA
:103D400051F8042F13782D2B53D112F8013F002B7B
:103D500045D06C2B02D145F00105F6E7612B02D16D
:103D600045F00205F1E7552B0DD0532B0ED0742BE7
:103D700032D0722B02D145F02005E6E7064B1549FB
:103D80001B684A46ABE34FF0000ADEE74FF0030A38
:103D9000DBE700BF47BB0108F402002086BB010837
:103DA00091BB010896BB0108AEB901089BBB010895
:103DB000B2BB0108B5BB01080BDB0108C8BB010899
:103DC000FABB0108BE94010800000240FEBB0108D6
:103DD00002BC010805BC01084FF0020AB5E7013E2C
:103DE000ABE718D1AA4808F04FF800245FFA80F832
:103DF00013E000244FF001095BF8290008F044F8B3
:103E00005FFA80F8B8F1000F09F1010918BF012429
:103E10004E45F1DC01E00024A046BAF1000F0CD0C1
:103E20009C4B9D49C3F800A09C489D4B09681D60B0
:103E300010229C4B006812F057F8DFF85CA24FF09C
:103E40000009DAF80030DFF850B2944E99456CDA88
:103E5000924B18684FEA09128118AE0791F80CB01E
:103E600002D41BF0060F5DD18358FB62E8074ED5E4
:103E700008894A898C4E430ABB61C0F343137B60B7
:103E800000F01F037B61D30A3B613068C2F3451326
:103E900052001BF0100FFB6002F03E03BB60826813
:103EA0004B683B6214BF64212D2110F0A7F83068E5
:103EB0007221826810F0A2F830681BF0010F14BF65
:103EC0002D217721826810F099F830681BF0020FDD
:103ED00014BF68212D21826810F090F830681BF023
:103EE000040F826814BF73212D2110F087F8BB687E
:103EF0000393FB6802933B6901937B690093BA6962
:103F00007B68396A694802F2BC7214F01FFF664E82
:103F1000F86A3368996814F021FC30680A218268D5
:103F200010F06CF809F101098BE70025DBF800308F
:103F30009D4206DA2A013368985811F06DFE01356A
:103F4000F4E7306808B111F067FE594A0023336086
:103F5000CBF800301360B8F1000F40F0C382C2E22A
:103F60005449484614F0FAFF00285AD1012E40F374
:103F7000CE8104464FF0010A07F1E80055F8043FEE
:103F800040F8A83D022207F1580106F089F983465E
:103F900000283CD107F1E808BB6D48F8503D396C6A
:103FA00040460FF0A7F98346002800F0BB8604289E
:103FB0002DD197F8C33003F0200303F0FF01002B4D
:103FC00040F0B48640460FF0C5F8BA6D53895B02E5
:103FD000C7F8A4308046002800F04086B8F1010FF1
:103FE00000F03886B8F1FF3F40F0AA864FF0010B91
:103FF00004F020FDF862BBF1000F00F0338641466B
:1040000007F198000EF0F1FBBBF1000F04D0594608
:1040100028680EF02FF801240AF1010A5645ABD1A9
:1040200061E22549484614F099FF28B9012E40F075
:10403000A281FFF7D9F833E22049484614F08EFFF9
:10404000002840F0D280044600E0013E012EAA463E
:1040500040F3BE8055F8043F1A782D2A34D113F866
:10406000012F002AF1D0762A4FF00104F7D00E4D2F
:10407000DAF800202B681249D86814F0EBFA2B68A4
:10408000DAF800200F49D86814F0E4FA2BE200BFF8
:104090000CCB0108982A0020DC2A0020AC2A002042
:1040A000A42A00200D1E0108F402002025BC0108EE
:1040B0007C2C00204ABC010839BD010863BC010802
:1040C00066BC010882BC0108022E00F0818006F166
:1040D0008045013DB4495AF825000DF07BFF0128C9
:1040E000804657D15AF82590484614F064FF0AF1EB
:1040F000040583464FF0000A731E984545DAAB4924
:10410000484614F02BFF48B928680DF09DFFA849D8
:10411000024607F1980014F0D1FE19E0BBF1000F40
:104120000CDD09EB0B0313F8013C2F2B06D128689B
:104130000DF08AFF4A4603469E4905E028680DF0C7
:1041400083FF9D4903464A4607F1980014F0B6FEE6
:1041500055F804AB2CB107F198025146974814F07A
:10416000F5FD504607F1980108F07FFC824648B102
:10417000934B55F8042C18689249C06807F19803CE
:1041800014F068FA08F10108B6E71AF1000418BF44
:104190000124A8E1032E15D1DAF80450DAF80860FA
:1041A00024B132462946854814F0D0FD31462846D0
:1041B00008F05BFC014600283FF48EAC82480DF00D
:1041C00059FF8FE17E4B5AF825201B687F4986E115
:1041D0007B4CDAF8002023687D49D86814F03AFA5D
:1041E0002368DAF800207B4979E17B49484614F0DE
:1041F000B5FE20B92946304602F036FA50E177493B
:10420000484614F0ABFE10B92946304646E17449E1
:10421000484614F0A3FE58B9012E04D1714814F099
:104220003DFE34465FE149466F4814F08FFD59E189
:104230006E49484614F092FE70BB012E27DDDFF870
:10424000809104464FF0010855F828A007F1980125
:10425000504608F0F3FC014680B997F8A030DA0622
:1042600004D4504608F08AFC60B10AE0D9F8003066
:104270005F49D868524614F0EDF903E050460DF05E
:10428000F9FE012408F101084645DDD12BE14C4B34
:1042900058491B684A4622E15749484614F05EFED9
:1042A000002839D1012E32DDDFF8149100244FF0BF
:1042B000010855F804BF07F19801584608F0BEFC04
:1042C000A8B997F8A030DB0609D5584608F056FC87
:1042D0008246B8B1014658460DF0CCFE0DE0D9F843
:1042E00000303A49D8685A4614F0B4F90AE0014659
:1042F00058460DF0BFFE4FF0FF0A514628680DF0FA
:10430000B9FE012408F101084645D2D1EBE02C4B5F
:104310003A491B684A46E2E03949484614F01EFE15
:1043200098B9022E0CD1686810F0C4FF0446002C26
:104330003FF4D2AB4FF47A70013C04F09BFBF6E7FC
:104340001F4B30491B684A46C9E02F49484614F0C4
:1043500005FE0446A0B9012E0DD101460EF0B4FAB7
:1043600001462A4814F0F2FC10491E4814F000FEE1
:10437000274B1C60B7E0124B1B491B684A46AEE056
:1043800007F158044946204614F0F2FD07F14001B8
:10439000204608F053FC00283CD1204614F00BFEC8
:1043A0000428804647DC66E004070020519B010892
:1043B0005DBD010891BA010896BA0108A5BC0108C3
:1043C000F4020020AFBC010863BC0108B1BA0108C7
:1043D000C4BC0108DBBC010862BD0108F9BC0108CE
:1043E000FEBC0108040000203ABA010802BD010821
:1043F000CFB9010805BD010819BD010850BC01086D
:104400001FBD010825BD010838BD01083FBD0108D9
:1044100000070020AC494A46204614F04FFD07F142
:104420004001204608F00AFC0028B6D0A74B2A68B5
:104430001B68A74953E00438A649204414F062FDE4
:104440000346D0B9701C82000A3222F00702E84607
:10445000ADEB020D04A9A04A0A60043D9E4205DDB1
:10446000013355F8042F41F82320F7E702F0FCF858
:104470000446C54637E0022814DDA8F1020097493A
:10448000204414F03FFD68B9954BC7F8A000C7F869
:104490009830C7F89C4007F19801022004F044FFCF
:1044A000044620E020468F4911F0FCF9044600281C
:1044B0003FF412AB2246502107F1980011F0CCF8DE
:1044C00020B107F1980004F0EDFAF3E7204610F070
:1044D00061FFFFF701BB7D4BFA6A1B688249D86810
:1044E00014F0B8F801247B6A33B1184610F052FF7B
:1044F0007E4B4FF0FF321A60BB6A33B1184610F0A2
:1045000049FF7B4B4FF0FF321A60FB694BB1794B8F
:10451000F9691A686D4B1B68521AD868764914F00D
:1045200099F8204600F0BCBC684B74481B68D968F9
:1045300014F014F9D6E76368002B00F05C83704E2A
:1045400010F0BCFC6F4A3368002515606E4A033BCF
:1045500029462846136010F09BFCAB46A946A846A6
:10456000E268934520DAA2685A4506D1674BA562F6
:10457000D3F80080664BD3F800905946204608F0E7
:1045800097F90A28824609D109F064FF326801359B
:10459000033A954208D80D2010F0BAFD504610F0AD
:1045A000B7FD0BF1010BDBE74946404610F070FC0C
:1045B0000022A261E268524D5A45C8BF0BF10103C7
:1045C0004FF00001CCBFE361C4F81CB0084610F006
:1045D0005FFC01233B61DFF834B14FF0FF333B62F6
:1045E0001A46A16AB96191420AD1226A7A619A4255
:1045F00006D1636A3A6ADB43DB0F934200F08E8098
:104600002868DFF80C81DBF80090D8F800A00021C2
:10461000023810F03DFC022010F0D4FB202010F0F6
:1046200077FD236A0BB12A2000E0202010F070FDF6
:10463000202010F06DFD206808B110F05FFD3B698F
:10464000344E63B1D8F8002033680A3B9A420DD249
:1046500020203A6210F05CFD3A6A0132F4E7284B00
:10466000316818680A39023810F012FC636A002BAE
:10467000ACBF4D20202010F04BFD202010F048FD55
:10468000A16A254801310EF0C3F93B698BB90020BE
:1046900010F098FB5146484610F0FAFBA36ABB6144
:1046A000236A7B61636ADB43DB0F3B6200233B6170
:1046B00034E0D8F8008033689845E8D2202010F024
:1046C00027FD08F10108F6E759BD0108F4020020B2
:1046D00069BD010861BD010862BD010866BD010830
:1046E000F9BC01080BDB0108A8BD01085802002035
:1046F000540200201821002080BD010890BD01084F
:1047000078020020EC200020C4200020600200205D
:104710005C0200207C020020D8BB010809F0B2FD39
:104720001828064600F0898034D8072800F0C68093
:104730000DD8032871D005D8002865D0012800F0D5
:104740006181FAE1042800F07381052849E00B2813
:1047500000F0728111D8082800F0E281092840F0A9
:10476000EC81C14BD3F800904FF0040809F1040329
:1047700093FBF8F84FEA8808D6E1152800F07C8111
:10478000162840F0DA814FF00008DFF8E092DFF8F9
:10479000E4A284E0852800F0358113D8812800F058
:1047A0002D8108D81B282DD0802840F0C6812046B6
:1047B0000DF052FED1E1822800F0C680832800F07F
:1047C000FC80BAE1882800F08F8106D8862800F0A6
:1047D0002F81872800F0C181AFE1892800F0928104
:1047E0008A2840F0AA81D4F80880204641460EF07D
:1047F000EFF89D4BA0601968C8EB00000144DBF89E
:1048000000006EE10123A9E1636A002BB4BFA36835
:104810004FF0FF3363620346A0E1636A002BC0F2EE
:104820009C81A1688B4202DA0A46194601E02FDD1D
:104830001A4620460DF0FAFC2DE0636A002BC0F208
:104840008C81A1688B4211DA0A46204619460DF088
:10485000EDFCA368626AC2EB0308B8F1000F1AD03E
:1048600020460DF015FD08F1FF38F6E710DD1A4679
:1048700020460DF0DBFC636AA268C2EB0308B8F1C6
:10488000000F08D0204608F1FF380DF07DFDF6E757
:10489000764B00221A604FF0FF3363625DE1D9F876
:1048A0000030984580F25981DAF80030204613F83C
:1048B00008100DF08FFE08F10108F0E728686A4B38
:1048C000DBF80090D3F800A00021013810F0E0FAE6
:1048D00007F1E80809F0BEFD654810F00FFC002361
:1048E00008F8503D0821404609F02CFD5146484645
:1048F00010F0CEFA97F89830002B00F02E81404649
:1049000010F0D8FC002840F32881A36A00F1FF389A
:1049100098450BDAD4F82890C84580F21E812046CD
:104920000DF0E6FDA36A4B45F4D116E140F3158185
:10493000D4F82890C84540F3108120460DF08CFD36
:10494000A36A4B45F4D108E1D4F80890B9F1000FFF
:1049500040F3038109F1FF31434BA1602046D3F8B6
:1049600000A0DBF8008007F0A3FF0A2822D1A9F1FC
:10497000020120460EF03CF8E36800F1010908F15D
:10498000FF384FF0000A994507DB5146404610F0CA
:104990007FFAA36A013BA362DFE049462046FB6041
:1049A00007F086FF0A28FB68EFD009F101090AF138
:1049B000010AE8E70AF1FF3192E0A168E368994251
:1049C00080F2CB80284BDBF80080D3F800902046A3
:1049D00007F06EFF0A2808D1002108F1010010F04D
:1049E00057FAA36A0133A36204E009F101014046CA
:1049F00010F04EFAA3680133A360AEE020460DF03C
:104A000077FDAAE0A168002940F3A780013920467C
:104A10000DF0EEFF144B1B68002B00F10108DBF8D2
:104A2000000002DD002110F033FAC4F8088094E0A1
:104A300020460DF0A9FC90E0D4F8089020464946A5
:104A40000DF0C6FF4946C9EB0008204607F039FFC4
:104A5000636943446361E368C8EB0303E3600123D4
:104A6000236209F0F7FC78E05C0200209C2A002019
:104A7000DCBB0108A82A0020D4F808A0BAF1000F76
:104A80006BDD0AF1FF3120460DF0B2FF00F10109A4
:104A90004946C4F808902046DBF8008007F011FF73
:104AA0006369C9EB0A0A53446361E368CAEB030311
:104AB000E360012323620021404610F0E9F9E36836
:104AC00099450ADA4946204607F0F2FE0A2804D042
:104AD00010F01EFB09F10109F1E709F0BBFC002110
:104AE000404610F0D5F938E02B6803EB43034FEA5A
:104AF0009308B8F1000F30D020460DF0ADFC08F15E
:104B0000FF38F6E72B6803EB43034FEA9308B8F14D
:104B1000000F22D020460DF0EBFC08F1FF38F6E73D
:104B200020460DF0B5FB18E0C84516DD20212046D3
:104B30000DF050FD09F10109F6E7A6F120035E2B07
:104B400007D9A6F1A0035F2B03D90D2E01D00A2EA1
:104B500003D1314620460DF03DFD002326F0080626
:104B6000803E012E82BFC14A4FF0FF31116013B960
:104B70007B69BA6935E5236ADBB3BD4D286800213E
:104B8000013810F085F907F1E80609F063FCB9482F
:104B900010F0B4FA002306F8503D97F89830792BBE
:104BA00033D06E2B25D00221304609F0CBFBF4E741
:104BB0003146204607F07CFE0A28804603D129466C
:104BC0000D2013F07DFD2946404613F079FD013696
:104BD000E3689E42ECDBB8F10A0F07D029460D20AE
:104BE00013F06EFD29460A2013F06AFD284610F0E6
:104BF000D1FB09F03FFCA04B186808B111F00CF88C
:104C000020460DF005FBFEF767BF2868002101383C
:104C100010F03EF909F01EFC984810F06FFAF96A9E
:104C200007F1980014F0A4F9402107F1980009F069
:104C300089FB934907F1980010F034FE05460028DF
:104C4000D7D04FF00A080026C2E78E4B8E491B686A
:104C50004A4644E44FF0020BFFF7CAB94FF0070B86
:104C6000FFF7C6B94146B86D0EF06BF983460028D0
:104C70007FF4C5A9D7F8589009F1340B09F13F0228
:104C80005B464FF0200103F8011B9A42F9D14FF027
:104C90002E0389F834304FF0100389F83F3009F1C2
:104CA0004A00F96A03F078FC59464246B86D07F0AD
:104CB000B9FE09F154035946184620223B6207F019
:104CC000CBFE4FF02E0389F855303B6AD7F8A02071
:104CD000B86D194607F0A6FEBB6D4FF0010983F8C9
:104CE000039007F198000EF001FC834600287FF442
:104CF00086A9D7F8B4B0F96A0BF1160003F04CFCA2
:104D000059464246B86D07F08DFE4FF010038BF800
:104D10000B30BB6D83F80390B86D0EF03DF9834600
:104D2000FFF772B94FF0080BFFF771B94FF0060BA0
:104D3000FFF76DB9D8F8000029468268FEF725BC58
:104D4000104603F05BFD8346FFF752B94F4BFB6300
:104D500000221A7007F1380107F13C0005F0A0FAB3
:104D6000044600287DD1BB6BBB655B693B66402573
:104D70004FF02F09D7F86080B8F1000F5DD02021E7
:104D800030460EF09DF8002854D1396FB86B0EF004
:104D90004CF9824600284BD1BB6B796F187807F02D
:104DA0004DFE5146386630460EF08AF8002841D153
:104DB00030460DF0EFFC824600286BD1BB6B796F5B
:104DC000187807F03BFE40450AD1386F87F849A0B4
:104DD000A8B1304607F1400107F0F3FD504607E067
:104DE000514630460EF02DFA82460028E0D051E0C0
:104DF00007F1400303445B7A0BB10130F8E7C31CB1
:104E0000AB4219D8C0EB050E2B46C5EB000C9E45F6
:104E1000F96B08D0013B03EB0C0207F14008424458
:104E2000527ACA54F3E7C043054401F80590A1E75C
:104E3000044602E0044600E01124FB6B64B9402DF7
:104E400003D12F221A70013306E0FA6B525D03F88A
:104E5000012B01353F2DF8D900221A70002C3FF4A8
:104E600042AB21460A48FFF7AAB900BF80020020E2
:104E700078020020E8BB0108A82A0020BABD01087A
:104E800001AC0108F4020020C9BD010804000020A3
:104E9000F5B90108BAF1040F14BF54460224CCE757
:104EA000EC37BD46BDE8F08F82B00023019300933C
:104EB0000B0F00900193019B21F07F4113B1009BE8
:104EC000143302E0009B090C18330093009B1B680D
:104ED000194214BF0120002002B07047134B9842C2
:104EE00009D103F5F2331A6A42F400121A621A6AFF
:104EF00022F4001218E00E4B984209D103F5F0336A
:104F00001A6A42F480021A621A6A22F480020BE0E2
:104F1000084B984209D103F5EE331A6A42F40002B5
:104F20001A621A6A22F400021A62704700540040A2
:104F300000580040005C00404FF6FF730360002300
:104F4000037143718371C3717047F0B5002301276A
:104F500003260A6807FA03FC3CEA020233D15A002E
:104F6000056806FA02F4E4432540056091F804E080
:104F700005680EFA02FE4EEA050505600D79013D51
:104F8000012D14D885682C40846091F805E085686F
:104F90000EFA02FE4EEA05058560446824EA0C0418
:104FA00044608C7945689C40A4B22C434460C4683A
:104FB00006FA02F524EA0504C460CD79C46805FA4E
:104FC00002F22243C2600133102BC2D1F0BD0000B7
:104FD0000268134B10B513400C68CA6814434A6941
:104FE00014438A691443CA6914430A6A14434A6A17
:104FF00014438A6A14434A6B14438A6B2243134353
:1050000003604369CC6A23F007020B6B234313430D
:1050100043610B6943604B6883608B68C36010BD5C
:105020003F801CF010B5114B4478DA68D243C2F3CC
:105030000222C2F10403DBB204FA03F3D9B20F2354
:105040001341827813400B43027809491B010A443B
:10505000DBB282F8003303780122580903F01F0302
:1050600002FA03F341F8203010BD00BF00ED00E06C
:1050700000E100E02DE9F04FADF29C4D00260593D4
:105080000B6806965E700B6809969E700B68054665
:105090000C46DE70B346B1464FF0FF37002A01F0F0
:1050A00030811078002801F02A814FF00008CDF8F7
:1050B00000800EAB294622A809F0F8FD002805DA89
:1050C000A94B186841F2BA2301F0A1B801F0178189
:1050D000012840F0C4802FB9A34B186841F2C623C1
:1050E00001F095B84FF00C0A23680AFB0BFA22A8CE
:1050F00003F80A80236803EB0A0710F0DBF87860F6
:105100000BF10107002E45D0236853445A781AB991
:105110005A6852425A6089E06368023B5B4502DC90
:1051200020460FF081FC22680AF10C0302EB0A0111
:105130001A4449685160226812F80A10D154226852
:1051400002EB0A011A44497851702268D11852447E
:10515000927801328A70226802EB0A011344C978FE
:10516000D9702368002203F80A20236853440121E0
:105170005A602368534459700E9B1878236853442F
:1051800008B9997000E09A70236853442D22DA70B0
:10519000BB464BE0069B002B48D0236853445A780B
:1051A00022B95A680696D2435A603FE06368023BD0
:1051B0005B4502DC20460FF037FC22680AF10C0345
:1051C00002EB0A011A4449685160226812F80A1079
:1051D000D154226802EB0A011A44497851702268BE
:1051E000D1185244927801328A70226802EB0A0187
:1051F0001344C978D9702368002203F80A20236871
:10520000534401215A602368534459700E9B187807
:105210002368534408B9997000E09A7023689A444F
:105220007E238AF803300023BB4606936368013B64
:105230005B4502DC20460FF0F7FB22680BF1010B07
:105240000C2303FB0BF31A440026567022681A4401
:105250003746967022681344DE7001F04DB802287C
:105260002BD12FB9404B186841F2293300F0CFBF42
:105270000C27236807FB0BF70122DA55236822A8C5
:1052800003EB07080AF09AF9C8F804006368013BC9
:105290005B4502DC20460FF0C7FB226807F10C03D8
:1052A0001A440027577022681A440BF1010B9770BB
:1052B00022681344DF7001F01FB8032840F05287C2
:1052C000059BE7B9032B07D1284922A813F046FE16
:1052D000002800F03C8709E0059B042B06D12449F7
:1052E00022A813F03BFE002800F035871E4B214911
:1052F000186841F2533300932A4622AB11E1012B87
:1053000044D11D4922A813F029FEB8B11B4922A897
:1053100013F024FEA8B11A4922A813F01FFE98B179
:10532000184922A813F01AFE88B10F4B16491868C5
:105330002A4622ABC06813F08DF904E24FF0000A50
:1053400007E04FF0010A04E04FF0020A01E04FF0DD
:10535000030A002300930E9A0FAB294622A809F0F6
:10536000A5FC0F9B0E9313E0F4020020DBBD0108A7
:10537000DEBD0108E3BD01080BBE0108ADAE0108AA
:10538000169901081BD3010810BE01084FF0010A4D
:10539000002700970FAB0E9A294619A809F086FC42
:1053A000052840F00F840F9B089393F80080B8F114
:1053B000000F0BD1AD4BAE491B682A46D86813F0DD
:1053C00049F94FF00109444600F0CABE059B012B84
:1053D00040F0D081A74BD3F80080A74B1B68049303
:1053E0009946474517DA09F10400202222A9CDF891
:1053F0001C9013F0E8FD09F18C09079B08B10137F7
:10540000EFE7002F07DB994A1B6810689B49009360
:105410002A4622AB85E00E9B0793994B1B680A93A3
:10542000984B1B68984524D1934FB8F1000F08D1D1
:105430008C210A2013F006F93860B0B94FF0FF381C
:105440003DE08C2008F10A0800FB08F8414604986A
:1054500013F02CFD38600028F0D0A8F5AF684FF4A9
:10546000AF620021404410F03EFC864A13680A33C4
:105470001360804BD3F800807F4B4FF08C091B6882
:10548000049309FB08F903EB090722A92022381D20
:1054900013F0AEFD0A9BBB62049BC7F82CA07A49AF
:1054A00043F8095022A813F059FD08B9012300E080
:1054B0000023704AC7F8883008F101031360734F66
:1054C0007349C7F8008022AA63A813F0F7FC2946A5
:1054D00063A80CF0A9FA6F4B1A68342303FB002071
:1054E0003B6883620798013009F0D7FB0378292BCA
:1054F00080460AD1013009F0D0FB0278034622B180
:105500002F2A07D142782F2A04D14FF0000ACDF874
:1055100010A024E0554A6049106841F2C902009287
:105520002A46C06813F096F80DE1002B40F0F18098
:10553000079B2C2B1FD1089A002313702946009338
:10554000424610AB11A809F0B1FBC0B94F4B1A6825
:10555000494B1B688C2101FB0233C3F830A0089B28
:105560001B780793002B00F0DE80079B282B049B01
:10557000DBD10133D2E0292B40F0C680DBE70328E2
:1055800004D03A4B186841F2EE0369E04349DDF874
:10559000409011A813F0E2FC074630BB009010AB1E
:1055A0004A46294611A809F081FB032804D02F4B55
:1055B000186841F2FB0353E0344BDFF8BC901868E5
:1055C0000A93D9F800304FF08C082A4611A908FB3D
:1055D00000300BF0C9FE0A9BD3F800E0D9F8003088
:1055E00001463A4608FB0E3077E02D4911A813F02A
:1055F000B5FC10BB009010AB4A46294611A809F033
:1056000055FB032804D0194B186841F2091327E011
:10561000DFF86480DFF87490D8F80030D9F8000023
:105620008C272A4607FB003011A90BF029FED9F878
:1056300000E0D8F8003001224CE01A4911A813F01C
:105640008DFC002856D1009010AB4A46294611A87F
:1056500009F02CFB032829D0044B186841F21713DA
:105660002A461149C06812F0F5FF4AE0F402002012
:105670003BBE0108980E0020FC0D002064BE01080E
:10568000640E00204C0E00209EBE0108800E0020FB
:105690007AA601086C0E0020C1940108ADAE010885
:1056A000169901081BD3010826940108DFF8188316
:1056B000DFF81093D8F80030D9F800008C272A467C
:1056C00007FB003011A90BF066FDD9F800E0D8F80F
:1056D00000300222014607FB0E300CF04FFB089809
:1056E0009DF81C3000F8013B09F0D7FA0AF1010AD5
:1056F000804609E0B04BB1491B682A46D86812F0D1
:10570000A9FF4FF0010912E0089B1B78292B06D155
:105710000BE0079B292B02D1049B013B0493089BC0
:10572000013308931BE7994601E04FF00009089BFD
:105730001B7863B9049B53B19F4BA1491B682A4650
:10574000D86812F087FF4FF0010900F007BD9D4BAC
:10575000CDF838801A689C4B1B688C2101FB023302
:10576000B9F1010FC3F830A000F0F8844FF0000940
:1057700000F0EBBC0E9B0B9304970DF18808049B83
:10578000924A1B01404699589F1813F0E7FB0028E6
:1057900000F09080049B0133802B0493EFD18A4A60
:1057A0008B4BD2F800901B684F4600220492049A5B
:1057B0009A4211DA391D4046079313F0CFFBBA46DF
:1057C000079B8C3728B9DAF888300133CAF888305B
:1057D00059E0049A0132E9E755D17E4BDFF808829F
:1057E0001F68D8F800309F4226D1DFF8EC9157B9F6
:1057F0003421142012F026FFC9F80000B8B94FF088
:10580000FF33049333E03420143747433946D9F843
:10581000000013F04BFBC9F800000028EFD0A7F5FB
:1058200082674FF482620021384410F05CFAD8F8A5
:1058300000301433C8F80030DFF89881D8F8003011
:10584000049334275F43644BD3F800A00AEB0709A5
:10585000202222A909F1100013F0CAFB00234AF804
:105860000750C9F80430049B0133C8F800305B4B83
:10587000049A1A600C23226803FB0BF31021D15405
:105880004FF0000928E0049A8C2303FB0299D9F811
:105890002C303BB9524B1A60524B0F221A604FF01A
:1058A000090901E04FF000090C23226803FB0BF308
:1058B0000F2110E0FB68002B40F09E85484B049AB6
:1058C0001A60484B0E221A604FF009090C23226817
:1058D00003FB0BF30E21D154002E37D06368023B3B
:1058E0009B4502DB20460FF09FF80BF1010B0C22C9
:1058F00002FB0BF22168A2F10C03C85C88542168FA
:10590000C81811444078487021688818194489786B
:10591000013181702168C8180A44C078D0702268AB
:105920000021D15422681A440120516022681A448F
:1059300050700B9A167822681A440EB9907000E0E5
:105940009170226813442D22DA7056E0069B002BDA
:1059500053D06368023B9B4502DB20460FF064F89E
:105960000BF1010B0C2202FB0BF22168A2F10C03DC
:10597000C85C88542168C818114440784870216870
:10598000881819448978013181702168C8180A443F
:10599000C078D07022680021D15422681A440120B6
:1059A000516022681A4450700B9A167822681A4483
:1059B000E6B990701BE000BFF4020020A3BE01080E
:1059C000CABE0108800E0020FC0D002054B1010861
:1059D000980E00208C0E0020EC0D0020000000200E
:1059E000280300202C030020000E00209170226864
:1059F00013447E22DA70002306930C2303FB0BF37F
:105A00000A930A9A23681344049A5A6004212020B6
:105A100012F018FE079008980B9F09F03EF9013725
:105A20000646384609F039F9002306F1FF380C9094
:105A30000D931E4608F10102089298F80120002AF1
:105A400000F0DD84282A01D10133B8E0222A05D1F3
:105A50000D9981F001010D911BB1B0E0002B40F0D8
:105A6000AA800D9B002B40F09F802C2A02D0292A6F
:105A700040F09A800EF0EFFF089B0C9A0B90C2EB5F
:105A8000030ABAF1000F73DD0AF1010010F0BCF84F
:105A9000524607460C9913F0ABFA4FF0000307F893
:105AA0000A30AD4BAC4AD3F800A00B994FF0FF334E
:105AB0001360002300933A462846FFF7DBFA0128DB
:105AC0000DD1384610F0A8F80B980EF091FF002E7B
:105AD00000F09884013E079B53F82600F5E79E4BA3
