:020000040800F2
:1000000000000220495B01088F5B0108915B010839
:10001000935B0108955B0108975B010800000000F5
:10002000000000000000000000000000995B0108D3
:100030009B5B0108000000009D5B010869C500088A
:10004000A35B0108A55B0108A75B010809FF000885
:10005000AB5B0108AD5B0108AF5B0108B15B010858
:10006000B35B0108B55B0108B75B0108B95B010828
:10007000BB5B0108BD5B0108BF5B01089D31010846
:10008000C35B0108C55B0108C75B0108C95B0108C8
:10009000CB5B0108CD5B0108CF5B0108D15B010898
:1000A000D35B0108D55B0108D75B0108D95B010868
:1000B000CDFB0008DD5B0108DF5B0108E15B0108A7
:1000C000E35B0108E55B0108E75B0108E95B010808
:1000D000EB5B010849D2000879D10008A9D00008DB
:1000E000F35B0108F55B0108F75B0108F95B0108A8
:1000F000FB5B0108FD5B0108FF5B0108015C010877
:10010000035C01083D010108075C0108095C010866
:10011000D9CF000809CF00080F5C0108115C010865
:10012000E5CC0008155C0108175C01081D010108F9
:100130001B5C01081D5C01081F5C0108215C0108B3
:10014000235C0108255C0108275C0108295C010883
:100150002B5C01082D5C01082F5C010839CE0008DA
:10016000335C0108355C0108375C0108395C010823
:100170003B5C01083D5C01083F5C0108415C0108F3
:10018000435C0108455C010810B5054C237833B980
:10019000044B13B10448AFF300800123237010BD5A
:1001A0000803002000000000EC840408084B10B590
:1001B0001BB108490848AFF300800848036803B939
:1001C00010BD074B002BFBD0BDE81040184700BF07
:1001D000000000000C030020EC840408040300204D
:1001E00000000000154B002B08BF134B9D46A3F5E4
:1001F000803A00218B460F461348144A121A16F013
:1002000042FA0F4B002B00D098470E4B002B00D02A
:1002100098470020002104000D000D48002802D05E
:100220000C48AFF3008016F037F9200029000EF0DB
:1002300037F815F017FD00BF00000800000002208D
:10024000000000000000000008030020582F0020DC
:1002500000000000000000002DE9F04FADF2CC7D61
:1002600004460F91A44915F0EBFF0B90002802F013
:10027000518115F008F9A14D09902421142028601E
:1002800018F0B0FEDFF8C4A29D4B0C954FF00008AB
:1002900018604446D3460B9A4FF480712CA815F091
:1002A000A9FE002802F02C810C9ADAF800301668BA
:1002B000B34204F101041ADB06DD924B92481B683D
:1002C000D96818F01BFF36E014368D4F242575438E
:1002D0002946386819F0BAFAA5F5347538604FF434
:1002E00034720021284416F0CEF90C9B1E600D21BB
:1002F0002CA819F0F5FA08B1002303700A212CA8E4
:1003000019F0EEFA08B100230370002314AD009336
:100310002CAA12AB2146284610F016F80028BAD0B5
:1003200003280CD0774B186841F6F9237749224609
:10033000C06818F05FFE4FF0FF3802F0E1B8744972
:10034000129F284619F0DAFA18BB724A13689BB15B
:10035000714B6C481A6800688C2353436F4A1168CC
:10036000CA18CB580193131D009322462B466C49A3
:10037000C06818F03FFEDEE7012313600DF2BC42B7
:10038000009209993A46204604F074FE012882D171
:10039000D1E76449284619F0B1FA002840F01181EC
:1003A0005C4F3B682BB9574B186841F61A3301F084
:1003B0002AB8DBF80030594A574D002B11D02DDDFB
:1003C000296810688C2606FB0101896A8B4208D0D7
:1003D0004B490868242101FB030151F8201C0E2918
:1003E0001CD0296810688C2606FB0101C96A79B9FE
:1003F0004348242106685943701874500E21013374
:1004000041604FF0FF318360C160CBF8003005E000
:100410003C4B45491B68224602F08EBD2968136893
:10042000DFF8E0908C2505FB013500262B6C9E4201
:1004300013DAAA6C342303FB0623DA6A5AB91A6B5F
:10044000D9F80000002AC8BF38495A6AD8BF3849CD
:10045000C06818F0CFFD0136E8E7DFF8A890002665
:100460006B6E9E4213DAEA6E382303FB06231A6B87
:100470005AB95A6BD9F80000002AC8BF2D495A6AE8
:10048000D8BF2D49C06818F0B5FD0136E8E7DFF8A0
:1004900074900026EB6C9E4213DA6A6D342303FBE2
:1004A0000623DA6A5AB91A6BD9F80000002AC8BFC5
:1004B00022495A6AD8BF2249C06818F09BFD01360C
:1004C000E8E7DFF8409000262B6F9E4240DAAA6FE3
:1004D000382303FB06231A6B5AB95A6BD9F800006C
:1004E000002AC8BF17495A6AD8BF1749C06818F010
:1004F00081FD0136E8E700BF568104082C09002081
:1005000074090020F4020020B49D0108C69D010872
:10051000589E01085C090020880900200809002075
:10052000E99D0108559E01088E9E0108C39E0108A1
:10053000FF9E0108339F0108759F0108AF9F0108C6
:10054000EC9F010821A0010864A001086C090020AB
:10055000DFF8DC920026AB6D9E4213DA2A6E34235C
:1005600003FB0623DA6A5AB91A6BD9F80000002A8D
:10057000C8BFAA495A6AD8BFA949C06818F03AFD4D
:100580000136E8E7DFF8A8920026EB6F9E4214DA06
:10059000D5F88420382303FB06231A6B5AB95A6B0B
:1005A000D9F80000002AC8BF9E495A6AD8BF9E49A0
:1005B000C06818F01FFD0136E7E700233B6000F03C
:1005C000D3BD9A49284619F099F9002840F0CA800D
:1005D000009012AB3A46214628460FF0B5FE03289C
:1005E00004D0934B186841F642339FE69149129E1E
:1005F000284619F083F900284AD1009012AB324600
:10060000214628460FF0A0FE032804D0884B186826
:1006100041F64D338AE6884B1B685BB3874E884FA3
:1006200033683A688C20294600FB023014F044FA03
:10063000002800F34E82284614F0CAFA031E09DD92
:100640007B4A80491068019300952B462246C0687A
:1006500018F0D0FC3B6832688C2101FB0322043285
:1006600079492B460DF2BC4019F0F8F821460DF2FD
:10067000BC4007E0284614F0ABFA002800F32982BA
:100680002146284611F072FB03464FF0FF3055E03B
:100690006E49284619F032F9002849D1009012AB72
:1006A0003246214628460FF04FFE032804D0604B07
:1006B000186841F6783339E65F4B1B685BB35F4ED1
:1006C0005F4F33683A688C20294600FB023014F0F3
:1006D000F3F9002800F3FD81284614F079FA031E8F
:1006E00009DD534A57491068019300952B4622466D
:1006F000C06818F07FFC3B6832688C2101FB032244
:10070000043251492B460DF2BC4019F0A7F821469E
:100710000DF2BC4007E0284614F05AFA002800F316
:10072000D8812146284611F0CFF84FF0FF3305E07D
:100730003F4B186841F69E3300F065BE4FF0FF3521
:1007400006900593049503950295019500952B4617
:1007500012AA1299204614F08DFA002880F204851E
:1007600001F0CBBE3A49284619F0C8F8002840F0FD
:1007700027821390009012AB3A46214628460FF08C
:10078000E3FD032804D02A4B186841F6BA33CDE5BF
:100790002849129F284619F0B1F80646002840F073
:1007A000AD80009012AB3A46214628460FF0CCFDB2
:1007B000032804D01E4B186841F6C533B6E5129FD6
:1007C000009612AB3A46214624A80FF0BDFD0E2834
:1007D00040D100230093129A12AB214624A80FF0B7
:1007E000B3FD012804D124A815F032FA139009E0D2
:1007F000032840F0598113A924A814F02FF90028E8
:1008000000F0528100230093129A12AB214624A8D3
:100810000FF09AFD0F281ED046E100BF9FA00108EF
:10082000DEA0010815A101085AA1010897A101083D
:10083000F40200204DB801085C09002008090020DE
:1008400088090020D7A1010828A201080ADF0108B1
:100850002EA201081297A34B1B68002B31D0A24E89
:10086000A24F33683A688C20294600FB023014F00E
:1008700023F9002800F32D81284614F0A9F9031E5E
:1008800009DD9B4A9B491068019300952B4622463F
:10089000C06818F0AFFB3B6832688C2101FB032273
:1008A000043295492B460DF2BC4018F0D7FF13993E
:1008B00019B122460DF2BC4015E021460DF2BC40B4
:1008C00019E08B4E8D4933682246D86818F092FBA8
:1008D000284614F07DF9002801DD3668FBE0139905
:1008E00039B12246284611F08DFA4FF0FF321146F9
:1008F00055E12146284611F0D3FAF6E7804928460B
:1009000018F0FCFF002840F09080009012AB3A46AF
:10091000214628460FF018FD032804D0744B1868B0
:1009200041F6224302E5129E0027009712AB3246A1
:10093000214624A80FF008FD0E2822D1009712AB03
:10094000129A214624A80FF0FFFC012804D124A804
:1009500015F07EF9139009E0032840F0A58013A953
:1009600024A814F07BF8002800F09E800023009358
:10097000129A12AB214624A80FF0E6FC0F2801D0F2
:1009800092E01296574B1B68002B37D0564E574FAC
:1009900033683A688C20294600FB023014F08CF84A
:1009A000002800F39680284614F012F9031E09DD92
:1009B0004F4A50491068019300952B462246C06863
:1009C00018F018FB3B6832688C2101FB03220432CB
:1009D00049492B460DF2BC4018F040FF139919B15C
:1009E00022460DF2BC401AE021460DF2BC4011F047
:1009F00071F94FF0FF3201461046D0E03C4D3F49BF
:100A00002B682246D86818F0F5FA14A814F0E0F81C
:100A1000002800F3B280139921B1224614A811F0E6
:100A20000BF9E6E7214614A8E1E73649284618F015
:100A300065FF002840F0AD800026009612AB3A46D4
:100A4000214628460FF080FC032804D0284B186864
:100A500041F67F436AE4129F009612AB3A46214664
:100A600024A80FF071FC0E2822D1009612AB129A26
:100A7000214624A80FF068FC012804D124A815F011
:100A8000E7F8139006E003280ED113A924A813F069
:100A9000E5FF48B100230093129A12AB214624A827
:100AA0000FF052FC0F2804D0114B186824ABB0E2B1
:100AB00012970C4B1B68002B53D00B4E0B4F336817
:100AC0003A688C20294600FB023013F0F5FF00281D
:100AD0001CDD074B1E6800902B4622460A49F06831
:100AE00000F096BC5C09002008090020880900205D
:100AF000F4020020D7A1010828A201087DA2010864
:100B0000B6A201080ADF01089DA10108284614F0D9
:100B10005FF8031E09DDAE4AAE49106801930095E7
:100B20002B462246C06818F065FA3B6832688C2173
:100B300001FB03220432A8492B460DF2BC4018F0F9
:100B40008DFE139919B122460DF2BC401BE02146DF
:100B50000DF2BC4010F052FF4FF0FF310246084644
:100B60001DE09B4D9D492B682246D86818F042FA3B
:100B700014A814F02DF8002801DD2D6807E313995F
:100B800021B1224614A810F0EBFEE5E7214614A897
:100B9000E0E78F4B186841F6D94300F034BC139B53
:100BA000129F002B41F096844FF0FF330492039183
:100BB0000693059302900193009312AA394605E328
:100BC0008749284618F09AFE0646002840F0E7803C
:100BD0002490009012AB3A46214628460FF0B4FB11
:100BE000032805D07A4B186841F6F243FFF79EBB05
:100BF000129F009612AB3A4621460DF2BC400FF010
:100C0000A3FB0E2826D1009612AB129A21460DF2B4
:100C1000BC400FF099FB012805D10DF2BC4015F046
:100C200017F824900AE0032840F0EF8124A90DF280
:100C3000BC4013F013FF002800F0E781002300936D
:100C4000129A12AB21460DF2BC400FF07DFB0F282B
:100C500001D0DAE11297634B1B68002B00F0828011
:100C6000614EDFF88C913368D9F800208C2029463A
:100C700000FB023013F020FF00283FF72AAF284680
:100C800013F0A6FF002809DD514B52491F6801905F
:100C900000952B462246F86818F0ACF9249F002FE7
:100CA00047D03368D9F800208C2606FB0236716ED7
:100CB000B36E99421FD141B93821052018F092F93D
:100CC000F066A8B94FF0FF333EE005314FF0380928
:100CD00009FB01F1F06E18F0B9FDF0660028F1D0C3
:100CE000B36E4FF48C72002109FB030015F0CBFCAE
:100CF000B36E0533B366F36E706E4FF03809202281
:100D000009FB0030294618F043FE736EF26E09FBB2
:100D100003235C62736EF26E09FB0323DF62736E62
:100D2000F26E09FB032300221A63736E5A1C72666B
:100D30000AE03368D9F8000029468C2505FB00300D
:100D4000224610F04CFD0346249A002A40F00C8203
:100D50004FF0FF32069205920492039202920192A2
:100D6000009231E214A813F033FF002800F30D8243
:100D7000249921B1224614A811F044F803E0214639
:100D800014A811F08DF8249B002B40F0ED814FF05A
:100D9000FF330693059304930393029012E21349E1
:100DA000284618F0ABFD0646002840F0F980249054
:100DB000009012AB3A46214628460FF0C5FA0328A8
:100DC00018D0034B186841F66953FFF7AFBA00BF5C
:100DD000F4020020D7A1010828A201087DA2010881
:100DE0004DB801085C09002008090020B6A20108DE
:100DF00088090020129F009612AB3A4621460DF258
:100E0000BC400FF0A1FA0E2827D100230093129ABC
:100E100012AB21460DF2BC400FF096FA012805D125
:100E20000DF2BC4014F014FF24900AE0032840F0B7
:100E3000EC8024A90DF2BC4013F010FE002800F055
:100E4000E48000230093129A12AB21460DF2BC40BD
:100E50000FF07AFA0F2801D0D7E01297B54B1B6834
:100E6000002B00F08180B44EDFF8E0923368D9F8AF
:100E700000208C20294600FB023013F01DFE0028C4
:100E80003FF727AE284613F0A3FE002809DDAB4B41
:100E9000AB491F68019000952B462246F86818F070
:100EA000A9F8249F002F47D03368D9F800208C265A
:100EB00006FB0236316F736F99421FD141B9382159
:100EC000052018F08FF8B067A8B94FF0FF303DE06B
:100ED00005314FF0380909FB01F1B06F18F0B6FC8D
:100EE000B0670028F1D0736F4FF48C72002109FBBA
:100EF000030015F0C8FB736F05337367B36F306F72
:100F00004FF03809202209FB0030294618F040FD37
:100F1000336FB26F09FB03235C62336FB26F09FB5F
:100F20000323DF62336FB26F09FB032300221A63CE
:100F3000306F431C336709E0D9F800003368294655
:100F40008C25224605FB003010F0D5FB249B002B9E
:100F500040F00A814FF0FF33069305930493039307
:100F600002938DE809002FE1284613F031FE002896
:100F70003FF7AFAD249921B12246284610F05CFE20
:100F800003E02146284610F0A5FE249B002B40F0EC
:100F9000EB804FF0FF33069305930493039010E129
:100FA0006849284618F0AAFC002840F016812490D1
:100FB000009012AB3A46214628460FF0C5F90328A7
:100FC00005D05E4B18684FF4EF53FFF7AFB9129E90
:100FD0000027009712AB324621460DF2BC400FF0BD
:100FE000B3F90E282CD1009712AB129A21460DF2BC
:100FF000BC400FF0A9F9012805D10DF2BC4014F056
:1010000027FE249010E0032807D04C4B18680DF2FF
:10101000BC4322464C49FFF78BB924A90DF2BC40D2
:1010200013F01CFD0028F0D000230093129A12AB9D
:1010300021460DF2BC400FF087F90F2801D0E4E7FC
:1010400012963C4B1B68002B00F09A803A4EDFF85A
:10105000FC903368D9F800208C20294600FB023030
:1010600013F02AFD00283FF734AD284613F0B0FDF9
:10107000002809DD314B32491F68019000952B464D
:101080002246F86817F0B6FF249F002F60D033681F
:10109000D9F800208C2606FB0236F16FD6F8803096
:1010A000994225D149B93821052017F09BFFC6F890
:1010B0008400C0B94FF0FF3054E005314FF03809DB
:1010C00009FB01F1D6F8840018F0C0FBC6F88400D3
:1010D0000028EFD0D6F880304FF48C72002109FB45
:1010E000030015F0D0FAD6F880300533C6F880300A
:1010F000D6F88430F06F4FF03809202209FB003019
:10110000294618F045FCF36FD6F8842009FB032329
:101110005C62F36FD6F8842009FB0323DF62F36F70
:10112000D6F8842009FB032300221A63F06F431CC6
:10113000F36717E05C09002008090020F402002092
:10114000D7A101080ADF010835A20108880900209B
:10115000D9F80000336829468C25224605FB00306B
:1011600010F054FA249B13B1129F01F0B3B94FF061
:10117000FF3306930593049303930293019022E0B7
:1011800014A813F025FD002807DDB14B1D68009061
:1011900014AB2246AF49E8683AE1249921B12246CE
:1011A00014A810F0DDFB03E0214614A810F026FC83
:1011B000249B002BD8D14FF0FF3306930593049066
:1011C0000393029301930093129912AA204613F0FD
:1011D00051FD0028C8DAFFF7AEB89F49284618F03D
:1011E0008DFB00285CD19D4B1B6823B9984B186878
:1011F00041F6586307E1DFF88092DBF80030D9F858
:101200000000242505FB03F1421844500133002659
:10121000566093603B78002B01F07C8013AB009309
:101220003A4602230999204603F024FF0128074685
:101230003FF481A8022800F08883099B6CA81968F4
:1012400012F0FAFF6CA812F0AFFF031E0A93C1F26E
:101250001F8100963346139A0999204603F00AFF2E
:1012600001283FF468A8099B0DF2BC40196812F0F0
:10127000E3FF0DF2BC4012F097FF0028C1F2088195
:10128000DAF80030D9F8002005FB03250A9AEA6055
:101290004FF0FF322F616861AA612496259389E39C
:1012A0006F49284618F02AFB002840F09F806B4BBE
:1012B0001B6823B9664B186841F6AF63A3E0DFF8FB
:1012C000B891684E0125294624A813F041FE002854
:1012D00041F029862498D8B9D9F80020259B2421EB
:1012E00001FB032399690029BCBFDBF800209A6148
:1012F0005D4BDBF800201B6825929D4201F31386AD
:101300005B1B002146F8331006EBC3035A6002E072
:10131000012840F0B58001350028D4D1B8F1000F84
:1013200041F0EE80DFF85091DBF80030D9F8000092
:10133000242505FB03F1421844500133C2F8048010
:1013400093603B78002B00F0E58713AB00933A469F
:1013500002230999204603F08DFE012806463EF43B
:10136000EAAF022800F0F182099B6CA8196812F01C
:1013700063FF6CA812F018FF071EC1F28980CDF838
:1013800000804346139A0999204603F073FE012812
:101390003EF4D1AF099B0DF2BC40196812F04CFF2E
:1013A0000DF2BC4012F000FF0028C1F27180DAF8A3
:1013B0000030D9F8002005FB032501222E614FF0F3
:1013C000FF366861EF60AE61334424A82492259310
:1013D00013F0EAFD002801F076801D4B23491B68BD
:1013E0002246D86817F006FE01F089B82049284641
:1013F00018F084FA002861D1184B1B6863B9144BAC
:10140000186841F62E731B49009322462B46C0688C
:1014100017F0F0FDFEF78FBF174E01254FF024099E
:1014200029460DF2BC4013F093FD002841F07B8566
:10143000DDF8BC0410BBDDF8C034326809FB0323BF
:101440009969002922DADBF800209A611EE000BFCA
:10145000F40200209DA10108C3A301085C0900203B
:101460005EA30108240300202404002034A3010803
:10147000BBA30108619E010874090020012805D062
:10148000AA4BAB491B68224601F056BD0135002826
:10149000C6D1B8F1000F41F033800123CDF8BC3440
:1014A000DBF800300DF2BC40013BCDF8C03413F046
:1014B0007BFD002801F00E8000F006BC9D49284607
:1014C00018F01CFA002856D19B4B1B6823B9974B88
:1014D000186841F6657396E7984E054601210DF2AE
:1014E000BC4013F035FD48B1904B95491B6822462E
:1014F000D86817F07FFD4FF0FF3827E0DDF8BC34E7
:10150000012B0DD10DF2BC4013F038FDDDF8C034D5
:101510003268242101FB0323DBF800209A6011E0EC
:1015200083B90DF2BC4013F029FDDDF8C024336807
:10153000242101FB023301259A69002ABCBFDBF894
:1015400000209A61DDF8BC34002BC7D12DB9774B50
:101550007C491B68224601F0EFBCDBF8003077497C
:1015600024225A43086881188450012213444A6097
:101570008B6000F00DBC7449284618F0BFF9064690
:10158000002840F04A816C4B1B6823B9674B1868F0
:1015900041F69A7337E76949DBF80030086824227E
:1015A0005A438118013384508B60042212AB4A6085
:1015B00000961A68214628460EF0C6FE032805D07C
:1015C0005A4B186841F6A773FEF7B0BE5F4FDFF8BD
:1015D0008C913B68D9F800208C2101FB023318461E
:1015E00029460A9310F054F900280A9B08DB9A6CEC
:1015F000342303FB00231A6B01321A63334678E06D
:101600002946184610F00AFD002804DA284610F092
:10161000D1FD002809DB4E4B1A68342303FB00235D
:101620001A6B01321A63062363E0D9F800003B68A5
:101630003E4E8C22294602FB003010F035FD00287A
:1016400005DB30682B4622464249FEF771BE28462C
:1016500010F00AFD0028F4DAD9F800003B68DFF842
:10166000EC80DFF8F8A04FF08C09294609FB003028
:1016700010F07CFA0028E4DA284610F057FA002827
:10168000DFDADAF80030D8F8007009FB0377294672
:10169000384610F089F8002805DB30682E492B46C3
:1016A0002246FEF745BE2946384610F06BFC00285E
:1016B000F3DA284610F03EFD0028EEDADAF80030C2
:1016C000D8F8002009FB0329294648460FF0F8FF07
:1016D0000028E2DA2946484610F002FA0028DCDA4F
:1016E000284610F089FA0028D7DA30682B4600F037
:1016F000E6BD124EDBF800203168242707FB0212FA
:1017000012AD4FF00009D0601361CDF800902B4668
:101710002A68214614A80EF017FE072820D0034B94
:10172000186841F6DD73FEF701BE00BFF402002029
:1017300090A30108C0A301085C09002074090020DF
:1017400065A30108C6A3010887A4010808090020B1
:1017500070090020F2A3010824A4010888090020D0
:10176000009503232A680999204603F083FC012889
:101770003EF4E1AD099B6CA8196812F05DFD6CA800
:1017800012F012FD0028C0F283863268DAF80030C9
:10179000099907FB03235861009504232A68204612
:1017A00003F068FC01283EF4C6AD099B6CA81968DB
:1017B00012F042FD6CA812F0F7FC0028C0F2688617
:1017C0003268DAF8003007FB03232A689861117841
:1017D000D1B100954B460999204603F04BFC0128F6
:1017E0003EF4A9AD099B6CA8196812F025FD6CA800
:1017F00012F0DAFC0028C0F24B86DAF800303268CA
:1018000007FB0327F86102E04FF0FF32DA6104239F
:10181000CDF8BC34DBF800304DE2AF49284618F073
:101820006DF8002864D1AD4B1B6823B9AC4B186828
:1018300042F23F03E7E524A813F0A0FB002841F0A3
:101840007283249B042B05D0A54BA6491B68224616
:1018500001F072BBA44EDBF800103368242505FBB1
:1018600001F01A181C5005205060481C9060259803
:1018700005FB0033B1461962D0600DF2BC4011F097
:101880007FFA98B9DDF8C024259B9A420ED10DF25B
:10189000BC4013F047FBDDF8BC34D9F8002005FB51
:1018A0000323DBF8002001329A60E6E78F4A3168B3
:1018B0000A911368DBF80010DDF894908C4E0D91BE
:1018C0004FF0240C0021002B40F35D82581E06EBE4
:1018D000C00E56F83050DEF804E0F14540F0538277
:1018E0000A9B0CFB05350D9BAB6001210346EAE723
:1018F0008049284618F002F800285DD1774B1B6814
:1019000023B9774B18684FF402537CE5764EDBF829
:101910000020306824235343C118C45001320223ED
:101920004B608A603A78002A00F0F4840DF14C098B
:10193000CDF800903A460999204603F09BFB012818
:1019400005463EF4F8AC022805D1654B6A491B6890
:10195000224601F0F1BA099B6CA8196812F06CFCE0
:101960006CA812F021FC071EC0F2928500230093A0
:10197000D9F800200999204603F07CFB01283EF4A9
:10198000DAAC099B0DF2BC40196812F055FC0DF25F
:10199000BC4012F009FC0028C0F27A85DBF8002078
:1019A0003168242303FB0213DF601D6158610223A9
:1019B0002493259224A882E15049284617F09EFFDF
:1019C000002843D1454B1B6823B9454B186842F2A8
:1019D000D10318E524A813F0D1FA002841F0A3821E
:1019E000249B022B05D03E4B45491B68224601F043
:1019F000A3BA3D4EDBF800103368242505FB01F047
:101A00001A181C5003205060481C9060259805FB54
:101A100000339961D0600DF2BC4011F0B1F900289B
:101A200040F0B381DDF8C024259B9A4240F0AD819F
:101A30000DF2BC4013F076FADDF8BC34326805FBD9
:101A40000323DBF8002001329A60E4E72D492846A1
:101A500017F054FF002831D1204B1B6823B9204BCD
:101A600018684FF40453CEE41F4ADBF800501168A5
:101A700024236B43CA18CC50062353606B1C93601D
:101A80003B7873B102222049384617F06CFF40B111
:101A9000134B186842F20B1300933B4622461B4936
:101AA000B5E406230DF2BC40CDF8BC34CDF8C054EB
:101AB00013F07AFA002800F0688105E114492846FD
:101AC00017F01CFF002861D1044B1B6813BB044BAB
:101AD000186842F2231396E484A401085C090020EC
:101AE000F40200208BA4010874090020B004002037
:101AF00030040020BBA40108DDA20108B8A401083D
:101B0000C1A4010824A50108F0A40108F3A4010858
:101B100021A5010824A813F031FA002841F003821E
:101B2000249B062B05D0AC4BAC491B68224601F028
:101B300003BAAB4EDBF800103368242505FB01F037
:101B40001A181C5007205060481C9060259805FB0F
:101B50000033D960D0600DF2BC4011F011F90028BB
:101B600040F01381DDF8C024259B9A4240F00D819E
:101B70000DF2BC4013F0D6F9DDF8BC34326805FB39
:101B80000323DBF8002001329A60E4E795492846F8
:101B900017F0B4FE00284ED1934B1B6823B98E4B2F
:101BA000186842F250132EE48D4EDBF80030316895
:101BB000242505FB03F288188C500E2242608B4AC4
:101BC00011688B4A12684FF08C0E0EFB0122013314
:101BD0008360D16A3A7851B92AB17F4B85491B6835
:101BE000224601F0A9B94FF0FF32C260B7E12AB92D
:101BF000794B81491B68224601F09EB9002300936E
:101C00003A460999204603F035FA01283EF493AB91
:101C1000099B6CA8196812F00FFB6CA812F0C4FAAB
:101C20000028C0F23584DAF80030326805FB03255D
:101C3000E86000F04ABC7149284617F05FFE034691
:101C4000002847D1684A12682AB9634B186842F2E3
:101C50008E13FFF7D8BBDFF88891DBF80020D9F8A6
:101C60000000242505FB02F6811984510132082663
:101C70004E608A603A78002A00F04C8300933A461E
:101C80000999204603F0F6F901283EF454AB099B6C
:101C90006CA8196812F0D0FA6CA812F085FA002826
:101CA000C0F2F683DAF80030D9F8002005FB0325EE
:101CB000E860CDF8BC64CDF8C0340DF2BC4013F040
:101CC00073F9002800F0FF83434B4D491B682246FF
:101CD00001F032B94B49284617F010FE00286BD1AD
:101CE000414B1B682BB93C4B186842F2C613FFF7F7
:101CF0008ABB24A813F042F9002841F01481249BE8
:101D0000082B05D0344B40491B68224601F014B91A
:101D1000334EDBF800103368242505FB01F01A1858
:101D20001C5009205060481C9060259805FB00332A
:101D3000B1461961D0600DF2BC4011F021F898B99C
:101D4000DDF8C024259B9A420ED10DF2BC4013F061
:101D5000E9F8DDF8BC34D9F8002005FB0323DAF8F4
:101D6000002001329A60E6E7284A31680A91DDF8DE
:101D70009490DBF800101368254E0D914FF0240C61
:101D80000021002B07DC01B11360DBF800300133C8
:101D9000CBF800309EE3581E06EBC00E56F83050CC
:101DA000DEF804E0F145EED10A9B0CFB05350D9BF6
:101DB000AB6001210346E4E71649284617F09EFD73
:101DC000002861D1084B1B6833BB034B186842F2F3
:101DD0000523FFF718BB00BFF402002029A5010866
:101DE0007409002057A501085C090020880900201B
:101DF000080900205EA50108A1A50108ECA50108BD
:101E000034A30108E9A50108F3A50108B0040020E6
:101E10003004002023A60108B949DBF80030086827
:101E200024225A438118845001330A224A608B606D
:101E300001254FF4AA7629460DF2BC4013F088F82C
:101E4000002841F07E80DDF8BC34082B1AD826FA31
:101E500003F3DB0716D5AB48DAF800100368DDF8AA
:101E6000C0540F2B01F36480A74A42F8331002EBF1
:101E7000C302013355600360B8F1000F40F04083A6
:101E80004B1C6CE00135D6E7A049284617F036FD1B
:101E9000002867D19E4B1B682BB99E4B186842F2F5
:101EA0003E23FFF7B0BADBF80020954D24235343BF
:101EB0002A68D118D4500B234B60012631460DF20D
:101EC000BC4013F045F800283ED1DDF8BC34022BAD
:101ED00008D12A68DAF80030242101FB0323DDF859
:101EE000C0240CE0062B0CD12968DDF8C024DAF8F8
:101EF0000030242000FB021200FB031392689A605A
:101F00002AE0042B01D0082B24D18348DAF80020E2
:101F10000368DDF8C0640F2B0FDC804941F83320E3
:101F200001EBC301013303602B684E60242101FBE8
:101F300002324FF0FF3393600EE0764B78491B6816
:101F40002246D86817F056F8724B76491B6822462D
:101F500000F0F2BF0136B1E7DAF800300133CAF819
:101F60000030B7E22B78002B00F0B482684B1B687E
:101F70002BB9684B186842F27F23FFF744BA3B78CD
:101F80005B2B3BD1013701233A783E46013742B102
:101F90005D2A02D1013BF7D10CE05B2A08BF013377
:101FA000F2E75C4B60491B682246D86817F022F8BC
:101FB0004FF0FF384FF0000986F8009013F063FAF5
:101FC000CDF80090014607464B46129A204603F092
:101FD00051F801283EF4AFA939680DF2BC4012F067
:101FE0002BF9384613F01CFA0DF2BC4012F0DCF865
:101FF0000A90701C0EF09FF9129002E04FF0FF3330
:102000000A93129B1B783D2B40F07E81474E484F30
:1020100029461CA817F07CFC3A6833688C2101FB28
:10202000023528461CA90FF033FCB0F1000908DB8B
:10203000AA6C342303FB092300251A6B01321A63AF
:1020400055E11CA928460FF008FCB0F100090CDB93
:10205000EA6E382303FB09F31A44516B01315163D3
:10206000EA6E13440125DB6A2DE11CA928460FF016
:102070009BFBB0F1000908DB6A6D342303FB0923E5
:1020800002251A6B01321A6331E11CA928460FF0B0
:1020900070FBB0F100090CDBAA6F382303FB09F3D6
:1020A0001A44516B01315163AA6F13440325DB6A53
:1020B00009E11CA928460FF003FBB0F1000908DB79
:1020C0002A6E342303FB092304251A6B01321A6399
:1020D0000DE11CA928460FF0D7FAB0F1000929DB61
:1020E000D5F88420382303FB09F31A44516B0131DE
:1020F0005163D5F8842013440525DB6AE3E000BF73
:1021000074090020702500208026002055A60108B3
:102110005C090020F4020020B004002030040020FC
:102120008DB301085EA60108B6B3010808090020B6
:10213000880900201CA928460FF070FFB0F10009A3
:102140005DDA386833688C221CA902FB00300FF07E
:102150003FFFB0F1000962DA386833688C221CA9AD
:1021600002FB00300FF00EFFB0F1000968DAA54E57
:10217000A54F336838688C251CA905FB00300FF08B
:10218000DBFEB0F100096BDA386833681CA905FB87
:1021900000300FF0A5FCB0F1000972DA386833683E
:1021A0001CA905FB00300FF075FCB0F1000978DACE
:1021B000386833681CA905FB00300FF075FF002854
:1021C00004DB924B18681CABFFF73DBA1CA80FF05C
:1021D0004BFF0028F5DA386833681CA905FB00308E
:1021E0000FF0C4FC0028ECDA1CA80FF09FFC0028BC
:1021F000E7DA1CA80FF0DEFFB0F1000909DB844B21
:102200001A68342303FB092306251A6B01321A636B
:102210006DE01CA80FF0AEFFB0F100090ADB7D4BAA
:102220001A68382303FB092307255A6B01325A63C6
:10223000DB6A48E01CA80FF07DFFB0F1000909DB64
:10224000754B1A68342303FB092308251A6B0132E6
:102250001A634CE01CA80FF04DFFB0F100090ADB37
:102260006E4B1A68382303FB092309255A6B013288
:102270005A63DB6A27E01CA80FF0BEFCB0F100092E
:1022800009DB674B1A68342303FB09230A251A6B01
:1022900001321A632BE01CA80FF08EFCB0F100098C
:1022A0000ADB604B1A68382303FB09230B255A6BA2
:1022B00001325A63DB6A06E0544B18681CAB2246B5
:1022C0005949FEF735B80A9A002A07DB93B94F4BF4
:1022D00056491868224614ABFEF72AB8002B09DDD0
:1022E0004A4B53491868224614ABFEF721B80A9BA3
:1022F000002BECDA00230093129A12AB214614A8AB
:102300000EF022F8129A03E000254FF0FF392CAAB4
:1023100013782BB93D4B47491B68224600F00CBE91
:10232000454F099900234FF0FF363E602046009349
:1023300002F0A0FE012800F0E280B1450CD03B681D
:10234000002B06DB3D4A1268342101FB03230122E6
:10235000DA60092800F0FE85099B6CAE19683046EA
:1023600011F06AFF364ADAF80070116824237B43C3
:10237000CA180137CC503046976000210B58152BF6
:1023800000F00F86123B022B01F10C01F6D8B9F1D7
:10239000FF3F00F08380002D54D16C9B042B1ED195
:1023A0006D9B99457AD16F9B012B09D1729B3BB9EB
:1023B000739B2B2B04D1759B152B01D1709B5FE078
:1023C0006F9B012B6AD1729B002B67D1739B2D2BC6
:1023D00064D1759B152B61D1709B5B4250E0012B42
:1023E0005CD16F9B042B59D1709B994556D1729B40
:1023F000002B53D1739B2B2B50D1759B152B4DD19B
:102400006D9B3DE00809002088090020F4020020AF
:10241000700900203009002044090020A80900208C
:10242000980900201009002059A401088DA6010870
:10243000C5A60108BBA20108000000205409002025
:1024400074090020062D07D16C9B062BA8D0012B08
:1024500024D16F9B062BC6E7022D07D16C9B082B5E
:102460009ED0012B1AD16F9B082BBCE7082D15D1EC
:102470006C9B0B2B94D0012B10D16F9B0B2BB2E7D5
:1024800063B10C215160C2F80C90156153611AE0E0
:10249000A64BA7491B68224600F04EBD0D23536092
:1024A0000A9B9760C2F80C90156153616CA811F0FB
:1024B0007BFE0028ECDB9F4BDBF800201B6824210F
:1024C00001FB02339861DAF800300133CAF80030BA
:1024D000FDF7E1BE002300933A4612AB214614A853
:1024E0000DF032FF00283DF4D6AE904B186842F252
:1024F000DE33009314ABFFF7D1BAA84600E0B04634
:10250000099812F08DFF0B9813F012FCB8F1000F30
:1025100005D083E3854B88491B68224606E0874B3C
:102520001B683BB1814B86491B682246D86816F070
:1025300061FD71E3834B1B68002B05DC4446824F31
:10254000DFF85892794E5CE001210DF2BC4012F0A8
:10255000FFFCDDF8BC14774B744A082938D8DFE853
:1025600001F0050F1937373723372D00DDF8C00488
:102570001968242343431068CB587449224630E03D
:10258000DDF8C0041968242343431068CB58704910
:10259000224626E0DDF8C00419682423434310686E
:1025A000CB586C4922461CE0DDF8C004196824238E
:1025B00043431068CB586849224612E0DDF8C00456
:1025C0001968242343431068CB586449224608E025
:1025D000DDF8C0041968242343431068CB586049D0
:1025E0002246C06816F006FD16E3D9F800304FF019
:1025F000340A0AFB043ADAF82CB0BBF1000F04D01D
:1026000001343B689C42F0DB25E02E21504617F058
:1026100067F9054688B180F800B05249504617F076
:102620006DF938B13068DAF824204F49C0686B1C66
:1026300016F0E0FC2E232B70E2E7DAF83030306839
:10264000DAF82420C068002BCCBF484946495346DD
:1026500016F0D0FCD4E7464E464F344D0024336884
:102660009C4224DA3B684FF0340909FB0439D9F85D
:102670002C30D3B92E21484617F032F9D9F8303032
:1026800040B1002BD9F82420CCBF3B493B49431C27
:10269000286807E0002B2868D9F82420CCBF3849E7
:1026A00038494B46C06816F0A5FC0134D7E7364FD1
:1026B000DFF8EC901D4D00243B689C4272DAD9F89B
:1026C00000304FF0340A0AFB043ADAF82CB0BBF1C0
:1026D000000F29D12E21504617F002F90646B0B15D
:1026E00080F800B01F49504617F008F960B1DAF8D9
:1026F00030302868DAF82420C068002BCCBF23498A
:102700002349731C16F076FC2E2333700CE0DAF8A4
:1027100030302868DAF82420C068002BCCBF1D496F
:102720001D49534616F066FC0134C5E7F40200204B
:1027300008A3010874090020BAA701085C09002059
:10274000CBA70108240400201409002001A80108D7
:102750003EA8010872A80108A9A80108DEA801087E
:1027600017A90108589E010855A9010889A901085F
:1027700018090020F8080020C5A9010805AA0108C9
:102780003DAA01087CAA010834090020B3AA010867
:10279000F0AA010825AB010862AB0108A4090020DA
:1027A00070090020AD4FDFF83C93AD4E00243B682C
:1027B0009C4231DAD9F800304FF0380A0AFB043A6B
:1027C000DAF830B0BBF1000F24D12E21504617F0BB
:1027D00087F8054688B180F800B0A249504617F046
:1027E0008DF838B13068DAF824209F49C0686B1C36
:1027F00016F000FC2E232B700CE0DAF83430306831
:10280000DAF82420C068002BCCBF98499849534679
:1028100016F0F0FB0134CAE7964FDFF8CC92904EE9
:1028200000243B689C4231DAD9F800304FF0340A7A
:102830000AFB043ADAF82CB0BBF1000F24D12E21A8
:10284000504617F04DF8054688B180F800B085492C
:10285000504617F053F838B13068DAF8242086492A
:10286000C0686B1C16F0C6FB2E232B700CE0DAF848
:1028700030303068DAF82420C068002BCCBF7F49A4
:102880007F49534616F0B6FB0134CAE77D4FDFF8A7
:102890005C92734E00243B689C4231DAD9F80030D8
:1028A0004FF0380A0AFB043ADAF830B0BBF1000FF7
:1028B00024D12E21504617F013F8054688B180F830
:1028C00000B06849504617F019F838B13068DAF8A6
:1028D00024206D49C0686B1C16F08CFB2E232B70D6
:1028E0000CE0DAF834303068DAF82420C068002BC5
:1028F000CCBF66496649534616F07CFB0134CAE7F3
:10290000644E654F564D002433689C4224DA3B6880
:102910004FF0340909FB0439D9F82C30D3B92E21F2
:10292000484616F0DDFFD9F8303040B1002BD9F819
:102930002420CCBF59495A49431C286807E0002B82
:102940002868D9F82420CCBF564957494B46C0685F
:1029500016F050FB0134D7E7544E554F404D00243C
:1029600033689C4224DA3B684FF0380909FB04398C
:10297000D9F83030D3B92E21484616F0B1FFD9F836
:10298000343040B1002BD9F82420CCBF49494A4902
:10299000431C286807E0002B2868D9F82420CCBF06
:1029A000464947494B46C06816F024FB0134D7E737
:1029B00000263746434B1B689F4280F2E080424B23
:1029C0001B6853F8274000230434099354F8043C4F
:1029D000152B00F0D280142B40F0CA803B4A2368AC
:1029E000126852F823200B921568394A12689542F2
:1029F0000ADB1B4A374910688DE8280041F21E7235
:102A0000099BC06816F0F6FA34236B430A93324BE5
:102A10000A9A1B680D9303EB020A0AF110030C9348
:102A20002E4B2F4A1B68D2F800B000258C229D4205
:102A300080F29E8011930BF1040102FB05F30C98C8
:102A400010920E9316F05AFFD9460BF18C0B00280A
:102A50004ED00135119B109AE9E700BF64090020B0
:102A6000F4020020589E010897AB0108D2AB010880
:102A700015AC01080409002050AC010886AC01081F
:102A8000C4AC010860090020FAAC010836AD0108A9
:102A90007AAD01089009002098090020C5A9010815
:102AA00005AA0108B6AD0108F2AD010850090020E1
:102AB000100900202AAE010870AE0108AEAE010870
:102AC000F0AE01087C090020400900202809002000
:102AD000F00800202EAF010854090020A0090020B2
:102AE000080900203009002044090020A80900201E
:102AF000002D3DDBDAF804300133CAF80430D9F890
:102B000088300133C9F88830D9F82C308BB9DAF81D
:102B10000C3073B1974B0A9918680D9AD9F80030A8
:102B2000009352580C9B9449C06816F063FA4FF01A
:102B3000FF36924B0E9A1B681344914A186B11682A
:102B40000A9A11448A6890420DD08A4C24680290F7
:102B500001921A6800920A68E0688A49043316F004
:102B600049FAFF2609E00B9B1D60132344F8043C3F
:102B7000099B013309930C3428E701371AE7824D8A
:102B80007F4FDFF8F09100242B689C4210DA34224A
:102B9000396862438B18586840B9D9F800008A58E0
:102BA000C0687A49103316F025FAFF260134EBE7A6
:102BB000002E31DB714D764E00242F4633689C4247
:102BC0002CDA4FF08C092A6809FB04F94A44D2F840
:102BD0008830FBB904326F490DF2BC4016F03EFE5E
:102BE0000DF2BC400FF0E6FA031E06DB6A4A1268DB
:102BF000342000FB0320C36A63B93A685D4902EBE5
:102C00000903086852F80920009204336349C06838
:102C100016F0F0F90134D1E74FF0FF380F9B002B8D
:102C200000F0B6825E4A5F4E10683368002211469B
:102C30002424994207DA04FB010501316D680C2D4B
:102C400008BF0132F5E74B4C57492068C06816F0C1
:102C5000D1F9564B20681B68554924255D430095E2
:102C60003268C06816F0C6F9494B1A68434B002019
:102C70001B6806464FF0340E4FF0380C964203F1B5
:102C80008C031ADA53F8301C53F8487C0F4453F87D
:102C90003C1C394453F8587C4FEAC7090EFB019994
:102CA00053F80C7C53F8241C0F4453F8181C394477
:102CB0000CFB019108440136E0E73E4B27681B6896
:102CC0003D498C2606FB03060096F86816F092F93B
:102CD0003A4B2D4A1B683A493420354400FB03F631
:102CE000206800961268C06816F084F9354B1A689F
:102CF000354B1F68354BD3F800E0002335444FF0C7
:102D00000C0C1E46934217DA57F82310086900B1DD
:102D10000436D1F80490002048450ADA5EF8231002
:102D2000096851F8201049680CFB0166083601302B
:102D3000F2E71C360133E5E7254B20681B6825497F
:102D400006EBC3060096C06816F054F9224BD3F880
:102D50000090224B2E44D3F800A000252F464F456B
:102D60003EDA5AF8270018B116F0F5FD0130054497
:102D70000137F4E7F402002025A701080809002024
:102D80005409002085AF0108F0080020F2AF0108C7
:102D9000A00900201AB001087009002026B001081F
:102DA000740900206C09002063B001082C09002080
:102DB00085B0010884090020B3B001080C09002087
:102DC000E1B00108FC080020280900209C0900202F
:102DD000940900200FB101083C09002020090020BF
:102DE000984B20681B68984905EB830500954A4677
:102DF000C06816F0FFF8954B20681B68944A954907
:102E000034272E4407FB03F500951268C06816F0BE
:102E1000F1F8914B20681B68904A91492E4407FBBA
:102E200003F500951268C06816F0E4F88D4B206831
:102E30001B688D494FF0380909FB03F200928B4A59
:102E4000C068126816F0D6F8894B20681B68894A5A
:102E500089492E4407FB03F500951268C06816F0F7
:102E6000C9F8864B20681B68854A86492E4409FBB1
:102E700003F500951268C06816F0BCF8824B206814
:102E80001B68824A8249354407FB03F600961268A4
:102E9000C06816F0AFF87F4B20681B687E4A7F49F8
:102EA0002E4407FB03F500951268C06816F0A2F8DF
:102EB0007B4B20681B687B4A7B49354409FB03F642
:102EC00000961268C06816F095F8784BD3F800A009
:102ED000774BD3F80090774B1B6835444FEA8A074D
:102EE00000264FF00C0B4E4509DA53F826000993E3
:102EF00011F0ABF801360BFB0077099BF3E7206874
:102F000000974A4653466C49C06816F073F8236828
:102F10006A48D96816F0F2F823686949D868EA194E
:102F200016F068F834E1674B67491B68224603E0F6
:102F3000644B66491B682246D86816F05BF8FDF7BB
:102F4000FAB9B8F1000F7FF4DBAA5E4B60491B6849
:102F50002246F1E75F4B5B481B680E2B09D15E4BA5
:102F60005E4A1B6800685E491B01D3582246FDF784
:102F7000DFB90F2B0ED1584B00681A688C235A43C7
:102F8000584B19688B188A580092043322465649C8
:102F9000FEF73DBA0068554A554942F27733FDF7CE
:102FA000C7B9B9F1FF3F09D1464B52491B682246C8
:102FB000D86816F01FF8C846FFF7A2BA00236E1EA5
:102FC0000168152927D00A2E07D8DFE806F0080A7D
:102FD0000C0E10121416181A1C00042914E00529EE
:102FE00012E0082910E009290EE00E290CE00F2953
:102FF0000AE0062908E0072906E00B2904E00C296D
:1030000002E0102900E0112903D14168894508BF79
:1030100001330C30D4E7002B3FF4BDA9691E0A2907
:1030200007D8DFE801F06B747D868F999B9D9FA187
:10303000AB00314908682B4909688C2606FB001152
:10304000886C93E0240900203DB101084809002064
:10305000140900206BB10108780900203409002010
:1030600099B101088C090020C7B10108640900204A
:103070004C09002004090020F5B10108380900209E
:103080006009002023B20108580900201809002017
:1030900051B20108F4080020900900207FB2010815
:1030A000EC08002050090020ADB201088009002082
:1030B0007C09002040090020DBB2010809B30108A7
:1030C00039B30108F402002065A3010867B30108C1
:1030D00029A601082C04002028040020F4BA0108C5
:1030E000F9A601080809002025A7010864A701081E
:1030F00073A701088FA701088809002027490868DD
:10310000274909688C2606FB0011C86E38E0234960
:103110000868234909688C2606FB0011486D25E0E4
:103120001E4908681E4909688C2606FB0011886F35
:1031300026E01A4908681A4909688C2606FB00111E
:10314000086E13E015490868154909688C2606FBC6
:103150000011D1F8840013E0124906E012490EE094
:10316000124902E012490AE012490868342101FBC1
:103170000900C16ACB1AC362FFF70DB90E4908688E
:10318000382101FB0900016BCB1A0363FFF703B978
:1031900040460DF2CC7DBDE8F08F00BF88090020CD
:1031A000080900207009002030090020440900208F
:1031B000A809002098090020100900201FB5036805
:1031C0000269416902934368019383680093C3686D
:1031D0000448013201F26C7116F088FA05B05DF80E
:1031E00004FB00BFF4C2010870B5134B1D681E46F6
:1031F00055B1124816F022FB002070BD0A2001359F
:1032000009F0A4F90A2D07D001210D480FF072FD35
:103210000328044606D1F1E721460A4806F0E4F8FF
:10322000012070BD0028F7D12946074816F05EFA44
:1032300001233360E0E700BF0007002011C301084D
:10324000B4040020D9C6010829C30108012310B520
:10325000C1F3421401F01F029C4203FA02F201D1B1
:10326000838903E0022C0CBF038A838A9BB213403C
:10327000028892B243B10123090A03FA01F10A421A
:1032800014BF1846002010BD184610BD034B5B6BE1
:10329000034214BF01200020704700BF002C0140F2
:1032A00082B000230193034B03440193019B1868F0
:1032B00002B07047142C014000230928DAB203F150
:1032C000010302D90A38C0B2F7E740EA0210C0B2DF
:1032D0007047000030B50E4BCA245C6253245C6218
:1032E000DC68E40305D50B4CDD68ED0301D5013C3A
:1032F000FAD1074BDC68E4035CBF0A4310434FF08C
:10330000FF0258BFD8635A6254BF0120002030BD6D
:10331000002800400100020082B0002301930E4B00
:10332000CA225A6253225A62DA6822F0A002DA6094
:10333000DA680199013101910199B1F5003F02F07C
:103340002002054901D0002AF2D0C868FF23C0F34B
:1033500040104B6202B070470028004082B000234A
:1033600001930D4BDA68520613D44FF0FF32DA6046
:10337000DA680199013101910199B1F5803F02F0BC
:10338000400201D0002AF3D0034BD868C0F380106C
:1033900000E0012002B070470028004010B51D4A2F
:1033A000936803F00C03042B03D0082B03D01A4BB3
:1033B00018E01A4B16E05168536811F4800F03F0BF
:1033C0003F03516814BF154A134AB2FBF3F3114A85
:1033D0005268C2F30142C1F3881101324B435200DB
:1033E000B3FBF2F30B4A036093680D49C3F3031375
:1033F000CC5C0368E34043609468C4F382240C5DB2
:1034000023FA04F484609268C2F342328A5CD340A7
:10341000C36010BD003802400024F40000127A009E
:10342000440000202DE9F04F0D46BFB004AF064622
:10343000B7492868D7F810419046994616F05EFAC9
:1034400020B9B44B013E04351B6800E00023FB614A
:10345000B8F1000F16D098F80020B2B1AE4AAF49CB
:103460004046B9F1000F08BF114612F0E9FEB862FC
:1034700020B112F0C9FDAA4B186007E0A94B4246E3
:103480001B681BE0C7F8288000E0BA62ECB1237823
:10349000EBB1A14BA14AD7F814112046002914BF63
:1034A0001146194612F0CCFE786220B112F0ACFD44
:1034B0009D4B18600CE09B4B1B6822469B49D868CB
:1034C00015F098FD012001F0EBBC7C6200E07B620E
:1034D000D5F800909649484616F010FA002840F0BA
:1034E000C7800446012EA84619DDD8F804301A78A2
:1034F0002D2A05F104050FD113F8012F52B1652AC9
:103500004FF00104F8D0874BD8F800201B68894998
:1035100000F0B9BD013EE5E74FF0010951E005D0EB
:1035200008F104040125DFF8FC8167E054B97D4B04
:103530001B68986812F068FD13F036FDB0FA80F64B
:10354000760900E00026DFF8DC814FF0FF3900202B
:1035500009F0DCFE042805461BD056B129460020A0
:1035600009F0FAFE0D2D41F0E5830A21002009F053
:10357000F3FED8F800002946826810F0EDFF0D2D0B
:1035800005D1D8F8000082680A2110F0E5FFA946AD
:10359000DDE7002C00F0A687B9F10D0F00F0A2873F
:1035A000604C20680D21826810F0D6FF20680A2147
:1035B000826810F0D1FF00F095BF09F101094E4576
:1035C000AEDDAA4607F19801DAF8000008F042FAE9
:1035D000012805F10405044606D1524BDAF8002013
:1035E0001B68554900F04FBD0028E6DA4D4BDAF86C
:1035F00000201B68514900F072BF0135AE4240F314
:103600006B82A14654F804BB4D49584612F018FE8F
:10361000824600B3DAF80430013B002BCAF80430CC
:103620000DDA5146D8F8000013F0F6FA431C0146B3
:103630000CD0D8F80000826810F08EFFEAE7DAF8C4
:1036400000305A1CCAF800201978F2E7504612F0F0
:103650006FFB002304E0584605F066FF4FF0FF3390
:1036600013F0FF0FC9D0FF21D9F8000000F0A7BD6B
:103670003449484616F042F9804600286AD1022EA5
:1036800062D107F198046968204616F041F9204696
:1036900016F061F9012809DD07F1E8030138184443
:1036A00010F8503C2F2B08BF00F8508C002207F177
:1036B000400107F134007C6304F000F918BB07F106
:1036C000E8063B6C46F8903D796B304604F066FEA8
:1036D000A0B997F98330002B04DA3B6C3A6E5A613B
:1036E00001F034BB97F85E30D8060BD53C6C796F8F
:1036F000207806F0F0FA606101F028BB042808BFCA
:10370000052000E005200146204600F058BD00BF1E
:10371000A6B40108C8240020A1B501084CC30108C3
:1037200058020020F40200205C020020BAA7010821
:1037300050C3010854C301086FC3010883C30108C3
:103740005681040895C30108C34BC4491B684A4607
:1037500000F0C5BEC249484616F0D0F888B9012E1F
:1037600040F0098607F19800FFF718FED7F8A4305B
:10377000009307F198010EC9BA4815F0B7FF00F0A1
:1037800050BDB949484616F0B9F8002840F0A3806A
:103790008046012EAA4640F3908055F8043F1A78DF
:1037A0002D2A1CD113F8012FBAB1762A02D148F084
:1037B0000108F7E7662A02D148F00208F2E7A64CB2
:1037C000DAF800202368A949D86815F013FC2368AB
:1037D000DAF80020A64900F082BE013ED9E7022EA9
:1037E0006BD006F18044013CA2495AF8240008F04D
:1037F00031F9012881464DD15AF82440204616F06F
:10380000AAF84FF0000A8346731E994580F2BD84E2
:103810009949204616F072F848B9286808F0A0F9CE
:103820009649024607F1980016F018F819E0BBF126
:10383000000F0CDD04EB0B0313F8013C2F2B06D11A
:10384000286808F08DF9224603468D4905E028686E
:1038500008F086F98B490346224607F1980015F0D7
:10386000FDFF424607F1980155F8040B08F070F887
:103870005FFA80FABAF1000F09D0774B55F8042CA3
:1038800018688149C06807F1980315F0B3FB09F186
:103890000109B9E7032E0AD1DAF80810DAF80400B2
:1038A000424608F055F85FFA80FA00F06EBC6A4BA9
:1038B0005AF824201B6800F089BC674CDAF8002015
:1038C00023687249D86815F095FB2368DAF8002060
:1038D0006F4900F004BE6F49484616F00FF80446E1
:1038E000002854D1012E10D107F198000CF022FBD2
:1038F000012802D107F198003FE0574B66481B684A
:10390000D96815F0FBFB00F08CBC032E39D16E6832
:10391000304616F020F80A2840F00686AD682846A2
:1039200016F019F8082840F0FF85304612F090F99B
:10393000A0F26C70C7F8AC00701D12F089F9013864
:10394000C7F8A80006F1080012F082F9C7F8A40031
:10395000284612F07DF9C7F8A000E81C12F078F9AB
:10396000C7F89C00A81D12F073F907F1E80545F8A7
:10397000500D28460CF034FB2846FFF71FFC00F0E2
:10398000B2BD354B45491B684A4600F0A8BD4449C5
:10399000484615F0B3FF0446002840F0AA80012EE7
:1039A00040F0E9843F4BC7F89830024607F15801D0
:1039B00007F1980003F082FF804600287CD1BD6D9E
:1039C000D5F818902C69A9F102039C4278D92B787C
:1039D000012B11D1022600243146284606F0E4F8D6
:1039E000411C33D0012834D000B90134BB6D9B6930
:1039F00001369E42F0D358E00026D5F824B0344674
:103A000046B95946B86D0BF1010A08F0E3FB0028EE
:103A10004AD1D346B86D10F8343B022B08D1831934
:103A20005A78835D53EA022308BF0134023607E067
:103A3000304408F015F920F0704000B90134043624
:103A4000B9F10109C6F30806DAD12EE04FF00108FA
:103A50002BE04FF0020828E0F402002098C3010890
:103A6000ADC30108B4C30108E5C30108E8C30108F8
:103A700009C40108E8060020F1A40108FDC60108F8
:103A800031C4010836C401083CC4010866C40108F9
:103A900082C40108A5C40108AAC40108C0C4010861
:103AA000E1C40108E4C401088046BB6D1A791C61B9
:103AB00042F001021A7100E02546B8F1000F0ED164
:103AC000A9696A89B3480239514362438B1A5B087A
:103AD0005208490815F00AFE002400F004BD4146D2
:103AE000002005F081FCAC4BAC481B68D96800F0A5
:103AF0001FBDAB49484615F001FFF0B9DFF89892B9
:103B0000012406F1FF38A64210DDD9F8003055F83F
:103B10002400996815F0F2FA444505DAD9F8000056
:103B20002021826810F018FD0134ECE79A4B1868E8
:103B30000A21826810F010FDCEE79A49484615F038
:103B4000DDFE88B9731E012B08D8022E0CBF6868F1
:103B5000954807F09FFEC0B2041C18E38E4B9349B2
:103B60001B684A4600F0BBBC9149484615F0C6FEAA
:103B7000002840F0BA80022EAED16B68FB621B7841
:103B8000002BA9D007F19801F86A06F0A4F978B9DA
:103B900097F8A030DA0608D57F4BFA6A1B6885498A
:103BA000D86815F027FA00F096BCD7F8986000E0C6
:103BB00000262C2012F0F6FC0446002800F08B842E
:103BC000FB6A036006F5806012F0ECFC81466060E1
:103BD000002800F086804FF48063002563614FF079
:103BE000FF33E6602561A56025626362A562002E51
:103BF00000F0A1847049F86A12F022FB8046002888
:103C000036D0DFF894B14FF00A0AD8F80430013BFF
:103C1000002BC8F804300FDA4146DBF8000012F040
:103C2000FBFF431C0FD00D281EBF89F80000013593
:103C300009F101098246E8E7D8F800305A1CC8F8B3
:103C400000201878EFE735B1BAF10A0F1EBF0A233A
:103C500089F800300135404612F06AF8E5602561C8
:103C6000751B05F5806565610025A560A84614E013
:103C7000494BFA6A1B685149D86815F0BBF92046D0
:103C800005F080FC00F027BC4146204605F087FC8B
:103C90000A2807D108F101080025E3689845F3DBFD
:103CA00000F049BC092819D14146204605F0F6FD2F
:103CB000636901336361E3682E1D013B26F003064F
:103CC000E360C5EB080909EB0501AE428846E4DD77
:103CD0002022204605F0ECFE0135F4E708F101084A
:103CE000DBE7204612F066FCF5E33549484615F05F
:103CF00005FEB8B9022E40F0A8876C68314920460D
:103D000015F0FCFD18B9304B40225A83E4E62F49E8
:103D1000204615F0F3FD002840F097872A4B4022FB
:103D20001A83D9E62A49484615F0E8FD002840F0F4
:103D3000178129464FF0010A0546012E8B4650DDBA
:103D400051F8042F13782D2B53D112F8013F002B7B
:103D500045D06C2B02D145F00105F6E7612B02D16D
:103D600045F00205F1E7552B0DD0532B0ED0742BE7
:103D700032D0722B02D145F02005E6E7064B1549FB
:103D80001B684A46ABE34FF0000ADEE74FF0030A38
:103D9000DBE700BFE7C40108F402002026C50108E4
:103DA00031C5010836C501084EC301083BC50108ED
:103DB00052C5010855C501085681040868C50108A7
:103DC0009AC501085E9E0108000002409EC50108D8
:103DD000A2C50108A5C501084FF0020AB5E7013EDA
:103DE000ABE718D1AA4807F06FFE00245FFA80F80D
:103DF00013E000244FF001095BF8290007F064FE8E
:103E00005FFA80F8B8F1000F09F1010918BF012429
:103E10004E45F1DC01E00024A046BAF1000F0CD0C1
:103E20009C4B9D49C3F800A09C489D4B09681D60B0
:103E300010229C4B006812F027FDDFF85CA24FF0C7
:103E40000009DAF80030DFF850B2944E99456CDA88
:103E5000924B18684FEA09128118AE0791F80CB01E
:103E600002D41BF0060F5DD18358FB62E8074ED5E4
:103E700008894A898C4E430ABB61C0F343137B60B7
:103E800000F01F037B61D30A3B613068C2F3451326
:103E900052001BF0100FFB6002F03E03BB60826813
:103EA0004B683B6214BF64212D2110F055FB306834
:103EB0007221826810F050FB30681BF0010F14BFB4
:103EC0002D217721826810F047FB30681BF0020F2C
:103ED00014BF68212D21826810F03EFB30681BF072
:103EE000040F826814BF73212D2110F035FBBB68CD
:103EF0000393FB6802933B6901937B690093BA6962
:103F00007B68396A694802F2BC7215F0EFFB664EB5
:103F1000F86A3368996815F0F1F830680A21826808
:103F200010F01AFB09F101098BE70025DBF80030DE
:103F30009D4206DA2A013368985812F03BFB01359E
:103F4000F4E7306808B112F035FB594A00233360BA
:103F5000CBF800301360B8F1000F40F0C382C2E22A
:103F60005449484615F0CAFC00285AD1012E40F3A6
:103F7000CE8104464FF0010A07F1E80055F8043FEE
:103F800040F8A83D022207F1580103F097FC834650
:103F900000283CD107F1E808BB6D48F8503D396C6A
:103FA000404604F0FBF98346002800F0BB86042855
:103FB0002DD197F8C33003F0200303F0FF01002B4D
:103FC00040F0B486404608F09AF9BA6D53895B0216
:103FD000C7F8A4308046002800F04086B8F1010FF1
:103FE00000F03886B8F1FF3F40F0AA864FF0010B91
:103FF00008F08BFAF862BBF1000F00F033864146FF
:1040000007F198000EF007FEBBF1000F04D05946EF
:10401000286805F0E9F901240AF1010A5645ABD1F7
:1040200061E22549484615F069FC28B9012E40F0A7
:10403000A281FFF7D9F833E22049484615F05EFC2B
:10404000002840F0D280044600E0013E012EAA463E
:1040500040F3BE8055F8043F1A782D2A34D113F866
:10406000012F002AF1D0762A4FF00104F7D00E4D2F
:10407000DAF800202B681249D86814F0BBFF2B68CF
:10408000DAF800200F49D86814F0B4FF2BE200BF23
:1040900057D70108B409002060250020142500200E
:1040A0001C1B002015B00008F4020020C5C5010843
:1040B00038250020EAC50108D9C6010803C6010851
:1040C00006C6010822C60108022E00F0818006F112
:1040D0008045013DB4495AF8250007F0BBFC012892
:1040E000804657D15AF82590484615F034FC0AF11D
:1040F000040583464FF0000A731E984545DAAB4924
:10410000484615F0FBFB48B9286807F029FDA84987
:10411000024607F1980015F0A1FB19E0BBF1000F72
:104120000CDD09EB0B0313F8013C2F2B06D128689B
:1041300007F016FD4A4603469E4905E0286807F049
:104140000FFD9D4903464A4607F1980015F086FB8E
:1041500055F804AB2CB107F198025146974815F079
:10416000C5FA504607F1980105F0CCFD824648B1EA
:10417000934B55F8042C18689249C06807F19803CE
:1041800014F038FF08F10108B6E71AF1000418BF6F
:104190000124A8E1032E15D1DAF80450DAF80860FA
:1041A00024B132462946854815F0A0FA3146284602
:1041B00005F0A8FD014600283FF48EAC824805F0CA
:1041C00013F98FE17E4B5AF825201B687F4986E161
:1041D0007B4CDAF8002023687D49D86814F00AFF88
:1041E0002368DAF800207B4979E17B49484615F0DD
:1041F00085FB20B92946304602F036FA50E177496E
:10420000484615F07BFB10B92946304646E1744913
:10421000484615F073FB58B9012E04D1714815F0CA
:104220000DFB34465FE149466F4815F05FFA59E1EE
:104230006E49484615F062FB70BB012E27DDDFF8A2
:10424000809104464FF0010855F828A007F1980125
:10425000504605F040FE014680B997F8A030DA06D6
:1042600004D4504605F0D7FD60B10AE0D9F800301B
:104270005F49D868524614F0BDFE03E0504605F091
:10428000B3F8012408F101084645DDD12BE14C4B80
:1042900058491B684A4622E15749484615F02EFB0B
:1042A000002839D1012E32DDDFF8149100244FF0BF
:1042B000010855F804BF07F19801584605F00BFEB8
:1042C000A8B997F8A030DB0609D5584605F0A3FD3C
:1042D0008246B8B10146584605F086F80DE0D9F897
:1042E00000303A49D8685A4614F084FE0AE0014684
:1042F000584605F079F84FF0FF0A5146286805F056
:1043000073F8012408F101084645D2D1EBE02C4BAB
:104310003A491B684A46E2E03949484615F0EEFA48
:1043200098B9022E0CD1686811F092FC0446002C5A
:104330003FF4D2AB4FF47A70013C08F007F9F6E78E
:104340001F4B30491B684A46C9E02F49484615F0C3
:10435000D5FA0446A0B9012E0DD101460EF0CAFCD3
:1043600001462A4815F0C2F910491E4815F0D0FA46
:10437000274B1C60B7E0124B1B491B684A46AEE056
:1043800007F158044946204615F0C2FA07F14001EA
:10439000204605F0A0FD00283CD1204615F0DBFAB0
:1043A0000428804647DC66E004070020F1A40108E9
:1043B000FDC6010831C4010836C4010845C601081C
:1043C000F40200204FC6010803C6010851C40108C9
:1043D00064C601087BC6010802C7010899C6010826
:1043E0009EC6010804000020DAC30108A2C6010825
:1043F0006FC30108A5C60108B9C60108F0C50108C8
:10440000BFC60108C5C60108D8C60108DFC6010835
:1044100000070020AC494A46204615F01FFA07F174
:104420004001204605F057FD0028B6D0A74B2A686A
:104430001B68A74953E00438A649204415F032FA16
:104440000346D0B9701C82000A3222F00702E84607
:10445000ADEB020D04A9A04A0A60043D9E4205DDB1
:10446000013355F8042F41F82320F7E702F0FCF858
:104470000446C54637E0022814DDA8F1020097493A
:10448000204415F00FFA68B9954BC7F8A000C7F89B
:104490009830C7F89C4007F19801022005F00AFE09
:1044A000044620E020468F4911F0CAFE0446002849
:1044B0003FF412AB2246502107F1980011F09AFD0B
:1044C00020B107F198000EF0B3FEF3E7204611F09B
:1044D0002FFCFFF701BB7D4BFA6A1B688249D86845
:1044E00014F088FD01247B6A33B1184611F020FCDA
:1044F0007E4B4FF0FF321A60BB6A33B1184611F0A1
:1045000017FC7B4B4FF0FF321A60FB694BB1794BC4
:10451000F9691A686D4B1B68521AD868764914F00D
:1045200069FD204600F0BCBC684B74481B68D96824
:1045300014F0E4FDD6E76368002B00F05C83704E56
:1045400011F0BEF96F4A3368002515606E4A033BCF
:1045500029462846136009F0EBFCAB46A946A8465D
:10456000E268934520DAA2685A4506D1674BA562F6
:10457000D3F80080664BD3F800905946204605F0EA
:104580000EF80A28824609D109F058FC3268013534
:10459000033A954208D80D2011F098FA504611F0D0
:1045A00095FA0BF1010BDBE74946404609F0C0FCE8
:1045B0000022A261E268524D5A45C8BF0BF10103C7
:1045C0004FF00001CCBFE361C4F81CB0084609F00D
:1045D000AFFC01233B61DFF834B14FF0FF333B62A6
:1045E0001A46A16AB96191420AD1226A7A619A4255
:1045F00006D1636A3A6ADB43DB0F934200F08E8098
:104600002868DFF80C81DBF80090D8F800A00021C2
:10461000023809F08DFC022011F0ECF8202011F096
:1046200055FA236A0BB12A2000E0202011F04EFA3F
:10463000202011F04BFA206808B111F03DFA3B69D7
:10464000344E63B1D8F8002033680A3B9A420DD249
:1046500020203A6211F03AFA3A6A0132F4E7284B24
:10466000316818680A39023809F062FC636A002B65
:10467000ACBF4D20202011F029FA202011F026FA9D
:10468000A16A254801310EF0D9FB3B698BB90020A6
:1046900011F0B0F85146484609F04AFCA36ABB61E4
:1046A000236A7B61636ADB43DB0F3B6200233B6170
:1046B00034E0D8F8008033689845E8D2202011F023
:1046C00005FA08F10108F6E7F9C60108F40200202E
:1046D00009C7010801C7010802C7010806C7010888
:1046E00099C601085681040848C701085C020020E9
:1046F00058020020C824002020C7010830C7010844
:10470000600200206423002070230020800200202B
:104710007C0200206402002078C5010809F02EFB0D
:104720001828064600F0898034D8072800F0C68093
:104730000DD8032871D005D8002865D0012800F0D5
:104740006181FAE1042800F07381052849E00B2813
:1047500000F0728111D8082800F0E281092840F0A9
:10476000EC81C14BD3F800904FF0040809F1040329
:1047700093FBF8F84FEA8808D6E1152800F07C8111
:10478000162840F0DA814FF00008DFF8E092DFF8F9
:10479000E4A284E0852800F0358113D8812800F058
:1047A0002D8108D81B282DD0802840F0C6812046B6
:1047B00005F028F8D1E1822800F0C680832800F0B7
:1047C000FC80BAE1882800F08F8106D8862800F0A6
:1047D0002F81872800F0C181AFE1892800F0928104
:1047E0008A2840F0AA81D4F80880204641460EF07D
:1047F00005FB9D4BA0601968C8EB00000144DBF885
:1048000000006EE10123A9E1636A002BB4BFA36835
:104810004FF0FF3363620346A0E1636A002BC0F2EE
:104820009C81A1688B4202DA0A46194601E02FDD1D
:104830001A46204604F0BCFE2DE0636A002BC0F24D
:104840008C81A1688B4211DA0A462046194604F091
:10485000AFFEA368626AC2EB0308B8F1000F1AD07A
:10486000204605F041F808F1FF38F6E710DD1A465A
:10487000204604F09DFE636AA268C2EB0308B8F10B
:10488000000F08D0204608F1FF3805F0A9F8F6E738
:10489000764B00221A604FF0FF3363625DE1D9F876
:1048A0000030984580F25981DAF80030204613F83C
:1048B000081005F023F908F10108F0E728686A4BB1
:1048C000DBF80090D3F800A00021013809F030FB9C
:1048D00007F1E80809F0B2FA654811F0EDF8002395
:1048E00008F8503D0821404609F060FB5146484613
:1048F00009F01EFB97F89830002B00F02E814046FF
:1049000011F0A6F9002840F32881A36A00F1FF38CE
:1049100098450BDAD4F82890C84580F21E812046CD
:1049200004F0EAFEA36A4B45F4D116E140F3158189
:10493000D4F82890C84540F31081204604F062FF67
:10494000A36A4B45F4D108E1D4F80890B9F1000FFF
:1049500040F3038109F1FF31434BA1602046D3F8B6
:1049600000A0DBF8008004F01AFE0A2822D1A9F189
:10497000020120460EF052FAE36800F1010908F145
:10498000FF384FF0000A994507DB5146404609F0D1
:10499000CFFAA36A013BA362DFE049462046FB60F1
:1049A00004F0FDFD0A28FB68EFD009F101090AF1C6
:1049B000010AE8E70AF1FF3192E0A168E368994251
:1049C00080F2CB80284BDBF80080D3F800902046A3
:1049D00004F0E5FD0A2808D1002108F1010009F0E2
:1049E000A7FAA36A0133A36204E009F1010140467A
:1049F00009F09EFAA3680133A360AEE0204604F0FC
:104A00007BFEAAE0A168002940F3A7800139204677
:104A10000EF004FA144B1B68002B00F10108DBF8C0
:104A2000000002DD002109F083FAC4F8088094E058
:104A3000204604F0D5FF90E0D4F80890204649467F
:104A40000EF0DCF94946C9EB0008204604F026FFC9
:104A5000636943446361E368C8EB0303E3600123D4
:104A6000236209F0EBF978E07C020020E4080020E2
:104A70007CC50108DC080020D4F808A0BAF1000FBA
:104A80006BDD0AF1FF3120460EF0C8F900F1010993
:104A90004946C4F808902046DBF8008004F0FEFE8A
:104AA0006369C9EB0A0A53446361E368CAEB030311
:104AB000E360012323620021404609F039FAE368EC
:104AC00099450ADA4946204604F069FD0A2804D0CF
:104AD00010F0FCFF09F10109F1E709F0AFF900213D
:104AE000404609F025FA38E02B6803EB43034FEA10
:104AF0009308B8F1000F30D0204604F083FE08F18F
:104B0000FF38F6E72B6803EB43034FEA9308B8F14D
:104B1000000F22D0204604F0EFFD08F1FF38F6E741
:104B2000204604F0E1FE18E0C84516DD20212046AD
:104B300004F0E4FF09F10109F6E7A6F120035E2B7A
:104B400007D9A6F1A0035F2B03D90D2E01D00A2EA1
:104B500003D13146204604F0D1FF002326F0080699
:104B6000803E012E82BFC14A4FF0FF31116013B960
:104B70007B69BA6935E5236ADBB3BD4D286800213E
:104B8000013809F0D5F907F1E80609F057F9B948F5
:104B900010F092FF002306F8503D97F89830792BDB
:104BA00033D06E2B25D00221304609F0FFF9F4E70F
:104BB0003146204604F0F3FC0A28804603D12946FA
:104BC0000D2014F04DFA2946404614F049FA0136FA
:104BD000E3689E42ECDBB8F10A0F07D029460D20AE
:104BE00014F03EFA29460A2014F03AFA284611F049
:104BF0009FF809F0B3F9A04B186808B111F0DAFC7E
:104C0000204604F0BFFCFEF767BF2868002101388A
:104C100009F08EF909F012F9984810F04DFFF96A81
:104C200007F1980014F074FE402107F1980009F094
:104C3000BDF9934907F1980011F002FB05460028E1
:104C4000D7D04FF00A080026C2E78E4B8E491B686A
:104C50004A4644E44FF0020BFFF7CAB94FF0070B86
:104C6000FFF7C6B94146B86D07F046F983460028FC
:104C70007FF4C5A9D7F8589009F1340B09F13F0228
:104C80005B464FF0200103F8011B9A42F9D14FF027
:104C90002E0389F834304FF0100389F83F3009F1C2
:104CA0004A00F96A06F0D4FF59464246B86D05F04D
:104CB00006F809F154035946184620223B6205F0D4
:104CC00018F84FF02E0389F855303B6AD7F8A0202A
:104CD000B86D194604F0F3FFBB6D4FF0010983F87E
:104CE000039007F1980007F0DAFB834600287FF471
:104CF00086A9D7F8B4B0F96A0BF1160006F0A8FF40
:104D000059464246B86D04F0DAFF4FF010038BF8B5
:104D10000B30BB6D83F80390B86D07F018F983462C
:104D2000FFF772B94FF0080BFFF771B94FF0060BA0
:104D3000FFF76DB9D8F8000029468268FEF725BC58
:104D4000104607F0B7F88346FFF752B94F4BFB63A5
:104D500000221A7007F1380107F13C0002F0AEFDA5
:104D6000044600287DD1BB6BBB655B693B66402573
:104D70004FF02F09D7F86080B8F1000F5DD02021E7
:104D8000304606F016FF002854D1396FB86B07F093
:104D900021FA824600284BD1BB6B796F187804F05A
:104DA0009AFF51463866304606F003FF002841D18D
:104DB00030460DF005FF824600286BD1BB6B796F42
:104DC000187804F088FF40450AD1386F87F849A069
:104DD000A8B1304607F1400104F040FF504607E01B
:104DE0005146304607F002FB82460028E0D051E0F1
:104DF00007F1400303445B7A0BB10130F8E7C31CB1
:104E0000AB4219D8C0EB050E2B46C5EB000C9E45F6
:104E1000F96B08D0013B03EB0C0207F14008424458
:104E2000527ACA54F3E7C043054401F80590A1E75C
:104E3000044602E0044600E01124FB6B64B9402DF7
:104E400003D12F221A70013306E0FA6B525D03F88A
:104E5000012B01353F2DF8D900221A70002C3FF4A8
:104E600042AB21460A48FFF7AAB900BF540200200E
:104E70006002002088C50108DC0800205AC701082C
:104E8000A1B50108F402002069C701080400002050
:104E900095C30108BAF1040F14BF54460224CCE7AD
:104EA000EC37BD46BDE8F08F82B00023019300933C
:104EB0000B0F00900193019B21F07F4113B1009BE8
:104EC000143302E0009B090C18330093009B1B680D
:104ED000194214BF0120002002B07047134B9842C2
:104EE00009D103F5F2331A6A42F400121A621A6AFF
:104EF00022F4001218E00E4B984209D103F5F0336A
:104F00001A6A42F480021A621A6A22F480020BE0E2
:104F1000084B984209D103F5EE331A6A42F40002B5
:104F20001A621A6A22F400021A62704700540040A2
:104F300000580040005C00404FF6FF730360002300
:104F4000037143718371C3717047F0B5002301276A
:104F500003260A6807FA03FC3CEA020233D15A002E
:104F6000056806FA02F4E4432540056091F804E080
:104F700005680EFA02FE4EEA050505600D79013D51
:104F8000012D14D885682C40846091F805E085686F
:104F90000EFA02FE4EEA05058560446824EA0C0418
:104FA00044608C7945689C40A4B22C434460C4683A
:104FB00006FA02F524EA0504C460CD79C46805FA4E
:104FC00002F22243C2600133102BC2D1F0BD0000B7
:104FD0000268134B10B513400C68CA6814434A6941
:104FE00014438A691443CA6914430A6A14434A6A17
:104FF00014438A6A14434A6B14438A6B2243134353
:1050000003604369CC6A23F007020B6B234313430D
:1050100043610B6943604B6883608B68C36010BD5C
:105020003F801CF010B5114B4478DA68D243C2F3CC
:105030000222C2F10403DBB204FA03F3D9B20F2354
:105040001341827813400B43027809491B010A443B
:10505000DBB282F8003303780122580903F01F0302
:1050600002FA03F341F8203010BD00BF00ED00E06C
:1050700000E100E02DE9F04FADF29C4D00260593D4
:105080000B6806965E700B6809969E700B68054665
:105090000C46DE70B346B1464FF0FF37002A01F0F0
:1050A00030811078002801F02A814FF00008CDF8F7
:1050B00000800EAB294622A80BF046F9002805DA3D
:1050C000A94B186841F2BA2301F0A1B801F0178189
:1050D000012840F0C4802FB9A34B186841F2C623C1
:1050E00001F095B84FF00C0A23680AFB0BFA22A8CE
:1050F00003F80A80236803EB0A0710F0A9FD786023
:105100000BF10107002E45D0236853445A781AB991
:105110005A6852425A6089E06368023B5B4502DC90
:10512000204610F099F922680AF10C0302EB0A01FB
:105130001A4449685160226812F80A10D154226852
:1051400002EB0A011A44497851702268D11852447E
:10515000927801328A70226802EB0A011344C978FE
:10516000D9702368002203F80A20236853440121E0
:105170005A602368534459700E9B1878236853442F
:1051800008B9997000E09A70236853442D22DA70B0
:10519000BB464BE0069B002B48D0236853445A780B
:1051A00022B95A680696D2435A603FE06368023BD0
:1051B0005B4502DC204610F04FF922680AF10C032F
:1051C00002EB0A011A4449685160226812F80A1079
:1051D000D154226802EB0A011A44497851702268BE
:1051E000D1185244927801328A70226802EB0A0187
:1051F0001344C978D9702368002203F80A20236871
:10520000534401215A602368534459700E9B187807
:105210002368534408B9997000E09A7023689A444F
:105220007E238AF803300023BB4606936368013B64
:105230005B4502DC204610F00FF922680BF1010BF0
:105240000C2303FB0BF31A440026567022681A4401
:105250003746967022681344DE7001F04DB802287C
:105260002BD12FB9404B186841F2293300F0CFBF42
:105270000C27236807FB0BF70122DA55236822A8C5
:1052800003EB07080BF0E8FCC8F804006368013B77
:105290005B4502DC204610F0DFF8226807F10C03C2
:1052A0001A440027577022681A440BF1010B9770BB
:1052B00022681344DF7001F01FB8032840F05287C2
:1052C000059BE7B9032B07D1284922A814F016FB48
:1052D000002800F03C8709E0059B042B06D12449F7
:1052E00022A814F00BFB002800F035871E4B214943
:1052F000186841F2533300932A4622AB11E1012B87
:1053000044D11D4922A814F0F9FAB8B11B4922A8CA
:1053100014F0F4FAA8B11A4922A814F0EFFA98B1DF
:10532000184922A814F0EAFA88B10F4B16491868F8
:105330002A4622ABC06813F05DFE04E24FF0000A7B
:1053400007E04FF0010A04E04FF0020A01E04FF0DD
:10535000030A002300930E9A0FAB294622A80AF0F5
:10536000F3FF0F9B0E9313E0F40200207BC70108AC
:105370007EC7010883C70108ABC701084DB8010803
:10538000B6A201080ADF0108B0C701084FF0010A00
:10539000002700970FAB0E9A294619A80AF0D4FFF0
:1053A000052840F00F840F9B089393F80080B8F114
:1053B000000F0BD1AD4BAE491B682A46D86813F0DD
:1053C00019FE4FF00109444600F0CABE059B012BAF
:1053D00040F0D081A74BD3F80080A74B1B68049303
:1053E0009946474517DA09F10400202222A9CDF891
:1053F0001C9014F0B8FA09F18C09079B08B1013729
:10540000EFE7002F07DB994A1B6810689B49009360
:105410002A4622AB85E00E9B0793994B1B680A93A3
:10542000984B1B68984524D1934FB8F1000F08D1D1
:105430008C210A2013F0D6FD3860B0B94FF0FF3848
:105440003DE08C2008F10A0800FB08F8414604986A
:1054500014F0FCF938600028F0D0A8F5AF684FF4DC
:10546000AF620021404411F00EF9864A13680A33F6
:105470001360804BD3F800807F4B4FF08C091B6882
:10548000049309FB08F903EB090722A92022381D20
:1054900014F07EFA0A9BBB62049BC7F82CA07A49E1
:1054A00043F8095022A814F029FA08B9012300E0B2
:1054B0000023704AC7F8883008F101031360734F66
:1054C0007349C7F8008022AA63A814F0C7F92946D7
:1054D00063A80CF0E5FC6F4B1A68342303FB002033
:1054E0003B688362079801300AF025FF0378292B77
:1054F00080460AD101300AF01EFF0278034622B12D
:105500002F2A07D142782F2A04D14FF0000ACDF874
:1055100010A024E0554A6049106841F2C902009287
:105520002A46C06813F066FD0DE1002B40F0F180C3
:10553000079B2C2B1FD1089A002313702946009338
:10554000424610AB11A80AF0FFFEC0B94F4B1A68D3
:10555000494B1B688C2101FB0233C3F830A0089B28
:105560001B780793002B00F0DE80079B282B049B01
:10557000DBD10133D2E0292B40F0C680DBE70328E2
:1055800004D03A4B186841F2EE0369E04349DDF874
:10559000409011A814F0B2F9074630BB009010AB50
:1055A0004A46294611A80AF0CFFE032804D02F4B03
:1055B000186841F2FB0353E0344BDFF8BC901868E5
:1055C0000A93D9F800304FF08C082A4611A908FB3D
:1055D00000300CF004F90A9BD3F800E0D9F8003051
:1055E00001463A4608FB0E3077E02D4911A814F029
:1055F00085F910BB009010AB4A46294611A80AF065
:10560000A3FE032804D0194B186841F2091327E0C0
:10561000DFF86480DFF87490D8F80030D9F8000023
:105620008C272A4607FB003011A90CF064F8D9F842
:1056300000E0D8F8003001224CE01A4911A814F01B
:105640005DF9002856D1009010AB4A46294611A8B2
:105650000AF07AFE032829D0044B186841F2171388
:105660002A461149C06813F0C5FC4AE0F402002044
:10567000DBC70108A00900200809002004C80108B0
:105680006C090020840900203EC801088809002018
:105690001AB0010870090020619E01084DB8010888
:1056A000B6A201080ADF0108C69D0108DFF81883C9
:1056B000DFF81093D8F80030D9F800008C272A467C
:1056C00007FB003011A90BF0A1FFD9F800E0D8F8D2
:1056D00000300222014607FB0E300CF08BFD0898CB
:1056E0009DF81C3000F8013B0AF025FE0AF1010A82
:1056F000804609E0B04BB1491B682A46D86813F0D0
:1057000079FC4FF0010912E0089B1B78292B06D188
:105710000BE0079B292B02D1049B013B0493089BC0
:10572000013308931BE7994601E04FF00009089BFD
:105730001B7863B9049B53B19F4BA1491B682A4650
:10574000D86813F057FC4FF0010900F007BD9D4BDE
:10575000CDF838801A689C4B1B688C2101FB023302
:10576000B9F1010FC3F830A000F0F8844FF0000940
:1057700000F0EBBC0E9B0B9304970DF18808049B83
:10578000924A1B01404699589F1814F0B7F8002818
:1057900000F09080049B0133802B0493EFD18A4A60
:1057A0008B4BD2F800901B684F4600220492049A5B
:1057B0009A4211DA391D4046079314F09FF8BA4611
:1057C000079B8C3728B9DAF888300133CAF888305B
:1057D00059E0049A0132E9E755D17E4BDFF808829F
:1057E0001F68D8F800309F4226D1DFF8EC9157B9F6
:1057F0003421142013F0F6FBC9F80000B8B94FF0BB
:10580000FF33049333E03420143747433946D9F843
:10581000000014F01BF8C9F800000028EFD0A7F52D
:1058200082674FF482620021384410F02CFFD8F8D0
:1058300000301433C8F80030DFF89881D8F8003011
:10584000049334275F43644BD3F800A00AEB0709A5
:10585000202222A909F1100014F09AF800234AF836
:105860000750C9F80430049B0133C8F800305B4B83
:10587000049A1A600C23226803FB0BF31021D15405
:105880004FF0000928E0049A8C2303FB0299D9F811
:105890002C303BB9524B1A60524B0F221A604FF01A
:1058A000090901E04FF000090C23226803FB0BF308
:1058B0000F2110E0FB68002B40F09E85484B049AB6
:1058C0001A60484B0E221A604FF009090C23226817
:1058D00003FB0BF30E21D154002E37D06368023B3B
:1058E0009B4502DB20460FF0B7FD0BF1010B0C22AC
:1058F00002FB0BF22168A2F10C03C85C88542168FA
:10590000C81811444078487021688818194489786B
:10591000013181702168C8180A44C078D0702268AB
:105920000021D15422681A440120516022681A448F
:1059300050700B9A167822681A440EB9907000E0E5
:105940009170226813442D22DA7056E0069B002BDA
:1059500053D06368023B9B4502DB20460FF07CFD81
:105960000BF1010B0C2202FB0BF22168A2F10C03DC
:10597000C85C88542168C818114440784870216870
:10598000881819448978013181702168C8180A443F
:10599000C078D07022680021D15422681A440120B6
:1059A000516022681A4450700B9A167822681A4483
:1059B000E6B990701BE000BFF402002043C8010864
:1059C0006AC801088809002008090020F4BA010803
:1059D000A0090020F0080020540900200000002049
:1059E000280400202C0400200C090020917022685B
:1059F00013447E22DA70002306930C2303FB0BF37F
:105A00000A930A9A23681344049A5A6004212020B6
:105A100013F0E8FA079008980B9F0AF08CFC013706
:105A2000064638460AF087FC002306F1FF380C9042
:105A30000D931E4608F10102089298F80120002AF1
:105A400000F0DD84282A01D10133B8E0222A05D1F3
:105A50000D9981F001010D911BB1B0E0002B40F0D8
:105A6000AA800D9B002B40F09F802C2A02D0292A6F
:105A700040F09A800FF007FD089B0C9A0B90C2EB48
:105A8000030ABAF1000F73DD0AF1010010F08AFD7C
:105A9000524607460C9913F07BFF4FF0000307F8BE
:105AA0000A30AD4BAC4AD3F800A00B994FF0FF334E
:105AB0001360002300933A462846FFF7DBFA0128DB
:105AC0000DD1384610F076FD0B980FF0A9FC002E92
:105AD00000F09884013E079B53F82600F5E79E4BA3
